{
  "contractName": "Bidchain",
  "abi": [
    {
      "inputs": [],
      "payable": false,
      "stateMutability": "nonpayable",
      "type": "constructor"
    },
    {
      "anonymous": false,
      "inputs": [
        {
          "indexed": false,
          "internalType": "uint32",
          "name": "auctionId",
          "type": "uint32"
        },
        {
          "indexed": false,
          "internalType": "uint32",
          "name": "endTime",
          "type": "uint32"
        },
        {
          "indexed": false,
          "internalType": "uint256",
          "name": "newPrice",
          "type": "uint256"
        },
        {
          "indexed": false,
          "internalType": "address",
          "name": "bidder",
          "type": "address"
        }
      ],
      "name": "Bidding",
      "type": "event"
    },
    {
      "anonymous": false,
      "inputs": [
        {
          "indexed": false,
          "internalType": "uint32",
          "name": "auctionId",
          "type": "uint32"
        }
      ],
      "name": "Closed",
      "type": "event"
    },
    {
      "anonymous": false,
      "inputs": [
        {
          "indexed": false,
          "internalType": "uint32",
          "name": "auctionId",
          "type": "uint32"
        }
      ],
      "name": "Locked",
      "type": "event"
    },
    {
      "anonymous": false,
      "inputs": [
        {
          "indexed": false,
          "internalType": "uint32",
          "name": "auctionId",
          "type": "uint32"
        },
        {
          "indexed": false,
          "internalType": "uint32",
          "name": "endTime",
          "type": "uint32"
        },
        {
          "indexed": false,
          "internalType": "uint256",
          "name": "beginPrice",
          "type": "uint256"
        },
        {
          "indexed": false,
          "internalType": "address",
          "name": "seller",
          "type": "address"
        },
        {
          "indexed": false,
          "internalType": "string",
          "name": "itemName",
          "type": "string"
        },
        {
          "indexed": false,
          "internalType": "string",
          "name": "itemDescript",
          "type": "string"
        },
        {
          "indexed": false,
          "internalType": "string",
          "name": "itemImageURL",
          "type": "string"
        }
      ],
      "name": "NewAuction",
      "type": "event"
    },
    {
      "anonymous": false,
      "inputs": [
        {
          "indexed": false,
          "internalType": "uint32",
          "name": "auctionId",
          "type": "uint32"
        }
      ],
      "name": "Released",
      "type": "event"
    },
    {
      "anonymous": false,
      "inputs": [
        {
          "indexed": false,
          "internalType": "uint32",
          "name": "auctionId",
          "type": "uint32"
        }
      ],
      "name": "Waited",
      "type": "event"
    },
    {
      "constant": true,
      "inputs": [
        {
          "internalType": "uint32",
          "name": "",
          "type": "uint32"
        }
      ],
      "name": "auction2Seller",
      "outputs": [
        {
          "internalType": "address",
          "name": "",
          "type": "address"
        }
      ],
      "payable": false,
      "stateMutability": "view",
      "type": "function"
    },
    {
      "constant": true,
      "inputs": [
        {
          "internalType": "uint256",
          "name": "",
          "type": "uint256"
        }
      ],
      "name": "auctions",
      "outputs": [
        {
          "internalType": "uint32",
          "name": "endTime",
          "type": "uint32"
        },
        {
          "internalType": "uint256",
          "name": "price",
          "type": "uint256"
        },
        {
          "internalType": "uint256",
          "name": "deposit",
          "type": "uint256"
        },
        {
          "internalType": "address payable",
          "name": "seller",
          "type": "address"
        },
        {
          "internalType": "address payable",
          "name": "winner",
          "type": "address"
        },
        {
          "internalType": "string",
          "name": "itemName",
          "type": "string"
        },
        {
          "internalType": "string",
          "name": "itemDescript",
          "type": "string"
        },
        {
          "internalType": "string",
          "name": "itemImageURL",
          "type": "string"
        },
        {
          "internalType": "enum Bidchain.State",
          "name": "state",
          "type": "uint8"
        }
      ],
      "payable": false,
      "stateMutability": "view",
      "type": "function"
    },
    {
      "constant": true,
      "inputs": [],
      "name": "securityDeposit",
      "outputs": [
        {
          "internalType": "uint256",
          "name": "",
          "type": "uint256"
        }
      ],
      "payable": false,
      "stateMutability": "view",
      "type": "function"
    },
    {
      "constant": true,
      "inputs": [
        {
          "internalType": "address",
          "name": "",
          "type": "address"
        },
        {
          "internalType": "uint256",
          "name": "",
          "type": "uint256"
        }
      ],
      "name": "seller2Auction",
      "outputs": [
        {
          "internalType": "uint32",
          "name": "",
          "type": "uint32"
        }
      ],
      "payable": false,
      "stateMutability": "view",
      "type": "function"
    },
    {
      "constant": false,
      "inputs": [
        {
          "internalType": "uint32",
          "name": "period",
          "type": "uint32"
        },
        {
          "internalType": "uint256",
          "name": "beginPrice",
          "type": "uint256"
        },
        {
          "internalType": "string",
          "name": "name",
          "type": "string"
        },
        {
          "internalType": "string",
          "name": "descript",
          "type": "string"
        },
        {
          "internalType": "string",
          "name": "imageURL",
          "type": "string"
        }
      ],
      "name": "createAuction",
      "outputs": [
        {
          "internalType": "uint32",
          "name": "",
          "type": "uint32"
        }
      ],
      "payable": true,
      "stateMutability": "payable",
      "type": "function"
    },
    {
      "constant": false,
      "inputs": [
        {
          "internalType": "uint32",
          "name": "auctionId",
          "type": "uint32"
        }
      ],
      "name": "bidding",
      "outputs": [],
      "payable": true,
      "stateMutability": "payable",
      "type": "function"
    },
    {
      "constant": false,
      "inputs": [],
      "name": "checking",
      "outputs": [],
      "payable": false,
      "stateMutability": "nonpayable",
      "type": "function"
    },
    {
      "constant": false,
      "inputs": [
        {
          "internalType": "uint32",
          "name": "auctionId",
          "type": "uint32"
        }
      ],
      "name": "confirm",
      "outputs": [],
      "payable": false,
      "stateMutability": "nonpayable",
      "type": "function"
    },
    {
      "constant": false,
      "inputs": [
        {
          "internalType": "uint32",
          "name": "auctionId",
          "type": "uint32"
        }
      ],
      "name": "release",
      "outputs": [],
      "payable": false,
      "stateMutability": "nonpayable",
      "type": "function"
    },
    {
      "constant": true,
      "inputs": [],
      "name": "getAuctionNum",
      "outputs": [
        {
          "internalType": "uint256",
          "name": "",
          "type": "uint256"
        }
      ],
      "payable": false,
      "stateMutability": "view",
      "type": "function"
    },
    {
      "constant": true,
      "inputs": [
        {
          "internalType": "uint32",
          "name": "auctionId",
          "type": "uint32"
        }
      ],
      "name": "getAuctionById",
      "outputs": [
        {
          "internalType": "uint32",
          "name": "",
          "type": "uint32"
        },
        {
          "internalType": "uint256",
          "name": "",
          "type": "uint256"
        },
        {
          "internalType": "uint256",
          "name": "",
          "type": "uint256"
        },
        {
          "internalType": "address",
          "name": "",
          "type": "address"
        },
        {
          "internalType": "address",
          "name": "",
          "type": "address"
        },
        {
          "internalType": "string",
          "name": "",
          "type": "string"
        },
        {
          "internalType": "string",
          "name": "",
          "type": "string"
        },
        {
          "internalType": "string",
          "name": "",
          "type": "string"
        },
        {
          "internalType": "enum Bidchain.State",
          "name": "",
          "type": "uint8"
        }
      ],
      "payable": false,
      "stateMutability": "view",
      "type": "function"
    },
    {
      "constant": true,
      "inputs": [
        {
          "internalType": "uint32",
          "name": "auctionId",
          "type": "uint32"
        }
      ],
      "name": "getPrice",
      "outputs": [
        {
          "internalType": "uint256",
          "name": "",
          "type": "uint256"
        }
      ],
      "payable": false,
      "stateMutability": "view",
      "type": "function"
    },
    {
      "constant": true,
      "inputs": [
        {
          "internalType": "uint32",
          "name": "auctionId",
          "type": "uint32"
        }
      ],
      "name": "getRemainTime",
      "outputs": [
        {
          "internalType": "uint32",
          "name": "",
          "type": "uint32"
        }
      ],
      "payable": false,
      "stateMutability": "view",
      "type": "function"
    },
    {
      "constant": true,
      "inputs": [
        {
          "internalType": "uint32",
          "name": "auctionId",
          "type": "uint32"
        }
      ],
      "name": "getSeller",
      "outputs": [
        {
          "internalType": "address",
          "name": "",
          "type": "address"
        }
      ],
      "payable": false,
      "stateMutability": "view",
      "type": "function"
    },
    {
      "constant": true,
      "inputs": [
        {
          "internalType": "uint32",
          "name": "auctionId",
          "type": "uint32"
        }
      ],
      "name": "getWinner",
      "outputs": [
        {
          "internalType": "address",
          "name": "",
          "type": "address"
        }
      ],
      "payable": false,
      "stateMutability": "view",
      "type": "function"
    },
    {
      "constant": true,
      "inputs": [
        {
          "internalType": "uint32",
          "name": "auctionId",
          "type": "uint32"
        }
      ],
      "name": "getItemInfo",
      "outputs": [
        {
          "internalType": "string",
          "name": "",
          "type": "string"
        },
        {
          "internalType": "string",
          "name": "",
          "type": "string"
        },
        {
          "internalType": "string",
          "name": "",
          "type": "string"
        }
      ],
      "payable": false,
      "stateMutability": "view",
      "type": "function"
    },
    {
      "constant": false,
      "inputs": [
        {
          "internalType": "uint32",
          "name": "auctionId",
          "type": "uint32"
        },
        {
          "internalType": "uint32",
          "name": "newTime",
          "type": "uint32"
        }
      ],
      "name": "setTime",
      "outputs": [
        {
          "internalType": "bool",
          "name": "",
          "type": "bool"
        }
      ],
      "payable": false,
      "stateMutability": "nonpayable",
      "type": "function"
    },
    {
      "constant": false,
      "inputs": [
        {
          "internalType": "uint32",
          "name": "auctionId",
          "type": "uint32"
        },
        {
          "internalType": "string",
          "name": "name",
          "type": "string"
        },
        {
          "internalType": "string",
          "name": "descript",
          "type": "string"
        },
        {
          "internalType": "string",
          "name": "imageURL",
          "type": "string"
        }
      ],
      "name": "setItemInfo",
      "outputs": [
        {
          "internalType": "bool",
          "name": "",
          "type": "bool"
        }
      ],
      "payable": false,
      "stateMutability": "nonpayable",
      "type": "function"
    },
    {
      "constant": true,
      "inputs": [],
      "name": "getSecurityDeposit",
      "outputs": [
        {
          "internalType": "uint256",
          "name": "",
          "type": "uint256"
        }
      ],
      "payable": false,
      "stateMutability": "view",
      "type": "function"
    },
    {
      "constant": false,
      "inputs": [
        {
          "internalType": "uint256",
          "name": "newDeposit",
          "type": "uint256"
        }
      ],
      "name": "setSecurityDeposit",
      "outputs": [],
      "payable": false,
      "stateMutability": "nonpayable",
      "type": "function"
    }
  ],
  "bytecode": "0x608060405234801561001057600080fd5b5067016345785d8a000060038190555033600460006101000a81548173ffffffffffffffffffffffffffffffffffffffff021916908373ffffffffffffffffffffffffffffffffffffffff16021790555061323c806100706000396000f3fe60806040526004361061011f5760003560e01c806397adfa69116100a0578063da26663a11610064578063da26663a14610b93578063dc4a1dcc14610be8578063dda42b3714610d7a578063eb13a42014610dbb578063ebb5e0af14610e3c5761011f565b806397adfa69146105ee578063a8672da614610746578063b070d850146107c7578063bfa5858d14610924578063d2e2697e14610b525761011f565b8063477398aa116100e7578063477398aa146102ab578063571a26a01461032c57806364a406421461055457806386aefcea1461057f578063888dd074146105ba5761011f565b806311dec6021461012457806317a9b77214610185578063220e5ab31461019c578063267f45d5146101c75780634636499d14610230575b600080fd5b34801561013057600080fd5b506101636004803603602081101561014757600080fd5b81019080803563ffffffff169060200190929190505050610e67565b604051808263ffffffff1663ffffffff16815260200191505060405180910390f35b34801561019157600080fd5b5061019a610f09565b005b3480156101a857600080fd5b506101b16111e3565b6040518082815260200191505060405180910390f35b3480156101d357600080fd5b50610216600480360360408110156101ea57600080fd5b81019080803563ffffffff169060200190929190803563ffffffff1690602001909291905050506111e9565b604051808215151515815260200191505060405180910390f35b34801561023c57600080fd5b506102896004803603604081101561025357600080fd5b81019080803573ffffffffffffffffffffffffffffffffffffffff169060200190929190803590602001909291905050506112e3565b604051808263ffffffff1663ffffffff16815260200191505060405180910390f35b3480156102b757600080fd5b506102ea600480360360208110156102ce57600080fd5b81019080803563ffffffff169060200190929190505050611329565b604051808273ffffffffffffffffffffffffffffffffffffffff1673ffffffffffffffffffffffffffffffffffffffff16815260200191505060405180910390f35b34801561033857600080fd5b506103656004803603602081101561034f57600080fd5b810190808035906020019092919050505061138d565b604051808a63ffffffff1663ffffffff1681526020018981526020018881526020018773ffffffffffffffffffffffffffffffffffffffff1673ffffffffffffffffffffffffffffffffffffffff1681526020018673ffffffffffffffffffffffffffffffffffffffff1673ffffffffffffffffffffffffffffffffffffffff16815260200180602001806020018060200185600481111561040357fe5b60ff168152602001848103845288818151815260200191508051906020019080838360005b83811015610443578082015181840152602081019050610428565b50505050905090810190601f1680156104705780820380516001836020036101000a031916815260200191505b50848103835287818151815260200191508051906020019080838360005b838110156104a957808201518184015260208101905061048e565b50505050905090810190601f1680156104d65780820380516001836020036101000a031916815260200191505b50848103825286818151815260200191508051906020019080838360005b8381101561050f5780820151818401526020810190506104f4565b50505050905090810190601f16801561053c5780820380516001836020036101000a031916815260200191505b509c5050505050505050505050505060405180910390f35b34801561056057600080fd5b5061056961160d565b6040518082815260200191505060405180910390f35b34801561058b57600080fd5b506105b8600480360360208110156105a257600080fd5b8101908080359060200190929190505050611617565b005b6105ec600480360360208110156105d057600080fd5b81019080803563ffffffff1690602001909291905050506116e4565b005b3480156105fa57600080fd5b5061072c6004803603608081101561061157600080fd5b81019080803563ffffffff1690602001909291908035906020019064010000000081111561063e57600080fd5b82018360208201111561065057600080fd5b8035906020019184600183028401116401000000008311171561067257600080fd5b90919293919293908035906020019064010000000081111561069357600080fd5b8201836020820111156106a557600080fd5b803590602001918460018302840111640100000000831117156106c757600080fd5b9091929391929390803590602001906401000000008111156106e857600080fd5b8201836020820111156106fa57600080fd5b8035906020019184600183028401116401000000008311171561071c57600080fd5b9091929391929390505050611ccf565b604051808215151515815260200191505060405180910390f35b34801561075257600080fd5b506107856004803603602081101561076957600080fd5b81019080803563ffffffff169060200190929190505050611e0a565b604051808273ffffffffffffffffffffffffffffffffffffffff1673ffffffffffffffffffffffffffffffffffffffff16815260200191505060405180910390f35b610902600480360360a08110156107dd57600080fd5b81019080803563ffffffff169060200190929190803590602001909291908035906020019064010000000081111561081457600080fd5b82018360208201111561082657600080fd5b8035906020019184600183028401116401000000008311171561084857600080fd5b90919293919293908035906020019064010000000081111561086957600080fd5b82018360208201111561087b57600080fd5b8035906020019184600183028401116401000000008311171561089d57600080fd5b9091929391929390803590602001906401000000008111156108be57600080fd5b8201836020820111156108d057600080fd5b803590602001918460018302840111640100000000831117156108f257600080fd5b9091929391929390505050611e6e565b604051808263ffffffff1663ffffffff16815260200191505060405180910390f35b34801561093057600080fd5b506109636004803603602081101561094757600080fd5b81019080803563ffffffff169060200190929190505050612465565b604051808a63ffffffff1663ffffffff1681526020018981526020018881526020018773ffffffffffffffffffffffffffffffffffffffff1673ffffffffffffffffffffffffffffffffffffffff1681526020018673ffffffffffffffffffffffffffffffffffffffff1673ffffffffffffffffffffffffffffffffffffffff168152602001806020018060200180602001856004811115610a0157fe5b60ff168152602001848103845288818151815260200191508051906020019080838360005b83811015610a41578082015181840152602081019050610a26565b50505050905090810190601f168015610a6e5780820380516001836020036101000a031916815260200191505b50848103835287818151815260200191508051906020019080838360005b83811015610aa7578082015181840152602081019050610a8c565b50505050905090810190601f168015610ad45780820380516001836020036101000a031916815260200191505b50848103825286818151815260200191508051906020019080838360005b83811015610b0d578082015181840152602081019050610af2565b50505050905090810190601f168015610b3a5780820380516001836020036101000a031916815260200191505b509c5050505050505050505050505060405180910390f35b348015610b5e57600080fd5b50610b9160048036036020811015610b7557600080fd5b81019080803563ffffffff169060200190929190505050612817565b005b348015610b9f57600080fd5b50610bd260048036036020811015610bb657600080fd5b81019080803563ffffffff169060200190929190505050612a47565b6040518082815260200191505060405180910390f35b348015610bf457600080fd5b50610c2760048036036020811015610c0b57600080fd5b81019080803563ffffffff169060200190929190505050612a8b565b60405180806020018060200180602001848103845287818151815260200191508051906020019080838360005b83811015610c6f578082015181840152602081019050610c54565b50505050905090810190601f168015610c9c5780820380516001836020036101000a031916815260200191505b50848103835286818151815260200191508051906020019080838360005b83811015610cd5578082015181840152602081019050610cba565b50505050905090810190601f168015610d025780820380516001836020036101000a031916815260200191505b50848103825285818151815260200191508051906020019080838360005b83811015610d3b578082015181840152602081019050610d20565b50505050905090810190601f168015610d685780820380516001836020036101000a031916815260200191505b50965050505050505060405180910390f35b348015610d8657600080fd5b50610db960048036036020811015610d9d57600080fd5b81019080803563ffffffff169060200190929190505050612cf4565b005b348015610dc757600080fd5b50610dfa60048036036020811015610dde57600080fd5b81019080803563ffffffff169060200190929190505050612ff4565b604051808273ffffffffffffffffffffffffffffffffffffffff1673ffffffffffffffffffffffffffffffffffffffff16815260200191505060405180910390f35b348015610e4857600080fd5b50610e51613027565b6040518082815260200191505060405180910390f35b600080805490508263ffffffff1610610e7f57600080fd5b60008263ffffffff1681548110610e9257fe5b906000526020600020906009020160000160009054906101000a900463ffffffff1663ffffffff164263ffffffff1610610ecb57600080fd5b4260008363ffffffff1681548110610edf57fe5b906000526020600020906009020160000160009054906101000a900463ffffffff16039050919050565b60008090505b6000805490508163ffffffff1610156111e0574263ffffffff1660008263ffffffff1681548110610f3c57fe5b906000526020600020906009020160000160009054906101000a900463ffffffff1663ffffffff1610156111d35760006004811115610f7757fe5b60008263ffffffff1681548110610f8a57fe5b906000526020600020906009020160080160009054906101000a900460ff166004811115610fb457fe5b14156110f75760008163ffffffff1681548110610fcd57fe5b906000526020600020906009020160030160009054906101000a900473ffffffffffffffffffffffffffffffffffffffff1673ffffffffffffffffffffffffffffffffffffffff166108fc60008363ffffffff168154811061102b57fe5b9060005260206000209060090201600201549081150290604051600060405180830381858888f19350505050158015611068573d6000803e3d6000fd5b50600460008263ffffffff168154811061107e57fe5b906000526020600020906009020160080160006101000a81548160ff021916908360048111156110aa57fe5b02179055507f02c73bd5d87c6dd0d0f2c24d0f6807f6a799e5131fc0beebea790be17a3f168a81604051808263ffffffff1663ffffffff16815260200191505060405180910390a16111d2565b6001600481111561110457fe5b60008263ffffffff168154811061111757fe5b906000526020600020906009020160080160009054906101000a900460ff16600481111561114157fe5b14156111d157600260008263ffffffff168154811061115c57fe5b906000526020600020906009020160080160006101000a81548160ff0219169083600481111561118857fe5b02179055507f20ad90ba9f06e508fd033bc6052be35fe08f48c63312dc26bec01a5376ae2edb81604051808263ffffffff1663ffffffff16815260200191505060405180910390a15b5b5b8080600101915050610f0f565b50565b60035481565b600080805490508363ffffffff161061120157600080fd5b60008363ffffffff168154811061121457fe5b906000526020600020906009020160030160009054906101000a900473ffffffffffffffffffffffffffffffffffffffff1673ffffffffffffffffffffffffffffffffffffffff163373ffffffffffffffffffffffffffffffffffffffff161461127d57600080fd5b4263ffffffff168263ffffffff161161129957600090506112dd565b8160008463ffffffff16815481106112ad57fe5b906000526020600020906009020160000160006101000a81548163ffffffff021916908363ffffffff1602179055505b92915050565b600160205281600052604060002081815481106112fc57fe5b9060005260206000209060089182820401919006600402915091509054906101000a900463ffffffff1681565b600080805490508263ffffffff161061134157600080fd5b60008263ffffffff168154811061135457fe5b906000526020600020906009020160040160009054906101000a900473ffffffffffffffffffffffffffffffffffffffff169050919050565b6000818154811061139a57fe5b90600052602060002090600902016000915090508060000160009054906101000a900463ffffffff16908060010154908060020154908060030160009054906101000a900473ffffffffffffffffffffffffffffffffffffffff16908060040160009054906101000a900473ffffffffffffffffffffffffffffffffffffffff1690806005018054600181600116156101000203166002900480601f0160208091040260200160405190810160405280929190818152602001828054600181600116156101000203166002900480156114b45780601f10611489576101008083540402835291602001916114b4565b820191906000526020600020905b81548152906001019060200180831161149757829003601f168201915b505050505090806006018054600181600116156101000203166002900480601f0160208091040260200160405190810160405280929190818152602001828054600181600116156101000203166002900480156115525780601f1061152757610100808354040283529160200191611552565b820191906000526020600020905b81548152906001019060200180831161153557829003601f168201915b505050505090806007018054600181600116156101000203166002900480601f0160208091040260200160405190810160405280929190818152602001828054600181600116156101000203166002900480156115f05780601f106115c5576101008083540402835291602001916115f0565b820191906000526020600020905b8154815290600101906020018083116115d357829003601f168201915b5050505050908060080160009054906101000a900460ff16905089565b6000600354905090565b600460009054906101000a900473ffffffffffffffffffffffffffffffffffffffff1673ffffffffffffffffffffffffffffffffffffffff163373ffffffffffffffffffffffffffffffffffffffff16146116da576040517f08c379a000000000000000000000000000000000000000000000000000000000815260040180806020018281038252601b8152602001807f596f7520617265206e6f7420636f6e7472616374206f776e657221000000000081525060200191505060405180910390fd5b8060038190555050565b806000805490508163ffffffff1610611765576040517f08c379a00000000000000000000000000000000000000000000000000000000081526004018080602001828103825260138152602001807f496e76616c69642061756374696f6e204944210000000000000000000000000081525060200191505060405180910390fd5b343373ffffffffffffffffffffffffffffffffffffffff163110156117f2576040517f08c379a000000000000000000000000000000000000000000000000000000000815260040180806020018281038252601d8152602001807f496e73756666696369656e74206163636f756e742062616c616e63652100000081525060200191505060405180910390fd5b60008163ffffffff168154811061180557fe5b906000526020600020906009020160010154341161186e576040517f08c379a00000000000000000000000000000000000000000000000000000000081526004018080602001828103825260268152602001806131e26026913960400191505060405180910390fd5b60008163ffffffff168154811061188157fe5b906000526020600020906009020160000160009054906101000a900463ffffffff1663ffffffff164263ffffffff1610611923576040517f08c379a00000000000000000000000000000000000000000000000000000000081526004018080602001828103825260138152602001807f41756374696f6e2068617320636c6f736564210000000000000000000000000081525060200191505060405180910390fd5b6000600481111561193057fe5b60008263ffffffff168154811061194357fe5b906000526020600020906009020160080160009054906101000a900460ff16600481111561196d57fe5b14806119c057506001600481111561198157fe5b60008263ffffffff168154811061199457fe5b906000526020600020906009020160080160009054906101000a900460ff1660048111156119be57fe5b145b611a32576040517f08c379a00000000000000000000000000000000000000000000000000000000081526004018080602001828103825260148152602001807f41756374696f6e20697320696e6163746976652100000000000000000000000081525060200191505060405180910390fd5b60016004811115611a3f57fe5b60008363ffffffff1681548110611a5257fe5b906000526020600020906009020160080160009054906101000a900460ff166004811115611a7c57fe5b1415611b325760008263ffffffff1681548110611a9557fe5b906000526020600020906009020160040160009054906101000a900473ffffffffffffffffffffffffffffffffffffffff1673ffffffffffffffffffffffffffffffffffffffff166108fc60008463ffffffff1681548110611af357fe5b9060005260206000209060090201600101549081150290604051600060405180830381858888f19350505050158015611b30573d6000803e3d6000fd5b505b3360008363ffffffff1681548110611b4657fe5b906000526020600020906009020160040160006101000a81548173ffffffffffffffffffffffffffffffffffffffff021916908373ffffffffffffffffffffffffffffffffffffffff1602179055503460008363ffffffff1681548110611ba957fe5b906000526020600020906009020160010181905550600160008363ffffffff1681548110611bd357fe5b906000526020600020906009020160080160006101000a81548160ff02191690836004811115611bff57fe5b02179055507ffc6090b9c9d42b862484b17bf24ce4f1dc70651222a11a4546be2acc9c91d8db8260008463ffffffff1681548110611c3957fe5b906000526020600020906009020160000160009054906101000a900463ffffffff163433604051808563ffffffff1663ffffffff1681526020018463ffffffff1663ffffffff1681526020018381526020018273ffffffffffffffffffffffffffffffffffffffff1673ffffffffffffffffffffffffffffffffffffffff16815260200194505050505060405180910390a15050565b600080805490508863ffffffff1610611ce757600080fd5b60008863ffffffff1681548110611cfa57fe5b906000526020600020906009020160030160009054906101000a900473ffffffffffffffffffffffffffffffffffffffff1673ffffffffffffffffffffffffffffffffffffffff163373ffffffffffffffffffffffffffffffffffffffff1614611d6357600080fd5b868660008a63ffffffff1681548110611d7857fe5b90600052602060002090600902016005019190611d96929190613033565b50848460008a63ffffffff1681548110611dac57fe5b90600052602060002090600902016006019190611dca929190613033565b50828260008a63ffffffff1681548110611de057fe5b90600052602060002090600902016007019190611dfe929190613033565b50979650505050505050565b600080805490508263ffffffff1610611e2257600080fd5b60008263ffffffff1681548110611e3557fe5b906000526020600020906009020160030160009054906101000a900473ffffffffffffffffffffffffffffffffffffffff169050919050565b6000886203f4808163ffffffff161115611ef0576040517f08c379a00000000000000000000000000000000000000000000000000000000081526004018080602001828103825260198152602001807f496e76616c69642061756374696f6e206372656174696f6e210000000000000081525060200191505060405180910390fd5b600354341015611f68576040517f08c379a000000000000000000000000000000000000000000000000000000000815260040180806020018281038252601e8152602001807f4e65656420746f2073656e64207365637572697479206465706f73697421000081525060200191505060405180910390fd5b6000600160006040518061012001604052808e420163ffffffff1681526020018d815260200160035481526020013373ffffffffffffffffffffffffffffffffffffffff168152602001600073ffffffffffffffffffffffffffffffffffffffff1681526020018c8c8080601f016020809104026020016040519081016040528093929190818152602001838380828437600081840152601f19601f8201169050808301925050505050505081526020018a8a8080601f016020809104026020016040519081016040528093929190818152602001838380828437600081840152601f19601f82011690508083019250505050505050815260200188888080601f016020809104026020016040519081016040528093929190818152602001838380828437600081840152601f19601f820116905080830192505050505050508152602001600060048111156120ba57fe5b8152509080600181540180825580915050906001820390600052602060002090600902016000909192909190915060008201518160000160006101000a81548163ffffffff021916908363ffffffff160217905550602082015181600101556040820151816002015560608201518160030160006101000a81548173ffffffffffffffffffffffffffffffffffffffff021916908373ffffffffffffffffffffffffffffffffffffffff16021790555060808201518160040160006101000a81548173ffffffffffffffffffffffffffffffffffffffff021916908373ffffffffffffffffffffffffffffffffffffffff16021790555060a08201518160050190805190602001906121cd9291906130b3565b5060c08201518160060190805190602001906121ea9291906130b3565b5060e08201518160070190805190602001906122079291906130b3565b506101008201518160080160006101000a81548160ff0219169083600481111561222d57fe5b02179055505050039050600160003373ffffffffffffffffffffffffffffffffffffffff1673ffffffffffffffffffffffffffffffffffffffff16815260200190815260200160002081908060018154018082558091505090600182039060005260206000209060089182820401919006600402909192909190916101000a81548163ffffffff021916908363ffffffff1602179055505033600260008363ffffffff1663ffffffff16815260200190815260200160002060006101000a81548173ffffffffffffffffffffffffffffffffffffffff021916908373ffffffffffffffffffffffffffffffffffffffff1602179055507f378db19cbc15014db47391fd8db2ab4bdebfd3b5b6acaa5e92a461e45ee767da818c42018c338d8d8d8d8d8d604051808b63ffffffff1663ffffffff1681526020018a63ffffffff1663ffffffff1681526020018981526020018873ffffffffffffffffffffffffffffffffffffffff1673ffffffffffffffffffffffffffffffffffffffff16815260200180602001806020018060200184810384528a8a82818152602001925080828437600081840152601f19601f8201169050808301925050508481038352888882818152602001925080828437600081840152601f19601f8201169050808301925050508481038252868682818152602001925080828437600081840152601f19601f8201169050808301925050509d505050505050505050505050505060405180910390a1809250505098975050505050505050565b60008060008060006060806060600080805490508a63ffffffff161061248a57600080fd5b612492613133565b60008b63ffffffff16815481106124a557fe5b9060005260206000209060090201604051806101200160405290816000820160009054906101000a900463ffffffff1663ffffffff1663ffffffff16815260200160018201548152602001600282015481526020016003820160009054906101000a900473ffffffffffffffffffffffffffffffffffffffff1673ffffffffffffffffffffffffffffffffffffffff1673ffffffffffffffffffffffffffffffffffffffff1681526020016004820160009054906101000a900473ffffffffffffffffffffffffffffffffffffffff1673ffffffffffffffffffffffffffffffffffffffff1673ffffffffffffffffffffffffffffffffffffffff168152602001600582018054600181600116156101000203166002900480601f01602080910402602001604051908101604052809291908181526020018280546001816001161561010002031660029004801561263e5780601f106126135761010080835404028352916020019161263e565b820191906000526020600020905b81548152906001019060200180831161262157829003601f168201915b50505050508152602001600682018054600181600116156101000203166002900480601f0160208091040260200160405190810160405280929190818152602001828054600181600116156101000203166002900480156126e05780601f106126b5576101008083540402835291602001916126e0565b820191906000526020600020905b8154815290600101906020018083116126c357829003601f168201915b50505050508152602001600782018054600181600116156101000203166002900480601f0160208091040260200160405190810160405280929190818152602001828054600181600116156101000203166002900480156127825780601f1061275757610100808354040283529160200191612782565b820191906000526020600020905b81548152906001019060200180831161276557829003601f168201915b505050505081526020016008820160009054906101000a900460ff1660048111156127a957fe5b60048111156127b457fe5b815250509050806000015181602001518260400151836060015184608001518560a001518660c001518760e00151886101000151859550849450839350829250819150995099509950995099509950995099509950509193959799909294969850565b8060008163ffffffff168154811061282b57fe5b906000526020600020906009020160040160009054906101000a900473ffffffffffffffffffffffffffffffffffffffff1673ffffffffffffffffffffffffffffffffffffffff163373ffffffffffffffffffffffffffffffffffffffff16146128fd576040517f08c379a000000000000000000000000000000000000000000000000000000000815260040180806020018281038252601a8152602001807f4f6e6c792077696e6e65722063616e2063616c6c20746869732100000000000081525060200191505060405180910390fd5b6002600481111561290a57fe5b60008363ffffffff168154811061291d57fe5b906000526020600020906009020160080160009054906101000a900460ff16600481111561294757fe5b146129ba576040517f08c379a000000000000000000000000000000000000000000000000000000000815260040180806020018281038252600e8152602001807f496e76616c69642073746174652100000000000000000000000000000000000081525060200191505060405180910390fd5b600360008363ffffffff16815481106129cf57fe5b906000526020600020906009020160080160006101000a81548160ff021916908360048111156129fb57fe5b02179055507f8b83d80174f66ffff30723106541b7bf432fac3c98d8fea26dd49b434b5cbeeb82604051808263ffffffff1663ffffffff16815260200191505060405180910390a15050565b600080805490508263ffffffff1610612a5f57600080fd5b60008263ffffffff1681548110612a7257fe5b9060005260206000209060090201600101549050919050565b60608060606000805490508463ffffffff1610612aa757600080fd5b60008463ffffffff1681548110612aba57fe5b906000526020600020906009020160050160008563ffffffff1681548110612ade57fe5b906000526020600020906009020160060160008663ffffffff1681548110612b0257fe5b9060005260206000209060090201600701828054600181600116156101000203166002900480601f016020809104026020016040519081016040528092919081815260200182805460018160011615610100020316600290048015612ba85780601f10612b7d57610100808354040283529160200191612ba8565b820191906000526020600020905b815481529060010190602001808311612b8b57829003601f168201915b50505050509250818054600181600116156101000203166002900480601f016020809104026020016040519081016040528092919081815260200182805460018160011615610100020316600290048015612c445780601f10612c1957610100808354040283529160200191612c44565b820191906000526020600020905b815481529060010190602001808311612c2757829003601f168201915b50505050509150808054600181600116156101000203166002900480601f016020809104026020016040519081016040528092919081815260200182805460018160011615610100020316600290048015612ce05780601f10612cb557610100808354040283529160200191612ce0565b820191906000526020600020905b815481529060010190602001808311612cc357829003601f168201915b505050505090509250925092509193909250565b80600260008263ffffffff1663ffffffff16815260200190815260200160002060009054906101000a900473ffffffffffffffffffffffffffffffffffffffff1673ffffffffffffffffffffffffffffffffffffffff163373ffffffffffffffffffffffffffffffffffffffff1614612dd5576040517f08c379a000000000000000000000000000000000000000000000000000000000815260040180806020018281038252601a8152602001807f4f6e6c792073656c6c65722063616e2063616c6c20746869732100000000000081525060200191505060405180910390fd5b60036004811115612de257fe5b60008363ffffffff1681548110612df557fe5b906000526020600020906009020160080160009054906101000a900460ff166004811115612e1f57fe5b14612e92576040517f08c379a000000000000000000000000000000000000000000000000000000000815260040180806020018281038252600e8152602001807f496e76616c69642073746174652100000000000000000000000000000000000081525060200191505060405180910390fd5b60008263ffffffff1681548110612ea557fe5b906000526020600020906009020160030160009054906101000a900473ffffffffffffffffffffffffffffffffffffffff1673ffffffffffffffffffffffffffffffffffffffff166108fc60008463ffffffff1681548110612f0357fe5b90600052602060002090600902016002015460008563ffffffff1681548110612f2857fe5b906000526020600020906009020160010154019081150290604051600060405180830381858888f19350505050158015612f66573d6000803e3d6000fd5b50600460008363ffffffff1681548110612f7c57fe5b906000526020600020906009020160080160006101000a81548160ff02191690836004811115612fa857fe5b02179055507f02c73bd5d87c6dd0d0f2c24d0f6807f6a799e5131fc0beebea790be17a3f168a82604051808263ffffffff1663ffffffff16815260200191505060405180910390a15050565b60026020528060005260406000206000915054906101000a900473ffffffffffffffffffffffffffffffffffffffff1681565b60008080549050905090565b828054600181600116156101000203166002900490600052602060002090601f016020900481019282601f1061307457803560ff19168380011785556130a2565b828001600101855582156130a2579182015b828111156130a1578235825591602001919060010190613086565b5b5090506130af91906131bc565b5090565b828054600181600116156101000203166002900490600052602060002090601f016020900481019282601f106130f457805160ff1916838001178555613122565b82800160010185558215613122579182015b82811115613121578251825591602001919060010190613106565b5b50905061312f91906131bc565b5090565b604051806101200160405280600063ffffffff1681526020016000815260200160008152602001600073ffffffffffffffffffffffffffffffffffffffff168152602001600073ffffffffffffffffffffffffffffffffffffffff168152602001606081526020016060815260200160608152602001600060048111156131b657fe5b81525090565b6131de91905b808211156131da5760008160009055506001016131c2565b5090565b9056fe596f7572207072696365206973206c657373207468616e2063757272656e7420707269636521a265627a7a72315820714478d000b9c260c437ca49b50b65db53a6833612b4888408af6d58839d65d764736f6c63430005100032",
  "source": "pragma solidity >=0.5.0 <0.6.0;   // Not works\n//pragma experimental ABIEncoderV2;   // It seems that using user-defined struct objects must use this compiler version\n\n//import \"../node_modules/@openzeppelin/contracts/token/ERC20/ERC20.sol\";\n\ncontract Bidchain {\n\n    event NewAuction(uint32 auctionId, uint32 endTime, uint256 beginPrice, address seller, string itemName, string itemDescript, string itemImageURL);\n    event Bidding(uint32 auctionId, uint32 endTime, uint256 newPrice, address bidder);\n    event Released(uint32 auctionId);\n    event Locked(uint32 auctionId);\n    event Waited(uint32 auctionId);\n    event Closed(uint32 auctionId);\n\n/*\n * State object is Created when seller call createAuction()\n * State object is Active when some bidder call bidding()\n * State object is Waited when the auction exists bidder and time up\n * State object is Locked when seller send money to the contract\n *                    |\n *                      We use security deposit at auction creation, and don't need this state\n * State object is Released when bidder confirm the deal\n * State object is Closed when the auction is inactive\n */\n    enum State { Created, Active, Waited,/* Locked,*/ Released, Closed }\n\n    struct Auction {\n        uint32              endTime;    // Auction will close after endTime\n        uint256             price;      // Current offered max price\n        uint256             deposit;    // security deposit when this auction is created.\n        address payable     seller;     // Seller's account address\n        address payable     winner;     // After auction closed, the max price's account address\n        string              itemName;\n        string              itemDescript;\n        string              itemImageURL;\n        State               state;      // Auction's state, see above\n    }\n\n    Auction[] public auctions;\n    mapping (address => uint32[])   public seller2Auction;\n    mapping (uint32 => address)     public auction2Seller;\n    uint256 public securityDeposit;\n    address payable owner;\n\n    modifier onlySeller(uint32 auctionId) {\n        require(msg.sender == auction2Seller[auctionId], \"Only seller can call this!\");\n        _;\n    }\n\n    modifier onlyWinner(uint32 auctionId) {\n        require(msg.sender == auctions[auctionId].winner, \"Only winner can call this!\");\n        _;\n    }\n\n    modifier validAuction(uint32 period) {\n        require(period <= 3 days, \"Invalid auction creation!\");\n        require(msg.value >= securityDeposit, \"Need to send security deposit!\");\n        _;\n    }\n    modifier validBidding(uint32 auctionId) {\n        require(auctionId < auctions.length, \"Invalid auction ID!\");\n        require(msg.sender.balance >= msg.value, \"Insufficient account balance!\");\n        require(msg.value > auctions[auctionId].price, \"Your price is less than current price!\");\n        require(uint32(now) < auctions[auctionId].endTime, \"Auction has closed!\");\n        require(auctions[auctionId].state == State.Created ||\n                auctions[auctionId].state == State.Active, \"Auction is inactive!\");\n        _;\n    }\n    modifier onlyOwner() {\n        require(msg.sender == owner, \"You are not contract owner!\");\n        _;\n    }\n\n    constructor() public {\n        securityDeposit = 0.1 ether;   // 600 NTD 2020/05/19\n        owner = msg.sender;\n    }\n/*\n * Create the new auction by seller,\n * you can access seller's auction by first query seller2Auction[seller-address],\n * then auctions[seller2Auction[seller-address][specify-seller's-auction-id]]\n */\n    function createAuction(uint32 period,\n                           uint256 beginPrice,\n                           string calldata name,\n                           string calldata descript,\n                           string calldata imageURL)\n                           external\n                           payable\n                           validAuction(period) returns(uint32) {\n\n        uint32 id = uint32(auctions.push(Auction(uint32(now) + period,\n                                                 beginPrice,\n                                                 securityDeposit,\n                                                 msg.sender,\n                                                 address(0),\n                                                 name,\n                                                 descript,\n                                                 imageURL,\n                                                 State.Created))) - 1;\n        seller2Auction[msg.sender].push(id);\n        auction2Seller[id] = msg.sender;\n        emit NewAuction(id, uint32(now) + period, beginPrice, msg.sender, name, descript, imageURL);\n        return id;\n    }\n\n    function bidding(uint32 auctionId) external payable validBidding(auctionId) {\n        if (auctions[auctionId].state == State.Active)\n            auctions[auctionId].winner.transfer(auctions[auctionId].price);  // Refund to the original bidder\n        auctions[auctionId].winner  = msg.sender;\n        auctions[auctionId].price   = msg.value;\n        auctions[auctionId].state   = State.Active;\n        emit Bidding(auctionId, auctions[auctionId].endTime, msg.value, msg.sender);\n    }\n\n\n    // Checking the time up auctions and emit event\n    function checking() external {\n        for (uint32 i = 0; i < auctions.length; i++) {\n            if (auctions[i].endTime < uint32(now)) {\n                if (auctions[i].state == State.Created) {\n                    auctions[i].seller.transfer(auctions[i].deposit);\n                    auctions[i].state = State.Closed;\n                    emit Closed(i);\n                }\n                else if (auctions[i].state == State.Active) {\n                    auctions[i].state = State.Waited;\n                    emit Waited(i);\n                }\n            }\n        }\n    }\n\n    /*\n     * No need this function anymore because we use security deposit at the createAuction()\n    function locking(uint32 auctionId) external payable onlySeller(auctionId) {\n        require(auctions[auctionId].state == State.Waited, \"Invalid state!\");\n        require(msg.sender.balance >= msg.value && msg.value == auctions[auctionId].price, \"Insufficient token!\");\n        auctions[auctionId].state = State.Locked;\n        emit Locked(auctionId);\n    }\n   */\n\n    function confirm(uint32 auctionId) external onlyWinner(auctionId) {\n        require(auctions[auctionId].state == State.Waited, \"Invalid state!\");\n        auctions[auctionId].state = State.Released;\n        emit Released(auctionId);\n    }\n\n    function release(uint32 auctionId) external onlySeller(auctionId) {\n        require(auctions[auctionId].state == State.Released, \"Invalid state!\");\n        auctions[auctionId].seller.transfer(auctions[auctionId].price + auctions[auctionId].deposit);\n        auctions[auctionId].state = State.Closed;\n        emit Closed(auctionId);\n    }\n    // Getter and Setter\n    function getAuctionNum() external view returns (uint256) {\n        return auctions.length;\n    }\n    function getAuctionById(uint32 auctionId) external view returns(\n        uint32,         // endTime\n        uint256,        // price\n        uint256,        // deposit\n        address,        // seller\n        address,        // winner\n        string memory,  // itemName\n        string memory,  // itemDescript\n        string memory,  // itemImageURL\n        State           // state\n    ) {\n        require(auctionId < auctions.length);\n        Auction memory auc = auctions[auctionId];\n        return (\n            auc.endTime,\n            auc.price,\n            auc.deposit,\n            auc.seller,\n            auc.winner,\n            auc.itemName,\n            auc.itemDescript,\n            auc.itemImageURL,\n            auc.state\n        );\n    }\n    function getPrice(uint32 auctionId) external view returns(uint256) {\n        require(auctionId < auctions.length);\n        return auctions[auctionId].price;\n    }\n    function getRemainTime(uint32 auctionId) external view returns(uint32) {\n        require(auctionId < auctions.length);\n        require(uint32(now) < auctions[auctionId].endTime);\n        return auctions[auctionId].endTime - uint32(now);\n    }\n    function getSeller(uint32 auctionId) external view returns(address) {\n        require(auctionId < auctions.length);\n        return auctions[auctionId].seller;\n    }\n    function getWinner(uint32 auctionId) external view returns(address) {\n        require(auctionId < auctions.length);\n        return auctions[auctionId].winner;\n    }\n    function getItemInfo(uint32 auctionId) external view returns(string memory, string memory, string memory) {\n        require(auctionId < auctions.length);\n        return (\n            auctions[auctionId].itemName,\n            auctions[auctionId].itemDescript,\n            auctions[auctionId].itemImageURL\n        );\n    }\n    function setTime(uint32 auctionId, uint32 newTime) external returns(bool) {\n        require(auctionId < auctions.length);\n        require(msg.sender == auctions[auctionId].seller);\n        if (newTime <= uint32(now))\n            return false;\n        auctions[auctionId].endTime = newTime;\n    }\n    function setItemInfo(uint32 auctionId, string calldata name, string calldata descript, string calldata imageURL) external returns(bool) {\n        require(auctionId < auctions.length);\n        require(msg.sender == auctions[auctionId].seller);\n        auctions[auctionId].itemName = name;\n        auctions[auctionId].itemDescript = descript;\n        auctions[auctionId].itemImageURL = imageURL;\n\n    }\n    function getSecurityDeposit() external view returns(uint256) {\n        return securityDeposit;\n    }\n    function setSecurityDeposit(uint256 newDeposit) external onlyOwner {\n        securityDeposit = newDeposit;\n    }\n\n\n}\n\n",
  "sourcePath": "/Users/kevinmadoka/Documents/NMLab_/NMLab109_final/contracts/bidchain.sol",
  "compiler": {
    "name": "solc",
    "version": "0.5.16+commit.9c3226ce.Emscripten.clang"
  },
  "schemaVersion": "3.1.0",
  "updatedAt": "2020-06-17T16:22:47.513Z",
  "networkType": "ethereum",
  "devdoc": {
    "methods": {}
  },
  "userdoc": {
    "methods": {}
  }
}