{
  "contractName": "Bidchain",
  "abi": [
    {
      "inputs": [],
      "payable": false,
      "stateMutability": "nonpayable",
      "type": "constructor"
    },
    {
      "anonymous": false,
      "inputs": [
        {
          "indexed": false,
          "internalType": "uint32",
          "name": "auctionId",
          "type": "uint32"
        },
        {
          "indexed": false,
          "internalType": "uint32",
          "name": "endTime",
          "type": "uint32"
        },
        {
          "indexed": false,
          "internalType": "uint256",
          "name": "newPrice",
          "type": "uint256"
        },
        {
          "indexed": false,
          "internalType": "address",
          "name": "bidder",
          "type": "address"
        }
      ],
      "name": "Bidding",
      "type": "event"
    },
    {
      "anonymous": false,
      "inputs": [
        {
          "indexed": false,
          "internalType": "uint32",
          "name": "auctionId",
          "type": "uint32"
        }
      ],
      "name": "Closed",
      "type": "event"
    },
    {
      "anonymous": false,
      "inputs": [
        {
          "indexed": false,
          "internalType": "uint32",
          "name": "auctionId",
          "type": "uint32"
        }
      ],
      "name": "Locked",
      "type": "event"
    },
    {
      "anonymous": false,
      "inputs": [
        {
          "indexed": false,
          "internalType": "uint32",
          "name": "auctionId",
          "type": "uint32"
        },
        {
          "indexed": false,
          "internalType": "uint32",
          "name": "endTime",
          "type": "uint32"
        },
        {
          "indexed": false,
          "internalType": "uint256",
          "name": "beginPrice",
          "type": "uint256"
        },
        {
          "indexed": false,
          "internalType": "address",
          "name": "seller",
          "type": "address"
        },
        {
          "indexed": false,
          "internalType": "string[]",
          "name": "itemInfo",
          "type": "string[]"
        }
      ],
      "name": "NewAuction",
      "type": "event"
    },
    {
      "anonymous": false,
      "inputs": [
        {
          "indexed": false,
          "internalType": "uint32",
          "name": "auctionId",
          "type": "uint32"
        }
      ],
      "name": "Released",
      "type": "event"
    },
    {
      "anonymous": false,
      "inputs": [
        {
          "indexed": false,
          "internalType": "uint32",
          "name": "auctionId",
          "type": "uint32"
        }
      ],
      "name": "Waited",
      "type": "event"
    },
    {
      "constant": true,
      "inputs": [
        {
          "internalType": "uint32",
          "name": "",
          "type": "uint32"
        }
      ],
      "name": "auction2Seller",
      "outputs": [
        {
          "internalType": "address",
          "name": "",
          "type": "address"
        }
      ],
      "payable": false,
      "stateMutability": "view",
      "type": "function"
    },
    {
      "constant": true,
      "inputs": [
        {
          "internalType": "uint256",
          "name": "",
          "type": "uint256"
        }
      ],
      "name": "auctions",
      "outputs": [
        {
          "internalType": "uint32",
          "name": "endTime",
          "type": "uint32"
        },
        {
          "internalType": "uint256",
          "name": "price",
          "type": "uint256"
        },
        {
          "internalType": "uint256",
          "name": "deposit",
          "type": "uint256"
        },
        {
          "internalType": "address payable",
          "name": "seller",
          "type": "address"
        },
        {
          "internalType": "address payable",
          "name": "winner",
          "type": "address"
        },
        {
          "components": [
            {
              "internalType": "string",
              "name": "name",
              "type": "string"
            },
            {
              "internalType": "string",
              "name": "descript",
              "type": "string"
            },
            {
              "internalType": "string",
              "name": "imageURL",
              "type": "string"
            }
          ],
          "internalType": "struct Bidchain.ItemInfo",
          "name": "itemInfo",
          "type": "tuple"
        },
        {
          "internalType": "enum Bidchain.State",
          "name": "state",
          "type": "uint8"
        }
      ],
      "payable": false,
      "stateMutability": "view",
      "type": "function"
    },
    {
      "constant": true,
      "inputs": [],
      "name": "securityDeposit",
      "outputs": [
        {
          "internalType": "uint256",
          "name": "",
          "type": "uint256"
        }
      ],
      "payable": false,
      "stateMutability": "view",
      "type": "function"
    },
    {
      "constant": true,
      "inputs": [
        {
          "internalType": "address",
          "name": "",
          "type": "address"
        },
        {
          "internalType": "uint256",
          "name": "",
          "type": "uint256"
        }
      ],
      "name": "seller2Auction",
      "outputs": [
        {
          "internalType": "uint32",
          "name": "",
          "type": "uint32"
        }
      ],
      "payable": false,
      "stateMutability": "view",
      "type": "function"
    },
    {
      "constant": false,
      "inputs": [
        {
          "internalType": "uint32",
          "name": "period",
          "type": "uint32"
        },
        {
          "internalType": "uint256",
          "name": "beginPrice",
          "type": "uint256"
        },
        {
          "internalType": "string[]",
          "name": "itemInfo",
          "type": "string[]"
        }
      ],
      "name": "createAuction",
      "outputs": [],
      "payable": true,
      "stateMutability": "payable",
      "type": "function"
    },
    {
      "constant": false,
      "inputs": [
        {
          "internalType": "uint32",
          "name": "auctionId",
          "type": "uint32"
        }
      ],
      "name": "bidding",
      "outputs": [],
      "payable": true,
      "stateMutability": "payable",
      "type": "function"
    },
    {
      "constant": false,
      "inputs": [],
      "name": "checking",
      "outputs": [],
      "payable": false,
      "stateMutability": "nonpayable",
      "type": "function"
    },
    {
      "constant": false,
      "inputs": [
        {
          "internalType": "uint32",
          "name": "auctionId",
          "type": "uint32"
        }
      ],
      "name": "confirm",
      "outputs": [],
      "payable": false,
      "stateMutability": "nonpayable",
      "type": "function"
    },
    {
      "constant": false,
      "inputs": [
        {
          "internalType": "uint32",
          "name": "auctionId",
          "type": "uint32"
        }
      ],
      "name": "release",
      "outputs": [],
      "payable": false,
      "stateMutability": "nonpayable",
      "type": "function"
    },
    {
      "constant": true,
      "inputs": [],
      "name": "getAuctions",
      "outputs": [
        {
          "components": [
            {
              "internalType": "uint32",
              "name": "endTime",
              "type": "uint32"
            },
            {
              "internalType": "uint256",
              "name": "price",
              "type": "uint256"
            },
            {
              "internalType": "uint256",
              "name": "deposit",
              "type": "uint256"
            },
            {
              "internalType": "address payable",
              "name": "seller",
              "type": "address"
            },
            {
              "internalType": "address payable",
              "name": "winner",
              "type": "address"
            },
            {
              "components": [
                {
                  "internalType": "string",
                  "name": "name",
                  "type": "string"
                },
                {
                  "internalType": "string",
                  "name": "descript",
                  "type": "string"
                },
                {
                  "internalType": "string",
                  "name": "imageURL",
                  "type": "string"
                }
              ],
              "internalType": "struct Bidchain.ItemInfo",
              "name": "itemInfo",
              "type": "tuple"
            },
            {
              "internalType": "enum Bidchain.State",
              "name": "state",
              "type": "uint8"
            }
          ],
          "internalType": "struct Bidchain.Auction[]",
          "name": "",
          "type": "tuple[]"
        }
      ],
      "payable": false,
      "stateMutability": "view",
      "type": "function"
    },
    {
      "constant": true,
      "inputs": [
        {
          "internalType": "uint32",
          "name": "auctionId",
          "type": "uint32"
        }
      ],
      "name": "getPrice",
      "outputs": [
        {
          "internalType": "uint256",
          "name": "",
          "type": "uint256"
        }
      ],
      "payable": false,
      "stateMutability": "view",
      "type": "function"
    },
    {
      "constant": true,
      "inputs": [
        {
          "internalType": "uint32",
          "name": "auctionId",
          "type": "uint32"
        }
      ],
      "name": "getRemainTime",
      "outputs": [
        {
          "internalType": "uint32",
          "name": "",
          "type": "uint32"
        }
      ],
      "payable": false,
      "stateMutability": "view",
      "type": "function"
    },
    {
      "constant": true,
      "inputs": [
        {
          "internalType": "uint32",
          "name": "auctionId",
          "type": "uint32"
        }
      ],
      "name": "getSeller",
      "outputs": [
        {
          "internalType": "address",
          "name": "",
          "type": "address"
        }
      ],
      "payable": false,
      "stateMutability": "view",
      "type": "function"
    },
    {
      "constant": true,
      "inputs": [
        {
          "internalType": "uint32",
          "name": "auctionId",
          "type": "uint32"
        }
      ],
      "name": "getWinner",
      "outputs": [
        {
          "internalType": "address",
          "name": "",
          "type": "address"
        }
      ],
      "payable": false,
      "stateMutability": "view",
      "type": "function"
    },
    {
      "constant": true,
      "inputs": [
        {
          "internalType": "uint32",
          "name": "auctionId",
          "type": "uint32"
        }
      ],
      "name": "getItemInfo",
      "outputs": [
        {
          "components": [
            {
              "internalType": "string",
              "name": "name",
              "type": "string"
            },
            {
              "internalType": "string",
              "name": "descript",
              "type": "string"
            },
            {
              "internalType": "string",
              "name": "imageURL",
              "type": "string"
            }
          ],
          "internalType": "struct Bidchain.ItemInfo",
          "name": "",
          "type": "tuple"
        }
      ],
      "payable": false,
      "stateMutability": "view",
      "type": "function"
    },
    {
      "constant": false,
      "inputs": [
        {
          "internalType": "uint32",
          "name": "auctionId",
          "type": "uint32"
        },
        {
          "internalType": "uint32",
          "name": "newTime",
          "type": "uint32"
        }
      ],
      "name": "setTime",
      "outputs": [
        {
          "internalType": "bool",
          "name": "",
          "type": "bool"
        }
      ],
      "payable": false,
      "stateMutability": "nonpayable",
      "type": "function"
    },
    {
      "constant": false,
      "inputs": [
        {
          "internalType": "uint32",
          "name": "auctionId",
          "type": "uint32"
        },
        {
          "internalType": "string[]",
          "name": "newItemInfo",
          "type": "string[]"
        }
      ],
      "name": "setItemInfo",
      "outputs": [
        {
          "internalType": "bool",
          "name": "",
          "type": "bool"
        }
      ],
      "payable": false,
      "stateMutability": "nonpayable",
      "type": "function"
    },
    {
      "constant": true,
      "inputs": [],
      "name": "getSecurityDeposit",
      "outputs": [
        {
          "internalType": "uint256",
          "name": "",
          "type": "uint256"
        }
      ],
      "payable": false,
      "stateMutability": "view",
      "type": "function"
    },
    {
      "constant": false,
      "inputs": [
        {
          "internalType": "uint256",
          "name": "newDeposit",
          "type": "uint256"
        }
      ],
      "name": "setSecurityDeposit",
      "outputs": [],
      "payable": false,
      "stateMutability": "nonpayable",
      "type": "function"
    }
  ],
  "bytecode": "0x608060405234801561001057600080fd5b5067016345785d8a000060038190555033600460006101000a81548173ffffffffffffffffffffffffffffffffffffffff021916908373ffffffffffffffffffffffffffffffffffffffff1602179055506134fd806100706000396000f3fe6080604052600436106101145760003560e01c806382b8065a116100a0578063d7c0691911610064578063d7c06919146103c1578063da26663a146103ec578063dc4a1dcc14610429578063dda42b3714610466578063eb13a4201461048f57610114565b806382b8065a146102fa57806386aefcea14610316578063888dd0741461033f578063a8672da61461035b578063d2e2697e1461039857610114565b8063267f45d5116100e7578063267f45d5146101d55780634636499d14610212578063477398aa1461024f578063571a26a01461028c57806364a40642146102cf57610114565b8063082d3f3f1461011957806311dec6021461015657806317a9b77214610193578063220e5ab3146101aa575b600080fd5b34801561012557600080fd5b50610140600480360361013b9190810190612788565b6104cc565b60405161014d9190612f81565b60405180910390f35b34801561016257600080fd5b5061017d6004803603610178919081019061275f565b6107f9565b60405161018a9190613139565b60405180910390f35b34801561019f57600080fd5b506101a861089b565b005b3480156101b657600080fd5b506101bf610b5d565b6040516101cc919061311e565b60405180910390f35b3480156101e157600080fd5b506101fc60048036036101f7919081019061284c565b610b63565b6040516102099190612f81565b60405180910390f35b34801561021e57600080fd5b50610239600480360361023491908101906126fa565b610c5d565b6040516102469190613139565b60405180910390f35b34801561025b57600080fd5b506102766004803603610271919081019061275f565b610ca3565b6040516102839190612f44565b60405180910390f35b34801561029857600080fd5b506102b360048036036102ae9190810190612736565b610d07565b6040516102c69796959493929190613154565b60405180910390f35b3480156102db57600080fd5b506102e4610fa3565b6040516102f1919061311e565b60405180910390f35b610314600480360361030f91908101906127e0565b610fad565b005b34801561032257600080fd5b5061033d60048036036103389190810190612736565b611590565b005b6103596004803603610354919081019061275f565b61162a565b005b34801561036757600080fd5b50610382600480360361037d919081019061275f565b611add565b60405161038f9190612f44565b60405180910390f35b3480156103a457600080fd5b506103bf60048036036103ba919081019061275f565b611b41565b005b3480156103cd57600080fd5b506103d6611cff565b6040516103e39190612f5f565b60405180910390f35b3480156103f857600080fd5b50610413600480360361040e919081019061275f565b61206b565b604051610420919061311e565b60405180910390f35b34801561043557600080fd5b50610450600480360361044b919081019061275f565b6120af565b60405161045d91906130fc565b60405180910390f35b34801561047257600080fd5b5061048d6004803603610488919081019061275f565b6122ea565b005b34801561049b57600080fd5b506104b660048036036104b1919081019061275f565b612578565b6040516104c39190612f44565b60405180910390f35b600080805490508463ffffffff16106104e457600080fd5b60008463ffffffff16815481106104f757fe5b906000526020600020906009020160030160009054906101000a900473ffffffffffffffffffffffffffffffffffffffff1673ffffffffffffffffffffffffffffffffffffffff163373ffffffffffffffffffffffffffffffffffffffff161461056057600080fd5b6003838390501461057057600080fd5b60405180606001604052808484600081811061058857fe5b90506020028101803560016020038336030381126105a557600080fd5b8083019250508135905060208201915067ffffffffffffffff8111156105ca57600080fd5b6001810236038213156105dc57600080fd5b8080601f016020809104026020016040519081016040528093929190818152602001838380828437600081840152601f19601f8201169050808301925050505050505081526020018484600181811061063157fe5b905060200281018035600160200383360303811261064e57600080fd5b8083019250508135905060208201915067ffffffffffffffff81111561067357600080fd5b60018102360382131561068557600080fd5b8080601f016020809104026020016040519081016040528093929190818152602001838380828437600081840152601f19601f820116905080830192505050505050508152602001848460028181106106da57fe5b90506020028101803560016020038336030381126106f757600080fd5b8083019250508135905060208201915067ffffffffffffffff81111561071c57600080fd5b60018102360382131561072e57600080fd5b8080601f016020809104026020016040519081016040528093929190818152602001838380828437600081840152601f19601f8201169050808301925050505050505081525060008563ffffffff168154811061078757fe5b906000526020600020906009020160050160008201518160000190805190602001906107b49291906125ab565b5060208201518160010190805190602001906107d19291906125ab565b5060408201518160020190805190602001906107ee9291906125ab565b509050509392505050565b600080805490508263ffffffff161061081157600080fd5b60008263ffffffff168154811061082457fe5b906000526020600020906009020160000160009054906101000a900463ffffffff1663ffffffff164263ffffffff161061085d57600080fd5b4260008363ffffffff168154811061087157fe5b906000526020600020906009020160000160009054906101000a900463ffffffff16039050919050565b60008090505b6000805490508163ffffffff161015610b5a574263ffffffff1660008263ffffffff16815481106108ce57fe5b906000526020600020906009020160000160009054906101000a900463ffffffff1663ffffffff161015610b4d576000600481111561090957fe5b60008263ffffffff168154811061091c57fe5b906000526020600020906009020160080160009054906101000a900460ff16600481111561094657fe5b1415610a7d5760008163ffffffff168154811061095f57fe5b906000526020600020906009020160030160009054906101000a900473ffffffffffffffffffffffffffffffffffffffff1673ffffffffffffffffffffffffffffffffffffffff166108fc60008363ffffffff16815481106109bd57fe5b9060005260206000209060090201600201549081150290604051600060405180830381858888f193505050501580156109fa573d6000803e3d6000fd5b50600460008263ffffffff1681548110610a1057fe5b906000526020600020906009020160080160006101000a81548160ff02191690836004811115610a3c57fe5b02179055507f02c73bd5d87c6dd0d0f2c24d0f6807f6a799e5131fc0beebea790be17a3f168a81604051610a709190613139565b60405180910390a1610b4c565b60016004811115610a8a57fe5b60008263ffffffff1681548110610a9d57fe5b906000526020600020906009020160080160009054906101000a900460ff166004811115610ac757fe5b1415610b4b57600260008263ffffffff1681548110610ae257fe5b906000526020600020906009020160080160006101000a81548160ff02191690836004811115610b0e57fe5b02179055507f20ad90ba9f06e508fd033bc6052be35fe08f48c63312dc26bec01a5376ae2edb81604051610b429190613139565b60405180910390a15b5b5b80806001019150506108a1565b50565b60035481565b600080805490508363ffffffff1610610b7b57600080fd5b60008363ffffffff1681548110610b8e57fe5b906000526020600020906009020160030160009054906101000a900473ffffffffffffffffffffffffffffffffffffffff1673ffffffffffffffffffffffffffffffffffffffff163373ffffffffffffffffffffffffffffffffffffffff1614610bf757600080fd5b4263ffffffff168263ffffffff1611610c135760009050610c57565b8160008463ffffffff1681548110610c2757fe5b906000526020600020906009020160000160006101000a81548163ffffffff021916908363ffffffff1602179055505b92915050565b60016020528160005260406000208181548110610c7657fe5b9060005260206000209060089182820401919006600402915091509054906101000a900463ffffffff1681565b600080805490508263ffffffff1610610cbb57600080fd5b60008263ffffffff1681548110610cce57fe5b906000526020600020906009020160040160009054906101000a900473ffffffffffffffffffffffffffffffffffffffff169050919050565b60008181548110610d1457fe5b90600052602060002090600902016000915090508060000160009054906101000a900463ffffffff16908060010154908060020154908060030160009054906101000a900473ffffffffffffffffffffffffffffffffffffffff16908060040160009054906101000a900473ffffffffffffffffffffffffffffffffffffffff169080600501604051806060016040529081600082018054600181600116156101000203166002900480601f016020809104026020016040519081016040528092919081815260200182805460018160011615610100020316600290048015610e3e5780601f10610e1357610100808354040283529160200191610e3e565b820191906000526020600020905b815481529060010190602001808311610e2157829003601f168201915b50505050508152602001600182018054600181600116156101000203166002900480601f016020809104026020016040519081016040528092919081815260200182805460018160011615610100020316600290048015610ee05780601f10610eb557610100808354040283529160200191610ee0565b820191906000526020600020905b815481529060010190602001808311610ec357829003601f168201915b50505050508152602001600282018054600181600116156101000203166002900480601f016020809104026020016040519081016040528092919081815260200182805460018160011615610100020316600290048015610f825780601f10610f5757610100808354040283529160200191610f82565b820191906000526020600020905b815481529060010190602001808311610f6557829003601f168201915b505050505081525050908060080160009054906101000a900460ff16905087565b6000600354905090565b83828290506203f4808263ffffffff1611158015610fd1575060038163ffffffff16145b611010576040517f08c379a0000000000000000000000000000000000000000000000000000000008152600401611007906130dc565b60405180910390fd5b600354341015611055576040517f08c379a000000000000000000000000000000000000000000000000000000000815260040161104c906130bc565b60405180910390fd5b6000600160006040518060e001604052808a420163ffffffff16815260200189815260200160035481526020013373ffffffffffffffffffffffffffffffffffffffff168152602001600073ffffffffffffffffffffffffffffffffffffffff16815260200160405180606001604052808a8a60008181106110d357fe5b90506020028101803560016020038336030381126110f057600080fd5b8083019250508135905060208201915067ffffffffffffffff81111561111557600080fd5b60018102360382131561112757600080fd5b8080601f016020809104026020016040519081016040528093929190818152602001838380828437600081840152601f19601f8201169050808301925050505050505081526020018a8a600181811061117c57fe5b905060200281018035600160200383360303811261119957600080fd5b8083019250508135905060208201915067ffffffffffffffff8111156111be57600080fd5b6001810236038213156111d057600080fd5b8080601f016020809104026020016040519081016040528093929190818152602001838380828437600081840152601f19601f8201169050808301925050505050505081526020018a8a600281811061122557fe5b905060200281018035600160200383360303811261124257600080fd5b8083019250508135905060208201915067ffffffffffffffff81111561126757600080fd5b60018102360382131561127957600080fd5b8080601f016020809104026020016040519081016040528093929190818152602001838380828437600081840152601f19601f820116905080830192505050505050508152508152602001600060048111156112d157fe5b8152509080600181540180825580915050906001820390600052602060002090600902016000909192909190915060008201518160000160006101000a81548163ffffffff021916908363ffffffff160217905550602082015181600101556040820151816002015560608201518160030160006101000a81548173ffffffffffffffffffffffffffffffffffffffff021916908373ffffffffffffffffffffffffffffffffffffffff16021790555060808201518160040160006101000a81548173ffffffffffffffffffffffffffffffffffffffff021916908373ffffffffffffffffffffffffffffffffffffffff16021790555060a08201518160050160008201518160000190805190602001906113ed9291906125ab565b50602082015181600101908051906020019061140a9291906125ab565b5060408201518160020190805190602001906114279291906125ab565b50505060c08201518160080160006101000a81548160ff0219169083600481111561144e57fe5b02179055505050039050600160003373ffffffffffffffffffffffffffffffffffffffff1673ffffffffffffffffffffffffffffffffffffffff16815260200190815260200160002081908060018154018082558091505090600182039060005260206000209060089182820401919006600402909192909190916101000a81548163ffffffff021916908363ffffffff1602179055505033600260008363ffffffff1663ffffffff16815260200190815260200160002060006101000a81548173ffffffffffffffffffffffffffffffffffffffff021916908373ffffffffffffffffffffffffffffffffffffffff1602179055507fd2ed91d892d8fc0bd35a5c4a450f31ab9ab924fddeb54e77e8dff0718bad7cfe818842018833898960405161157f9695949392919061320f565b60405180910390a150505050505050565b600460009054906101000a900473ffffffffffffffffffffffffffffffffffffffff1673ffffffffffffffffffffffffffffffffffffffff163373ffffffffffffffffffffffffffffffffffffffff1614611620576040517f08c379a00000000000000000000000000000000000000000000000000000000081526004016116179061303c565b60405180910390fd5b8060038190555050565b806000805490508163ffffffff1610611678576040517f08c379a000000000000000000000000000000000000000000000000000000000815260040161166f9061309c565b60405180910390fd5b343373ffffffffffffffffffffffffffffffffffffffff163110156116d2576040517f08c379a00000000000000000000000000000000000000000000000000000000081526004016116c990612f9c565b60405180910390fd5b60008163ffffffff16815481106116e557fe5b9060005260206000209060090201600101543411611738576040517f08c379a000000000000000000000000000000000000000000000000000000000815260040161172f90612fbc565b60405180910390fd5b60008163ffffffff168154811061174b57fe5b906000526020600020906009020160000160009054906101000a900463ffffffff1663ffffffff164263ffffffff16106117ba576040517f08c379a00000000000000000000000000000000000000000000000000000000081526004016117b190612fdc565b60405180910390fd5b600060048111156117c757fe5b60008263ffffffff16815481106117da57fe5b906000526020600020906009020160080160009054906101000a900460ff16600481111561180457fe5b148061185757506001600481111561181857fe5b60008263ffffffff168154811061182b57fe5b906000526020600020906009020160080160009054906101000a900460ff16600481111561185557fe5b145b611896576040517f08c379a000000000000000000000000000000000000000000000000000000000815260040161188d9061305c565b60405180910390fd5b600160048111156118a357fe5b60008363ffffffff16815481106118b657fe5b906000526020600020906009020160080160009054906101000a900460ff1660048111156118e057fe5b14156119965760008263ffffffff16815481106118f957fe5b906000526020600020906009020160040160009054906101000a900473ffffffffffffffffffffffffffffffffffffffff1673ffffffffffffffffffffffffffffffffffffffff166108fc60008463ffffffff168154811061195757fe5b9060005260206000209060090201600101549081150290604051600060405180830381858888f19350505050158015611994573d6000803e3d6000fd5b505b3360008363ffffffff16815481106119aa57fe5b906000526020600020906009020160040160006101000a81548173ffffffffffffffffffffffffffffffffffffffff021916908373ffffffffffffffffffffffffffffffffffffffff1602179055503460008363ffffffff1681548110611a0d57fe5b906000526020600020906009020160010181905550600160008363ffffffff1681548110611a3757fe5b906000526020600020906009020160080160006101000a81548160ff02191690836004811115611a6357fe5b02179055507ffc6090b9c9d42b862484b17bf24ce4f1dc70651222a11a4546be2acc9c91d8db8260008463ffffffff1681548110611a9d57fe5b906000526020600020906009020160000160009054906101000a900463ffffffff163433604051611ad194939291906131ca565b60405180910390a15050565b600080805490508263ffffffff1610611af557600080fd5b60008263ffffffff1681548110611b0857fe5b906000526020600020906009020160030160009054906101000a900473ffffffffffffffffffffffffffffffffffffffff169050919050565b8060008163ffffffff1681548110611b5557fe5b906000526020600020906009020160040160009054906101000a900473ffffffffffffffffffffffffffffffffffffffff1673ffffffffffffffffffffffffffffffffffffffff163373ffffffffffffffffffffffffffffffffffffffff1614611bf4576040517f08c379a0000000000000000000000000000000000000000000000000000000008152600401611beb9061301c565b60405180910390fd5b60026004811115611c0157fe5b60008363ffffffff1681548110611c1457fe5b906000526020600020906009020160080160009054906101000a900460ff166004811115611c3e57fe5b14611c7e576040517f08c379a0000000000000000000000000000000000000000000000000000000008152600401611c759061307c565b60405180910390fd5b600360008363ffffffff1681548110611c9357fe5b906000526020600020906009020160080160006101000a81548160ff02191690836004811115611cbf57fe5b02179055507f8b83d80174f66ffff30723106541b7bf432fac3c98d8fea26dd49b434b5cbeeb82604051611cf39190613139565b60405180910390a15050565b60606000805480602002602001604051908101604052809291908181526020016000905b8282101561206257838290600052602060002090600902016040518060e00160405290816000820160009054906101000a900463ffffffff1663ffffffff1663ffffffff16815260200160018201548152602001600282015481526020016003820160009054906101000a900473ffffffffffffffffffffffffffffffffffffffff1673ffffffffffffffffffffffffffffffffffffffff1673ffffffffffffffffffffffffffffffffffffffff1681526020016004820160009054906101000a900473ffffffffffffffffffffffffffffffffffffffff1673ffffffffffffffffffffffffffffffffffffffff1673ffffffffffffffffffffffffffffffffffffffff16815260200160058201604051806060016040529081600082018054600181600116156101000203166002900480601f016020809104026020016040519081016040528092919081815260200182805460018160011615610100020316600290048015611ed55780601f10611eaa57610100808354040283529160200191611ed5565b820191906000526020600020905b815481529060010190602001808311611eb857829003601f168201915b50505050508152602001600182018054600181600116156101000203166002900480601f016020809104026020016040519081016040528092919081815260200182805460018160011615610100020316600290048015611f775780601f10611f4c57610100808354040283529160200191611f77565b820191906000526020600020905b815481529060010190602001808311611f5a57829003601f168201915b50505050508152602001600282018054600181600116156101000203166002900480601f0160208091040260200160405190810160405280929190818152602001828054600181600116156101000203166002900480156120195780601f10611fee57610100808354040283529160200191612019565b820191906000526020600020905b815481529060010190602001808311611ffc57829003601f168201915b50505050508152505081526020016008820160009054906101000a900460ff16600481111561204457fe5b600481111561204f57fe5b8152505081526020019060010190611d23565b50505050905090565b600080805490508263ffffffff161061208357600080fd5b60008263ffffffff168154811061209657fe5b9060005260206000209060090201600101549050919050565b6120b761262b565b6000805490508263ffffffff16106120ce57600080fd5b60008263ffffffff16815481106120e157fe5b9060005260206000209060090201600501604051806060016040529081600082018054600181600116156101000203166002900480601f0160208091040260200160405190810160405280929190818152602001828054600181600116156101000203166002900480156121965780601f1061216b57610100808354040283529160200191612196565b820191906000526020600020905b81548152906001019060200180831161217957829003601f168201915b50505050508152602001600182018054600181600116156101000203166002900480601f0160208091040260200160405190810160405280929190818152602001828054600181600116156101000203166002900480156122385780601f1061220d57610100808354040283529160200191612238565b820191906000526020600020905b81548152906001019060200180831161221b57829003601f168201915b50505050508152602001600282018054600181600116156101000203166002900480601f0160208091040260200160405190810160405280929190818152602001828054600181600116156101000203166002900480156122da5780601f106122af576101008083540402835291602001916122da565b820191906000526020600020905b8154815290600101906020018083116122bd57829003601f168201915b5050505050815250509050919050565b80600260008263ffffffff1663ffffffff16815260200190815260200160002060009054906101000a900473ffffffffffffffffffffffffffffffffffffffff1673ffffffffffffffffffffffffffffffffffffffff163373ffffffffffffffffffffffffffffffffffffffff1614612398576040517f08c379a000000000000000000000000000000000000000000000000000000000815260040161238f90612ffc565b60405180910390fd5b600360048111156123a557fe5b60008363ffffffff16815481106123b857fe5b906000526020600020906009020160080160009054906101000a900460ff1660048111156123e257fe5b14612422576040517f08c379a00000000000000000000000000000000000000000000000000000000081526004016124199061307c565b60405180910390fd5b60008263ffffffff168154811061243557fe5b906000526020600020906009020160030160009054906101000a900473ffffffffffffffffffffffffffffffffffffffff1673ffffffffffffffffffffffffffffffffffffffff166108fc60008463ffffffff168154811061249357fe5b90600052602060002090600902016002015460008563ffffffff16815481106124b857fe5b906000526020600020906009020160010154019081150290604051600060405180830381858888f193505050501580156124f6573d6000803e3d6000fd5b50600460008363ffffffff168154811061250c57fe5b906000526020600020906009020160080160006101000a81548160ff0219169083600481111561253857fe5b02179055507f02c73bd5d87c6dd0d0f2c24d0f6807f6a799e5131fc0beebea790be17a3f168a8260405161256c9190613139565b60405180910390a15050565b60026020528060005260406000206000915054906101000a900473ffffffffffffffffffffffffffffffffffffffff1681565b828054600181600116156101000203166002900490600052602060002090601f016020900481019282601f106125ec57805160ff191683800117855561261a565b8280016001018555821561261a579182015b828111156126195782518255916020019190600101906125fe565b5b509050612627919061264c565b5090565b60405180606001604052806060815260200160608152602001606081525090565b61266e91905b8082111561266a576000816000905550600101612652565b5090565b90565b60008135905061268081613475565b92915050565b60008083601f84011261269857600080fd5b8235905067ffffffffffffffff8111156126b157600080fd5b6020830191508360208202830111156126c957600080fd5b9250929050565b6000813590506126df8161348c565b92915050565b6000813590506126f4816134a3565b92915050565b6000806040838503121561270d57600080fd5b600061271b85828601612671565b925050602061272c858286016126d0565b9150509250929050565b60006020828403121561274857600080fd5b6000612756848285016126d0565b91505092915050565b60006020828403121561277157600080fd5b600061277f848285016126e5565b91505092915050565b60008060006040848603121561279d57600080fd5b60006127ab868287016126e5565b935050602084013567ffffffffffffffff8111156127c857600080fd5b6127d486828701612686565b92509250509250925092565b600080600080606085870312156127f657600080fd5b6000612804878288016126e5565b9450506020612815878288016126d0565b935050604085013567ffffffffffffffff81111561283257600080fd5b61283e87828801612686565b925092505092959194509250565b6000806040838503121561285f57600080fd5b600061286d858286016126e5565b925050602061287e858286016126e5565b9150509250929050565b6000612895848484612a06565b90509392505050565b60006128aa8383612d52565b905092915050565b6128bb816133cd565b82525050565b6128ca81613362565b82525050565b6128d981613362565b82525050565b6128e881613350565b82525050565b60006128fa83856132b5565b93508360208402850161290c8461326b565b8060005b8781101561295257848403895261292782846132f9565b612932868284612888565b955061293d8461329b565b935060208b019a505050600181019050612910565b50829750879450505050509392505050565b600061296f82613285565b61297981856132c6565b93508360208202850161298b85613275565b8060005b858110156129c757848403895281516129a8858261289e565b94506129b3836132a8565b925060208a0199505060018101905061298f565b50829750879550505050505092915050565b6129e281613374565b82525050565b6129f1816133df565b82525050565b612a00816133df565b82525050565b6000612a1283856132d7565b9350612a1f838584613415565b612a2883613457565b840190509392505050565b6000612a3e82613290565b612a4881856132d7565b9350612a58818560208601613424565b612a6181613457565b840191505092915050565b6000612a79601d836132e8565b91507f496e73756666696369656e74206163636f756e742062616c616e6365210000006000830152602082019050919050565b6000612ab96026836132e8565b91507f596f7572207072696365206973206c657373207468616e2063757272656e742060008301527f70726963652100000000000000000000000000000000000000000000000000006020830152604082019050919050565b6000612b1f6013836132e8565b91507f41756374696f6e2068617320636c6f73656421000000000000000000000000006000830152602082019050919050565b6000612b5f601a836132e8565b91507f4f6e6c792073656c6c65722063616e2063616c6c2074686973210000000000006000830152602082019050919050565b6000612b9f601a836132e8565b91507f4f6e6c792077696e6e65722063616e2063616c6c2074686973210000000000006000830152602082019050919050565b6000612bdf601b836132e8565b91507f596f7520617265206e6f7420636f6e7472616374206f776e65722100000000006000830152602082019050919050565b6000612c1f6014836132e8565b91507f41756374696f6e20697320696e616374697665210000000000000000000000006000830152602082019050919050565b6000612c5f600e836132e8565b91507f496e76616c6964207374617465210000000000000000000000000000000000006000830152602082019050919050565b6000612c9f6013836132e8565b91507f496e76616c69642061756374696f6e20494421000000000000000000000000006000830152602082019050919050565b6000612cdf601e836132e8565b91507f4e65656420746f2073656e64207365637572697479206465706f7369742100006000830152602082019050919050565b6000612d1f6019836132e8565b91507f496e76616c69642061756374696f6e206372656174696f6e21000000000000006000830152602082019050919050565b600060e083016000830151612d6a6000860182612f26565b506020830151612d7d6020860182612f08565b506040830151612d906040860182612f08565b506060830151612da360608601826128c1565b506080830151612db660808601826128c1565b5060a083015184820360a0860152612dce8282612e4c565b91505060c0830151612de360c08601826129e8565b508091505092915050565b60006060830160008301518482036000860152612e0b8282612a33565b91505060208301518482036020860152612e258282612a33565b91505060408301518482036040860152612e3f8282612a33565b9150508091505092915050565b60006060830160008301518482036000860152612e698282612a33565b91505060208301518482036020860152612e838282612a33565b91505060408301518482036040860152612e9d8282612a33565b9150508091505092915050565b60006060830160008301518482036000860152612ec78282612a33565b91505060208301518482036020860152612ee18282612a33565b91505060408301518482036040860152612efb8282612a33565b9150508091505092915050565b612f11816133b3565b82525050565b612f20816133b3565b82525050565b612f2f816133bd565b82525050565b612f3e816133bd565b82525050565b6000602082019050612f5960008301846128df565b92915050565b60006020820190508181036000830152612f798184612964565b905092915050565b6000602082019050612f9660008301846129d9565b92915050565b60006020820190508181036000830152612fb581612a6c565b9050919050565b60006020820190508181036000830152612fd581612aac565b9050919050565b60006020820190508181036000830152612ff581612b12565b9050919050565b6000602082019050818103600083015261301581612b52565b9050919050565b6000602082019050818103600083015261303581612b92565b9050919050565b6000602082019050818103600083015261305581612bd2565b9050919050565b6000602082019050818103600083015261307581612c12565b9050919050565b6000602082019050818103600083015261309581612c52565b9050919050565b600060208201905081810360008301526130b581612c92565b9050919050565b600060208201905081810360008301526130d581612cd2565b9050919050565b600060208201905081810360008301526130f581612d12565b9050919050565b600060208201905081810360008301526131168184612dee565b905092915050565b60006020820190506131336000830184612f17565b92915050565b600060208201905061314e6000830184612f35565b92915050565b600060e082019050613169600083018a612f35565b6131766020830189612f17565b6131836040830188612f17565b61319060608301876128d0565b61319d60808301866128d0565b81810360a08301526131af8185612eaa565b90506131be60c08301846129f7565b98975050505050505050565b60006080820190506131df6000830187612f35565b6131ec6020830186612f35565b6131f96040830185612f17565b61320660608301846128b2565b95945050505050565b600060a0820190506132246000830189612f35565b6132316020830188612f35565b61323e6040830187612f17565b61324b60608301866128b2565b818103608083015261325e8184866128ee565b9050979650505050505050565b6000819050919050565b6000819050602082019050919050565b600081519050919050565b600081519050919050565b6000602082019050919050565b6000602082019050919050565b600082825260208201905092915050565b600082825260208201905092915050565b600082825260208201905092915050565b600082825260208201905092915050565b6000808335600160200384360303811261331257600080fd5b83810192508235915060208301925067ffffffffffffffff82111561333657600080fd5b60018202360384131561334857600080fd5b509250929050565b600061335b82613393565b9050919050565b600061336d82613393565b9050919050565b60008115159050919050565b600081905061338e82613468565b919050565b600073ffffffffffffffffffffffffffffffffffffffff82169050919050565b6000819050919050565b600063ffffffff82169050919050565b60006133d8826133f1565b9050919050565b60006133ea82613380565b9050919050565b60006133fc82613403565b9050919050565b600061340e82613393565b9050919050565b82818337600083830152505050565b60005b83811015613442578082015181840152602081019050613427565b83811115613451576000848401525b50505050565b6000601f19601f8301169050919050565b6005811061347257fe5b50565b61347e81613350565b811461348957600080fd5b50565b613495816133b3565b81146134a057600080fd5b50565b6134ac816133bd565b81146134b757600080fd5b5056fea365627a7a723158200a82cbb529b42af22e235858817823280cdb82017871e31559d04286c842caff6c6578706572696d656e74616cf564736f6c63430005100040",
  "source": "//pragma solidity >=0.5.0 <0.6.0;   // Not works\npragma experimental ABIEncoderV2;   // It seems that using user-defined struct objects must use this compiler version\n\n//import \"../node_modules/@openzeppelin/contracts/token/ERC20/ERC20.sol\";\n\ncontract Bidchain {\n\n    event NewAuction(uint32 auctionId, uint32 endTime, uint256 beginPrice, address seller, string[] itemInfo);\n    event Bidding(uint32 auctionId, uint32 endTime, uint256 newPrice, address bidder);\n    event Released(uint32 auctionId);\n    event Locked(uint32 auctionId);\n    event Waited(uint32 auctionId);\n    event Closed(uint32 auctionId);\n\n\n    struct ItemInfo {\n        string name;                // Item's name\n        string descript;            // Item description\n        string imageURL;            // Maybe imgur URL\n    }\n\n/*\n * State object is Created when seller call createAuction()\n * State object is Active when some bidder call bidding()\n * State object is Waited when the auction exists bidder and time up\n * State object is Locked when seller send money to the contract\n *                    |\n *                      We use security deposit at auction creation, and don't need this state\n * State object is Released when bidder confirm the deal\n * State object is Closed when the auction is inactive\n */\n    enum State { Created, Active, Waited,/* Locked,*/ Released, Closed }\n\n    struct Auction {\n        uint32              endTime;    // Auction will close after endTime\n        uint256             price;      // Current offered max price\n        uint256             deposit;    // security deposit when this auction is created.\n        address payable     seller;     // Seller's account address\n        address payable     winner;     // After auction closed, the max price's account address\n        ItemInfo            itemInfo;   // Item's information, e.g. name, description, imageURL\n        State               state;      // Auction's state, see above\n    }\n\n    Auction[] public auctions;\n    mapping (address => uint32[])   public seller2Auction;\n    mapping (uint32 => address)     public auction2Seller;\n    uint256 public securityDeposit;\n    address payable owner;\n\n    modifier onlySeller(uint32 auctionId) {\n        require(msg.sender == auction2Seller[auctionId], \"Only seller can call this!\");\n        _;\n    }\n\n    modifier onlyWinner(uint32 auctionId) {\n        require(msg.sender == auctions[auctionId].winner, \"Only winner can call this!\");\n        _;\n    }\n\n    modifier validAuction(uint32 period, uint32 infoNum) {\n        require(period <= 3 days && infoNum == 3, \"Invalid auction creation!\");\n        require(msg.value >= securityDeposit, \"Need to send security deposit!\");\n        _;\n    }\n    modifier validBidding(uint32 auctionId) {\n        require(auctionId < auctions.length, \"Invalid auction ID!\");\n        require(msg.sender.balance >= msg.value, \"Insufficient account balance!\");\n        require(msg.value > auctions[auctionId].price, \"Your price is less than current price!\");\n        require(uint32(now) < auctions[auctionId].endTime, \"Auction has closed!\");\n        require(auctions[auctionId].state == State.Created ||\n                auctions[auctionId].state == State.Active, \"Auction is inactive!\");\n        _;\n    }\n    modifier onlyOwner() {\n        require(msg.sender == owner, \"You are not contract owner!\");\n        _;\n    }\n\n    constructor() public {\n        securityDeposit = 0.1 ether;   // 600 NTD 2020/05/19\n        owner = msg.sender;\n    }\n/*\n * Create the new auction by seller,\n * you can access seller's auction by first query seller2Auction[seller-address],\n * then auctions[seller2Auction[seller-address][specify-seller's-auction-id]]\n */\n    function createAuction(uint32 period,\n                           uint256 beginPrice,\n                           string[] calldata itemInfo)\n                           external\n                           payable\n                           validAuction(period, uint32(itemInfo.length)) {\n\n        uint32 id = uint32(auctions.push(Auction(uint32(now) + period,\n                                                 beginPrice,\n                                                 securityDeposit,\n                                                 msg.sender,\n                                                 address(0),\n                                                 ItemInfo(itemInfo[0],\n                                                          itemInfo[1],\n                                                          itemInfo[2]),\n                                                 State.Created))) - 1;\n        seller2Auction[msg.sender].push(id);\n        auction2Seller[id] = msg.sender;\n        emit NewAuction(id, uint32(now) + period, beginPrice, msg.sender, itemInfo);\n    }\n\n    function bidding(uint32 auctionId) external payable validBidding(auctionId) {\n        if (auctions[auctionId].state == State.Active)\n            auctions[auctionId].winner.transfer(auctions[auctionId].price);  // Refund to the original bidder\n        auctions[auctionId].winner  = msg.sender;\n        auctions[auctionId].price   = msg.value;\n        auctions[auctionId].state   = State.Active;\n        emit Bidding(auctionId, auctions[auctionId].endTime, msg.value, msg.sender);\n    }\n\n\n    // Checking the time up auctions and emit event\n    function checking() external {\n        for (uint32 i = 0; i < auctions.length; i++) {\n            if (auctions[i].endTime < uint32(now)) {\n                if (auctions[i].state == State.Created) {\n                    auctions[i].seller.transfer(auctions[i].deposit);\n                    auctions[i].state = State.Closed;\n                    emit Closed(i);\n                }\n                else if (auctions[i].state == State.Active) {\n                    auctions[i].state = State.Waited;\n                    emit Waited(i);\n                }\n            }\n        }\n    }\n\n    /*\n     * No need this function anymore because we use security deposit at the createAuction()\n    function locking(uint32 auctionId) external payable onlySeller(auctionId) {\n        require(auctions[auctionId].state == State.Waited, \"Invalid state!\");\n        require(msg.sender.balance >= msg.value && msg.value == auctions[auctionId].price, \"Insufficient token!\");\n        auctions[auctionId].state = State.Locked;\n        emit Locked(auctionId);\n    }\n   */\n\n    function confirm(uint32 auctionId) external onlyWinner(auctionId) {\n        require(auctions[auctionId].state == State.Waited, \"Invalid state!\");\n        auctions[auctionId].state = State.Released;\n        emit Released(auctionId);\n    }\n\n    function release(uint32 auctionId) external onlySeller(auctionId) {\n        require(auctions[auctionId].state == State.Released, \"Invalid state!\");\n        auctions[auctionId].seller.transfer(auctions[auctionId].price + auctions[auctionId].deposit);\n        auctions[auctionId].state = State.Closed;\n        emit Closed(auctionId);\n    }\n    // Getter and Setter\n    function getAuctions() external view returns (Auction[] memory) {\n        return auctions;\n    }\n    function getPrice(uint32 auctionId) external view returns(uint256) {\n        require(auctionId < auctions.length);\n        return auctions[auctionId].price;\n    }\n    function getRemainTime(uint32 auctionId) external view returns(uint32) {\n        require(auctionId < auctions.length);\n        require(uint32(now) < auctions[auctionId].endTime);\n        return auctions[auctionId].endTime - uint32(now);\n    }\n    function getSeller(uint32 auctionId) external view returns(address) {\n        require(auctionId < auctions.length);\n        return auctions[auctionId].seller;\n    }\n    function getWinner(uint32 auctionId) external view returns(address) {\n        require(auctionId < auctions.length);\n        return auctions[auctionId].winner;\n    }\n    function getItemInfo(uint32 auctionId) external view returns(ItemInfo memory) {\n        require(auctionId < auctions.length);\n        return auctions[auctionId].itemInfo;\n    }\n    function setTime(uint32 auctionId, uint32 newTime) external returns(bool) {\n        require(auctionId < auctions.length);\n        require(msg.sender == auctions[auctionId].seller);\n        if (newTime <= uint32(now))\n            return false;\n        auctions[auctionId].endTime = newTime;\n    }\n    function setItemInfo(uint32 auctionId, string[] calldata newItemInfo) external returns(bool) {\n        require(auctionId < auctions.length);\n        require(msg.sender == auctions[auctionId].seller);\n        require(newItemInfo.length == 3);\n        auctions[auctionId].itemInfo = ItemInfo(newItemInfo[0], newItemInfo[1], newItemInfo[2]);\n    }\n    function getSecurityDeposit() external view returns(uint256) {\n        return securityDeposit;\n    }\n    function setSecurityDeposit(uint256 newDeposit) external onlyOwner {\n        securityDeposit = newDeposit;\n    }\n\n\n}\n\n",
  "sourcePath": "/Users/kevinmadoka/Documents/NMLab_/NMLab109_final/contracts/Bidchain.sol",
  "compiler": {
    "name": "solc",
    "version": "0.5.16+commit.9c3226ce.Emscripten.clang"
  },
  "schemaVersion": "3.1.0",
  "updatedAt": "2020-06-08T06:31:04.718Z",
  "networkType": "ethereum",
  "devdoc": {
    "methods": {}
  },
  "userdoc": {
    "methods": {}
  }
}