{
  "contractName": "Bidchain",
  "abi": [
    {
      "anonymous": false,
      "inputs": [
        {
          "indexed": false,
          "internalType": "uint32",
          "name": "auctionId",
          "type": "uint32"
        },
        {
          "indexed": false,
          "internalType": "uint32",
          "name": "endTime",
          "type": "uint32"
        },
        {
          "indexed": false,
          "internalType": "uint256",
          "name": "newPrice",
          "type": "uint256"
        },
        {
          "indexed": false,
          "internalType": "address",
          "name": "bidder",
          "type": "address"
        }
      ],
      "name": "Bidding",
      "type": "event"
    },
    {
      "anonymous": false,
      "inputs": [
        {
          "indexed": false,
          "internalType": "uint32",
          "name": "auctionId",
          "type": "uint32"
        }
      ],
      "name": "Closed",
      "type": "event"
    },
    {
      "anonymous": false,
      "inputs": [
        {
          "indexed": false,
          "internalType": "uint32",
          "name": "auctionId",
          "type": "uint32"
        }
      ],
      "name": "Locked",
      "type": "event"
    },
    {
      "anonymous": false,
      "inputs": [
        {
          "indexed": false,
          "internalType": "uint32",
          "name": "auctionId",
          "type": "uint32"
        },
        {
          "indexed": false,
          "internalType": "uint32",
          "name": "endTime",
          "type": "uint32"
        },
        {
          "indexed": false,
          "internalType": "uint256",
          "name": "beginPrice",
          "type": "uint256"
        },
        {
          "indexed": false,
          "internalType": "address",
          "name": "seller",
          "type": "address"
        },
        {
          "indexed": false,
          "internalType": "string[]",
          "name": "itemInfo",
          "type": "string[]"
        }
      ],
      "name": "NewAuction",
      "type": "event"
    },
    {
      "anonymous": false,
      "inputs": [
        {
          "indexed": false,
          "internalType": "uint32",
          "name": "auctionId",
          "type": "uint32"
        }
      ],
      "name": "Released",
      "type": "event"
    },
    {
      "anonymous": false,
      "inputs": [
        {
          "indexed": false,
          "internalType": "uint32",
          "name": "auctionId",
          "type": "uint32"
        }
      ],
      "name": "Waited",
      "type": "event"
    },
    {
      "constant": true,
      "inputs": [
        {
          "internalType": "uint32",
          "name": "",
          "type": "uint32"
        }
      ],
      "name": "auction2Seller",
      "outputs": [
        {
          "internalType": "address",
          "name": "",
          "type": "address"
        }
      ],
      "payable": false,
      "stateMutability": "view",
      "type": "function"
    },
    {
      "constant": true,
      "inputs": [
        {
          "internalType": "uint256",
          "name": "",
          "type": "uint256"
        }
      ],
      "name": "auctions",
      "outputs": [
        {
          "internalType": "uint32",
          "name": "endTime",
          "type": "uint32"
        },
        {
          "internalType": "uint256",
          "name": "price",
          "type": "uint256"
        },
        {
          "internalType": "address payable",
          "name": "seller",
          "type": "address"
        },
        {
          "internalType": "address payable",
          "name": "winner",
          "type": "address"
        },
        {
          "components": [
            {
              "internalType": "string",
              "name": "name",
              "type": "string"
            },
            {
              "internalType": "string",
              "name": "descript",
              "type": "string"
            },
            {
              "internalType": "string",
              "name": "imageURL",
              "type": "string"
            }
          ],
          "internalType": "struct Bidchain.ItemInfo",
          "name": "itemInfo",
          "type": "tuple"
        },
        {
          "internalType": "enum Bidchain.State",
          "name": "state",
          "type": "uint8"
        }
      ],
      "payable": false,
      "stateMutability": "view",
      "type": "function"
    },
    {
      "constant": true,
      "inputs": [
        {
          "internalType": "address",
          "name": "",
          "type": "address"
        },
        {
          "internalType": "uint256",
          "name": "",
          "type": "uint256"
        }
      ],
      "name": "seller2Auction",
      "outputs": [
        {
          "internalType": "uint32",
          "name": "",
          "type": "uint32"
        }
      ],
      "payable": false,
      "stateMutability": "view",
      "type": "function"
    },
    {
      "constant": false,
      "inputs": [
        {
          "internalType": "uint32",
          "name": "period",
          "type": "uint32"
        },
        {
          "internalType": "uint256",
          "name": "beginPrice",
          "type": "uint256"
        },
        {
          "internalType": "string[]",
          "name": "itemInfo",
          "type": "string[]"
        }
      ],
      "name": "createAuction",
      "outputs": [],
      "payable": false,
      "stateMutability": "nonpayable",
      "type": "function"
    },
    {
      "constant": false,
      "inputs": [
        {
          "internalType": "uint32",
          "name": "auctionId",
          "type": "uint32"
        }
      ],
      "name": "bidding",
      "outputs": [],
      "payable": true,
      "stateMutability": "payable",
      "type": "function"
    },
    {
      "constant": false,
      "inputs": [],
      "name": "checking",
      "outputs": [],
      "payable": false,
      "stateMutability": "nonpayable",
      "type": "function"
    },
    {
      "constant": false,
      "inputs": [
        {
          "internalType": "uint32",
          "name": "auctionId",
          "type": "uint32"
        }
      ],
      "name": "locking",
      "outputs": [],
      "payable": true,
      "stateMutability": "payable",
      "type": "function"
    },
    {
      "constant": false,
      "inputs": [
        {
          "internalType": "uint32",
          "name": "auctionId",
          "type": "uint32"
        }
      ],
      "name": "confirm",
      "outputs": [],
      "payable": false,
      "stateMutability": "nonpayable",
      "type": "function"
    },
    {
      "constant": false,
      "inputs": [
        {
          "internalType": "uint32",
          "name": "auctionId",
          "type": "uint32"
        }
      ],
      "name": "release",
      "outputs": [],
      "payable": false,
      "stateMutability": "nonpayable",
      "type": "function"
    },
    {
      "constant": true,
      "inputs": [],
      "name": "getAuctions",
      "outputs": [
        {
          "components": [
            {
              "internalType": "uint32",
              "name": "endTime",
              "type": "uint32"
            },
            {
              "internalType": "uint256",
              "name": "price",
              "type": "uint256"
            },
            {
              "internalType": "address payable",
              "name": "seller",
              "type": "address"
            },
            {
              "internalType": "address payable",
              "name": "winner",
              "type": "address"
            },
            {
              "components": [
                {
                  "internalType": "string",
                  "name": "name",
                  "type": "string"
                },
                {
                  "internalType": "string",
                  "name": "descript",
                  "type": "string"
                },
                {
                  "internalType": "string",
                  "name": "imageURL",
                  "type": "string"
                }
              ],
              "internalType": "struct Bidchain.ItemInfo",
              "name": "itemInfo",
              "type": "tuple"
            },
            {
              "internalType": "enum Bidchain.State",
              "name": "state",
              "type": "uint8"
            }
          ],
          "internalType": "struct Bidchain.Auction[]",
          "name": "",
          "type": "tuple[]"
        }
      ],
      "payable": false,
      "stateMutability": "view",
      "type": "function"
    },
    {
      "constant": true,
      "inputs": [
        {
          "internalType": "uint32",
          "name": "auctionId",
          "type": "uint32"
        }
      ],
      "name": "getPrice",
      "outputs": [
        {
          "internalType": "uint256",
          "name": "",
          "type": "uint256"
        }
      ],
      "payable": false,
      "stateMutability": "view",
      "type": "function"
    },
    {
      "constant": true,
      "inputs": [
        {
          "internalType": "uint32",
          "name": "auctionId",
          "type": "uint32"
        }
      ],
      "name": "getRemainTime",
      "outputs": [
        {
          "internalType": "uint32",
          "name": "",
          "type": "uint32"
        }
      ],
      "payable": false,
      "stateMutability": "view",
      "type": "function"
    },
    {
      "constant": true,
      "inputs": [
        {
          "internalType": "uint32",
          "name": "auctionId",
          "type": "uint32"
        }
      ],
      "name": "getSeller",
      "outputs": [
        {
          "internalType": "address",
          "name": "",
          "type": "address"
        }
      ],
      "payable": false,
      "stateMutability": "view",
      "type": "function"
    },
    {
      "constant": true,
      "inputs": [
        {
          "internalType": "uint32",
          "name": "auctionId",
          "type": "uint32"
        }
      ],
      "name": "getWinner",
      "outputs": [
        {
          "internalType": "address",
          "name": "",
          "type": "address"
        }
      ],
      "payable": false,
      "stateMutability": "view",
      "type": "function"
    },
    {
      "constant": true,
      "inputs": [
        {
          "internalType": "uint32",
          "name": "auctionId",
          "type": "uint32"
        }
      ],
      "name": "getItemInfo",
      "outputs": [
        {
          "components": [
            {
              "internalType": "string",
              "name": "name",
              "type": "string"
            },
            {
              "internalType": "string",
              "name": "descript",
              "type": "string"
            },
            {
              "internalType": "string",
              "name": "imageURL",
              "type": "string"
            }
          ],
          "internalType": "struct Bidchain.ItemInfo",
          "name": "",
          "type": "tuple"
        }
      ],
      "payable": false,
      "stateMutability": "view",
      "type": "function"
    },
    {
      "constant": false,
      "inputs": [
        {
          "internalType": "uint32",
          "name": "auctionId",
          "type": "uint32"
        },
        {
          "internalType": "uint32",
          "name": "newTime",
          "type": "uint32"
        }
      ],
      "name": "setTime",
      "outputs": [
        {
          "internalType": "bool",
          "name": "",
          "type": "bool"
        }
      ],
      "payable": false,
      "stateMutability": "nonpayable",
      "type": "function"
    },
    {
      "constant": false,
      "inputs": [
        {
          "internalType": "uint32",
          "name": "auctionId",
          "type": "uint32"
        },
        {
          "internalType": "string[]",
          "name": "newItemInfo",
          "type": "string[]"
        }
      ],
      "name": "setItemInfo",
      "outputs": [
        {
          "internalType": "bool",
          "name": "",
          "type": "bool"
        }
      ],
      "payable": false,
      "stateMutability": "nonpayable",
      "type": "function"
    }
  ],
  "bytecode": "0x608060405234801561001057600080fd5b5061322e806100206000396000f3fe6080604052600436106100fe5760003560e01c8063888dd07411610095578063d7c0691911610064578063d7c0691914610354578063da26663a1461037f578063dc4a1dcc146103bc578063dda42b37146103f9578063eb13a42014610422576100fe565b8063888dd074146102b65780639ff3079b146102d2578063a8672da6146102ee578063d2e2697e1461032b576100fe565b80634636499d116100d15780634636499d146101d1578063477398aa1461020e578063571a26a01461024b57806382b8065a1461028d576100fe565b8063082d3f3f1461010357806311dec6021461014057806317a9b7721461017d578063267f45d514610194575b600080fd5b34801561010f57600080fd5b5061012a600480360361012591908101906126e0565b61045f565b6040516101379190612d60565b60405180910390f35b34801561014c57600080fd5b50610167600480360361016291908101906126b7565b61078c565b6040516101749190612e78565b60405180910390f35b34801561018957600080fd5b5061019261082e565b005b3480156101a057600080fd5b506101bb60048036036101b691908101906127a4565b610a95565b6040516101c89190612d60565b60405180910390f35b3480156101dd57600080fd5b506101f860048036036101f39190810190612652565b610b8f565b6040516102059190612e78565b60405180910390f35b34801561021a57600080fd5b50610235600480360361023091908101906126b7565b610bd5565b6040516102429190612d23565b60405180910390f35b34801561025757600080fd5b50610272600480360361026d919081019061268e565b610c39565b60405161028496959493929190612e93565b60405180910390f35b34801561029957600080fd5b506102b460048036036102af9190810190612738565b610ecf565b005b6102d060048036036102cb91908101906126b7565b61145b565b005b6102ec60048036036102e791908101906126b7565b611820565b005b3480156102fa57600080fd5b50610315600480360361031091908101906126b7565b611a62565b6040516103229190612d23565b60405180910390f35b34801561033757600080fd5b50610352600480360361034d91908101906126b7565b611ac6565b005b34801561036057600080fd5b50610369611c84565b6040516103769190612d3e565b60405180910390f35b34801561038b57600080fd5b506103a660048036036103a191908101906126b7565b611fe6565b6040516103b39190612e5d565b60405180910390f35b3480156103c857600080fd5b506103e360048036036103de91908101906126b7565b61202a565b6040516103f09190612e3b565b60405180910390f35b34801561040557600080fd5b50610420600480360361041b91908101906126b7565b612265565b005b34801561042e57600080fd5b50610449600480360361044491908101906126b7565b6124d0565b6040516104569190612d23565b60405180910390f35b600080805490508463ffffffff161061047757600080fd5b60008463ffffffff168154811061048a57fe5b906000526020600020906008020160020160009054906101000a900473ffffffffffffffffffffffffffffffffffffffff1673ffffffffffffffffffffffffffffffffffffffff163373ffffffffffffffffffffffffffffffffffffffff16146104f357600080fd5b6003838390501461050357600080fd5b60405180606001604052808484600081811061051b57fe5b905060200281018035600160200383360303811261053857600080fd5b8083019250508135905060208201915067ffffffffffffffff81111561055d57600080fd5b60018102360382131561056f57600080fd5b8080601f016020809104026020016040519081016040528093929190818152602001838380828437600081840152601f19601f820116905080830192505050505050508152602001848460018181106105c457fe5b90506020028101803560016020038336030381126105e157600080fd5b8083019250508135905060208201915067ffffffffffffffff81111561060657600080fd5b60018102360382131561061857600080fd5b8080601f016020809104026020016040519081016040528093929190818152602001838380828437600081840152601f19601f8201169050808301925050505050505081526020018484600281811061066d57fe5b905060200281018035600160200383360303811261068a57600080fd5b8083019250508135905060208201915067ffffffffffffffff8111156106af57600080fd5b6001810236038213156106c157600080fd5b8080601f016020809104026020016040519081016040528093929190818152602001838380828437600081840152601f19601f8201169050808301925050505050505081525060008563ffffffff168154811061071a57fe5b90600052602060002090600802016004016000820151816000019080519060200190610747929190612503565b506020820151816001019080519060200190610764929190612503565b506040820151816002019080519060200190610781929190612503565b509050509392505050565b600080805490508263ffffffff16106107a457600080fd5b60008263ffffffff16815481106107b757fe5b906000526020600020906008020160000160009054906101000a900463ffffffff1663ffffffff164263ffffffff16106107f057600080fd5b4260008363ffffffff168154811061080457fe5b906000526020600020906008020160000160009054906101000a900463ffffffff16039050919050565b60008090505b6000805490508163ffffffff161015610a92576000600581111561085457fe5b60008263ffffffff168154811061086757fe5b906000526020600020906008020160070160009054906101000a900460ff16600581111561089157fe5b14806108e45750600160058111156108a557fe5b60008263ffffffff16815481106108b857fe5b906000526020600020906008020160070160009054906101000a900460ff1660058111156108e257fe5b145b801561092f57504263ffffffff1660008263ffffffff168154811061090557fe5b906000526020600020906008020160000160009054906101000a900463ffffffff1663ffffffff16115b15610a85576000600581111561094157fe5b60008263ffffffff168154811061095457fe5b906000526020600020906008020160070160009054906101000a900460ff16600581111561097e57fe5b1415610a0657600560008263ffffffff168154811061099957fe5b906000526020600020906008020160070160006101000a81548160ff021916908360058111156109c557fe5b02179055507f02c73bd5d87c6dd0d0f2c24d0f6807f6a799e5131fc0beebea790be17a3f168a816040516109f99190612e78565b60405180910390a1610a84565b600260008263ffffffff1681548110610a1b57fe5b906000526020600020906008020160070160006101000a81548160ff02191690836005811115610a4757fe5b02179055507f20ad90ba9f06e508fd033bc6052be35fe08f48c63312dc26bec01a5376ae2edb81604051610a7b9190612e78565b60405180910390a15b5b8080600101915050610834565b50565b600080805490508363ffffffff1610610aad57600080fd5b60008363ffffffff1681548110610ac057fe5b906000526020600020906008020160020160009054906101000a900473ffffffffffffffffffffffffffffffffffffffff1673ffffffffffffffffffffffffffffffffffffffff163373ffffffffffffffffffffffffffffffffffffffff1614610b2957600080fd5b4263ffffffff168263ffffffff1611610b455760009050610b89565b8160008463ffffffff1681548110610b5957fe5b906000526020600020906008020160000160006101000a81548163ffffffff021916908363ffffffff1602179055505b92915050565b60016020528160005260406000208181548110610ba857fe5b9060005260206000209060089182820401919006600402915091509054906101000a900463ffffffff1681565b600080805490508263ffffffff1610610bed57600080fd5b60008263ffffffff1681548110610c0057fe5b906000526020600020906008020160030160009054906101000a900473ffffffffffffffffffffffffffffffffffffffff169050919050565b60008181548110610c4657fe5b90600052602060002090600802016000915090508060000160009054906101000a900463ffffffff16908060010154908060020160009054906101000a900473ffffffffffffffffffffffffffffffffffffffff16908060030160009054906101000a900473ffffffffffffffffffffffffffffffffffffffff169080600401604051806060016040529081600082018054600181600116156101000203166002900480601f016020809104026020016040519081016040528092919081815260200182805460018160011615610100020316600290048015610d6a5780601f10610d3f57610100808354040283529160200191610d6a565b820191906000526020600020905b815481529060010190602001808311610d4d57829003601f168201915b50505050508152602001600182018054600181600116156101000203166002900480601f016020809104026020016040519081016040528092919081815260200182805460018160011615610100020316600290048015610e0c5780601f10610de157610100808354040283529160200191610e0c565b820191906000526020600020905b815481529060010190602001808311610def57829003601f168201915b50505050508152602001600282018054600181600116156101000203166002900480601f016020809104026020016040519081016040528092919081815260200182805460018160011615610100020316600290048015610eae5780601f10610e8357610100808354040283529160200191610eae565b820191906000526020600020905b815481529060010190602001808311610e9157829003601f168201915b505050505081525050908060070160009054906101000a900460ff16905086565b83828290506203f4808263ffffffff1611158015610ef3575060038163ffffffff16145b610f32576040517f08c379a0000000000000000000000000000000000000000000000000000000008152600401610f2990612e1b565b60405180910390fd5b6000600160006040518060c001604052808a420163ffffffff1681526020018981526020013373ffffffffffffffffffffffffffffffffffffffff168152602001600073ffffffffffffffffffffffffffffffffffffffff16815260200160405180606001604052808a8a6000818110610fa857fe5b9050602002810180356001602003833603038112610fc557600080fd5b8083019250508135905060208201915067ffffffffffffffff811115610fea57600080fd5b600181023603821315610ffc57600080fd5b8080601f016020809104026020016040519081016040528093929190818152602001838380828437600081840152601f19601f8201169050808301925050505050505081526020018a8a600181811061105157fe5b905060200281018035600160200383360303811261106e57600080fd5b8083019250508135905060208201915067ffffffffffffffff81111561109357600080fd5b6001810236038213156110a557600080fd5b8080601f016020809104026020016040519081016040528093929190818152602001838380828437600081840152601f19601f8201169050808301925050505050505081526020018a8a60028181106110fa57fe5b905060200281018035600160200383360303811261111757600080fd5b8083019250508135905060208201915067ffffffffffffffff81111561113c57600080fd5b60018102360382131561114e57600080fd5b8080601f016020809104026020016040519081016040528093929190818152602001838380828437600081840152601f19601f820116905080830192505050505050508152508152602001600060058111156111a657fe5b8152509080600181540180825580915050906001820390600052602060002090600802016000909192909190915060008201518160000160006101000a81548163ffffffff021916908363ffffffff1602179055506020820151816001015560408201518160020160006101000a81548173ffffffffffffffffffffffffffffffffffffffff021916908373ffffffffffffffffffffffffffffffffffffffff16021790555060608201518160030160006101000a81548173ffffffffffffffffffffffffffffffffffffffff021916908373ffffffffffffffffffffffffffffffffffffffff16021790555060808201518160040160008201518160000190805190602001906112b8929190612503565b5060208201518160010190805190602001906112d5929190612503565b5060408201518160020190805190602001906112f2929190612503565b50505060a08201518160070160006101000a81548160ff0219169083600581111561131957fe5b02179055505050039050600160003373ffffffffffffffffffffffffffffffffffffffff1673ffffffffffffffffffffffffffffffffffffffff16815260200190815260200160002081908060018154018082558091505090600182039060005260206000209060089182820401919006600402909192909190916101000a81548163ffffffff021916908363ffffffff1602179055505033600260008363ffffffff1663ffffffff16815260200190815260200160002060006101000a81548173ffffffffffffffffffffffffffffffffffffffff021916908373ffffffffffffffffffffffffffffffffffffffff1602179055507fd2ed91d892d8fc0bd35a5c4a450f31ab9ab924fddeb54e77e8dff0718bad7cfe818842018833898960405161144a96959493929190612f40565b60405180910390a150505050505050565b80346000805490508263ffffffff1610801561151057506000600581111561147f57fe5b60008363ffffffff168154811061149257fe5b906000526020600020906008020160070160009054906101000a900460ff1660058111156114bc57fe5b148061150f5750600160058111156114d057fe5b60008363ffffffff16815481106114e357fe5b906000526020600020906008020160070160009054906101000a900460ff16600581111561150d57fe5b145b5b801561153f575060008263ffffffff168154811061152a57fe5b90600052602060002090600802016001015481115b61157e576040517f08c379a000000000000000000000000000000000000000000000000000000000815260040161157590612dfb565b60405180910390fd5b343373ffffffffffffffffffffffffffffffffffffffff163110156115d8576040517f08c379a00000000000000000000000000000000000000000000000000000000081526004016115cf90612dbb565b60405180910390fd5b600160058111156115e557fe5b60008463ffffffff16815481106115f857fe5b906000526020600020906008020160070160009054906101000a900460ff16600581111561162257fe5b14156116d85760008363ffffffff168154811061163b57fe5b906000526020600020906008020160030160009054906101000a900473ffffffffffffffffffffffffffffffffffffffff1673ffffffffffffffffffffffffffffffffffffffff166108fc60008563ffffffff168154811061169957fe5b9060005260206000209060080201600101549081150290604051600060405180830381858888f193505050501580156116d6573d6000803e3d6000fd5b505b3360008463ffffffff16815481106116ec57fe5b906000526020600020906008020160030160006101000a81548173ffffffffffffffffffffffffffffffffffffffff021916908373ffffffffffffffffffffffffffffffffffffffff1602179055503460008463ffffffff168154811061174f57fe5b906000526020600020906008020160010181905550600160008463ffffffff168154811061177957fe5b906000526020600020906008020160070160006101000a81548160ff021916908360058111156117a557fe5b02179055507ffc6090b9c9d42b862484b17bf24ce4f1dc70651222a11a4546be2acc9c91d8db8360008563ffffffff16815481106117df57fe5b906000526020600020906008020160000160009054906101000a900463ffffffff1634336040516118139493929190612efb565b60405180910390a1505050565b80600260008263ffffffff1663ffffffff16815260200190815260200160002060009054906101000a900473ffffffffffffffffffffffffffffffffffffffff1673ffffffffffffffffffffffffffffffffffffffff163373ffffffffffffffffffffffffffffffffffffffff16146118ce576040517f08c379a00000000000000000000000000000000000000000000000000000000081526004016118c590612d7b565b60405180910390fd5b600260058111156118db57fe5b60008363ffffffff16815481106118ee57fe5b906000526020600020906008020160070160009054906101000a900460ff16600581111561191857fe5b14611958576040517f08c379a000000000000000000000000000000000000000000000000000000000815260040161194f90612ddb565b60405180910390fd5b343373ffffffffffffffffffffffffffffffffffffffff1631101580156119a2575060008263ffffffff168154811061198d57fe5b90600052602060002090600802016001015434145b6119e1576040517f08c379a00000000000000000000000000000000000000000000000000000000081526004016119d890612dbb565b60405180910390fd5b600360008363ffffffff16815481106119f657fe5b906000526020600020906008020160070160006101000a81548160ff02191690836005811115611a2257fe5b02179055507fdfd9f789196fd6405aefe6d88f150d211ca8540c7b96922706edb8881451566882604051611a569190612e78565b60405180910390a15050565b600080805490508263ffffffff1610611a7a57600080fd5b60008263ffffffff1681548110611a8d57fe5b906000526020600020906008020160020160009054906101000a900473ffffffffffffffffffffffffffffffffffffffff169050919050565b8060008163ffffffff1681548110611ada57fe5b906000526020600020906008020160030160009054906101000a900473ffffffffffffffffffffffffffffffffffffffff1673ffffffffffffffffffffffffffffffffffffffff163373ffffffffffffffffffffffffffffffffffffffff1614611b79576040517f08c379a0000000000000000000000000000000000000000000000000000000008152600401611b7090612d9b565b60405180910390fd5b60036005811115611b8657fe5b60008363ffffffff1681548110611b9957fe5b906000526020600020906008020160070160009054906101000a900460ff166005811115611bc357fe5b14611c03576040517f08c379a0000000000000000000000000000000000000000000000000000000008152600401611bfa90612ddb565b60405180910390fd5b600460008363ffffffff1681548110611c1857fe5b906000526020600020906008020160070160006101000a81548160ff02191690836005811115611c4457fe5b02179055507f8b83d80174f66ffff30723106541b7bf432fac3c98d8fea26dd49b434b5cbeeb82604051611c789190612e78565b60405180910390a15050565b60606000805480602002602001604051908101604052809291908181526020016000905b82821015611fdd57838290600052602060002090600802016040518060c00160405290816000820160009054906101000a900463ffffffff1663ffffffff1663ffffffff168152602001600182015481526020016002820160009054906101000a900473ffffffffffffffffffffffffffffffffffffffff1673ffffffffffffffffffffffffffffffffffffffff1673ffffffffffffffffffffffffffffffffffffffff1681526020016003820160009054906101000a900473ffffffffffffffffffffffffffffffffffffffff1673ffffffffffffffffffffffffffffffffffffffff1673ffffffffffffffffffffffffffffffffffffffff16815260200160048201604051806060016040529081600082018054600181600116156101000203166002900480601f016020809104026020016040519081016040528092919081815260200182805460018160011615610100020316600290048015611e505780601f10611e2557610100808354040283529160200191611e50565b820191906000526020600020905b815481529060010190602001808311611e3357829003601f168201915b50505050508152602001600182018054600181600116156101000203166002900480601f016020809104026020016040519081016040528092919081815260200182805460018160011615610100020316600290048015611ef25780601f10611ec757610100808354040283529160200191611ef2565b820191906000526020600020905b815481529060010190602001808311611ed557829003601f168201915b50505050508152602001600282018054600181600116156101000203166002900480601f016020809104026020016040519081016040528092919081815260200182805460018160011615610100020316600290048015611f945780601f10611f6957610100808354040283529160200191611f94565b820191906000526020600020905b815481529060010190602001808311611f7757829003601f168201915b50505050508152505081526020016007820160009054906101000a900460ff166005811115611fbf57fe5b6005811115611fca57fe5b8152505081526020019060010190611ca8565b50505050905090565b600080805490508263ffffffff1610611ffe57600080fd5b60008263ffffffff168154811061201157fe5b9060005260206000209060080201600101549050919050565b612032612583565b6000805490508263ffffffff161061204957600080fd5b60008263ffffffff168154811061205c57fe5b9060005260206000209060080201600401604051806060016040529081600082018054600181600116156101000203166002900480601f0160208091040260200160405190810160405280929190818152602001828054600181600116156101000203166002900480156121115780601f106120e657610100808354040283529160200191612111565b820191906000526020600020905b8154815290600101906020018083116120f457829003601f168201915b50505050508152602001600182018054600181600116156101000203166002900480601f0160208091040260200160405190810160405280929190818152602001828054600181600116156101000203166002900480156121b35780601f10612188576101008083540402835291602001916121b3565b820191906000526020600020905b81548152906001019060200180831161219657829003601f168201915b50505050508152602001600282018054600181600116156101000203166002900480601f0160208091040260200160405190810160405280929190818152602001828054600181600116156101000203166002900480156122555780601f1061222a57610100808354040283529160200191612255565b820191906000526020600020905b81548152906001019060200180831161223857829003601f168201915b5050505050815250509050919050565b80600260008263ffffffff1663ffffffff16815260200190815260200160002060009054906101000a900473ffffffffffffffffffffffffffffffffffffffff1673ffffffffffffffffffffffffffffffffffffffff163373ffffffffffffffffffffffffffffffffffffffff1614612313576040517f08c379a000000000000000000000000000000000000000000000000000000000815260040161230a90612d7b565b60405180910390fd5b6004600581111561232057fe5b60008363ffffffff168154811061233357fe5b906000526020600020906008020160070160009054906101000a900460ff16600581111561235d57fe5b1461239d576040517f08c379a000000000000000000000000000000000000000000000000000000000815260040161239490612ddb565b60405180910390fd5b60008263ffffffff16815481106123b057fe5b906000526020600020906008020160020160009054906101000a900473ffffffffffffffffffffffffffffffffffffffff1673ffffffffffffffffffffffffffffffffffffffff166108fc60008463ffffffff168154811061240e57fe5b9060005260206000209060080201600101546002029081150290604051600060405180830381858888f1935050505015801561244e573d6000803e3d6000fd5b50600560008363ffffffff168154811061246457fe5b906000526020600020906008020160070160006101000a81548160ff0219169083600581111561249057fe5b02179055507f02c73bd5d87c6dd0d0f2c24d0f6807f6a799e5131fc0beebea790be17a3f168a826040516124c49190612e78565b60405180910390a15050565b60026020528060005260406000206000915054906101000a900473ffffffffffffffffffffffffffffffffffffffff1681565b828054600181600116156101000203166002900490600052602060002090601f016020900481019282601f1061254457805160ff1916838001178555612572565b82800160010185558215612572579182015b82811115612571578251825591602001919060010190612556565b5b50905061257f91906125a4565b5090565b60405180606001604052806060815260200160608152602001606081525090565b6125c691905b808211156125c25760008160009055506001016125aa565b5090565b90565b6000813590506125d8816131a6565b92915050565b60008083601f8401126125f057600080fd5b8235905067ffffffffffffffff81111561260957600080fd5b60208301915083602082028301111561262157600080fd5b9250929050565b600081359050612637816131bd565b92915050565b60008135905061264c816131d4565b92915050565b6000806040838503121561266557600080fd5b6000612673858286016125c9565b925050602061268485828601612628565b9150509250929050565b6000602082840312156126a057600080fd5b60006126ae84828501612628565b91505092915050565b6000602082840312156126c957600080fd5b60006126d78482850161263d565b91505092915050565b6000806000604084860312156126f557600080fd5b60006127038682870161263d565b935050602084013567ffffffffffffffff81111561272057600080fd5b61272c868287016125de565b92509250509250925092565b6000806000806060858703121561274e57600080fd5b600061275c8782880161263d565b945050602061276d87828801612628565b935050604085013567ffffffffffffffff81111561278a57600080fd5b612796878288016125de565b925092505092959194509250565b600080604083850312156127b757600080fd5b60006127c58582860161263d565b92505060206127d68582860161263d565b9150509250929050565b60006127ed84848461295e565b90509392505050565b60006128028383612b44565b905092915050565b612813816130fe565b82525050565b61282281613093565b82525050565b61283181613093565b82525050565b61284081613081565b82525050565b60006128528385612fe6565b93508360208402850161286484612f9c565b8060005b878110156128aa57848403895261287f828461302a565b61288a8682846127e0565b955061289584612fcc565b935060208b019a505050600181019050612868565b50829750879450505050509392505050565b60006128c782612fb6565b6128d18185612ff7565b9350836020820285016128e385612fa6565b8060005b8581101561291f578484038952815161290085826127f6565b945061290b83612fd9565b925060208a019950506001810190506128e7565b50829750879550505050505092915050565b61293a816130a5565b82525050565b61294981613110565b82525050565b61295881613110565b82525050565b600061296a8385613008565b9350612977838584613146565b61298083613188565b840190509392505050565b600061299682612fc1565b6129a08185613008565b93506129b0818560208601613155565b6129b981613188565b840191505092915050565b60006129d1601a83613019565b91507f4f6e6c792073656c6c65722063616e2063616c6c2074686973210000000000006000830152602082019050919050565b6000612a11601a83613019565b91507f4f6e6c792077696e6e65722063616e2063616c6c2074686973210000000000006000830152602082019050919050565b6000612a51601383613019565b91507f496e73756666696369656e7420746f6b656e21000000000000000000000000006000830152602082019050919050565b6000612a91600e83613019565b91507f496e76616c6964207374617465210000000000000000000000000000000000006000830152602082019050919050565b6000612ad1601083613019565b91507f496e76616c69642062696464696e6721000000000000000000000000000000006000830152602082019050919050565b6000612b11601983613019565b91507f496e76616c69642061756374696f6e206372656174696f6e21000000000000006000830152602082019050919050565b600060c083016000830151612b5c6000860182612d05565b506020830151612b6f6020860182612ce7565b506040830151612b826040860182612819565b506060830151612b956060860182612819565b5060808301518482036080860152612bad8282612c2b565b91505060a0830151612bc260a0860182612940565b508091505092915050565b60006060830160008301518482036000860152612bea828261298b565b91505060208301518482036020860152612c04828261298b565b91505060408301518482036040860152612c1e828261298b565b9150508091505092915050565b60006060830160008301518482036000860152612c48828261298b565b91505060208301518482036020860152612c62828261298b565b91505060408301518482036040860152612c7c828261298b565b9150508091505092915050565b60006060830160008301518482036000860152612ca6828261298b565b91505060208301518482036020860152612cc0828261298b565b91505060408301518482036040860152612cda828261298b565b9150508091505092915050565b612cf0816130e4565b82525050565b612cff816130e4565b82525050565b612d0e816130ee565b82525050565b612d1d816130ee565b82525050565b6000602082019050612d386000830184612837565b92915050565b60006020820190508181036000830152612d5881846128bc565b905092915050565b6000602082019050612d756000830184612931565b92915050565b60006020820190508181036000830152612d94816129c4565b9050919050565b60006020820190508181036000830152612db481612a04565b9050919050565b60006020820190508181036000830152612dd481612a44565b9050919050565b60006020820190508181036000830152612df481612a84565b9050919050565b60006020820190508181036000830152612e1481612ac4565b9050919050565b60006020820190508181036000830152612e3481612b04565b9050919050565b60006020820190508181036000830152612e558184612bcd565b905092915050565b6000602082019050612e726000830184612cf6565b92915050565b6000602082019050612e8d6000830184612d14565b92915050565b600060c082019050612ea86000830189612d14565b612eb56020830188612cf6565b612ec26040830187612828565b612ecf6060830186612828565b8181036080830152612ee18185612c89565b9050612ef060a083018461294f565b979650505050505050565b6000608082019050612f106000830187612d14565b612f1d6020830186612d14565b612f2a6040830185612cf6565b612f37606083018461280a565b95945050505050565b600060a082019050612f556000830189612d14565b612f626020830188612d14565b612f6f6040830187612cf6565b612f7c606083018661280a565b8181036080830152612f8f818486612846565b9050979650505050505050565b6000819050919050565b6000819050602082019050919050565b600081519050919050565b600081519050919050565b6000602082019050919050565b6000602082019050919050565b600082825260208201905092915050565b600082825260208201905092915050565b600082825260208201905092915050565b600082825260208201905092915050565b6000808335600160200384360303811261304357600080fd5b83810192508235915060208301925067ffffffffffffffff82111561306757600080fd5b60018202360384131561307957600080fd5b509250929050565b600061308c826130c4565b9050919050565b600061309e826130c4565b9050919050565b60008115159050919050565b60008190506130bf82613199565b919050565b600073ffffffffffffffffffffffffffffffffffffffff82169050919050565b6000819050919050565b600063ffffffff82169050919050565b600061310982613122565b9050919050565b600061311b826130b1565b9050919050565b600061312d82613134565b9050919050565b600061313f826130c4565b9050919050565b82818337600083830152505050565b60005b83811015613173578082015181840152602081019050613158565b83811115613182576000848401525b50505050565b6000601f19601f8301169050919050565b600681106131a357fe5b50565b6131af81613081565b81146131ba57600080fd5b50565b6131c6816130e4565b81146131d157600080fd5b50565b6131dd816130ee565b81146131e857600080fd5b5056fea365627a7a72315820dd0669cd1d0c55ce345aec6ab8ba2f08474a27c9fd156ca16d1446727c2de6036c6578706572696d656e74616cf564736f6c63430005100040",
  "source": "//pragma solidity >=0.5.0 <0.6.0;   // Not works\npragma experimental ABIEncoderV2;   // It seems that using user-defined struct objects must use this compiler version\n\n//import \"../node_modules/@openzeppelin/contracts/token/ERC20/ERC20.sol\";\n\ncontract Bidchain {\n\n    event NewAuction(uint32 auctionId, uint32 endTime, uint256 beginPrice, address seller, string[] itemInfo);\n    event Bidding(uint32 auctionId, uint32 endTime, uint256 newPrice, address bidder);\n    event Released(uint32 auctionId);\n    event Locked(uint32 auctionId);\n    event Waited(uint32 auctionId);\n    event Closed(uint32 auctionId);\n\n\n    struct ItemInfo {\n        string name;                // Item's name\n        string descript;            // Item description\n        string imageURL;            // Maybe imgur URL\n    }\n\n/*\n * State object is Created if created but no one bidding\n * State object is Active if someone bidding and the time is not ended\n * State object is Locked after time ended and buyer not confirmed\n * State object is Inactive if buyer confirmed or time ended and no one bidding\n */\n    enum State { Created, Active, Waited, Locked, Released, Closed }\n\n    struct Auction {\n        uint32              endTime;    // Auction will close after endTime\n        uint256             price;      // Current offered max price\n        address payable     seller;     // Seller's account address\n        address payable     winner;     // After auction closed, the max price's account address\n        ItemInfo            itemInfo;\n        State               state;\n    }\n\n    Auction[] public auctions;\n    mapping (address => uint32[])   public seller2Auction;\n    mapping (uint32 => address)     public auction2Seller;\n\n    modifier onlySeller(uint32 auctionId) {\n        require(msg.sender == auction2Seller[auctionId], \"Only seller can call this!\");\n        _;\n    }\n\n    modifier onlyWinner(uint32 auctionId) {\n        require(msg.sender == auctions[auctionId].winner, \"Only winner can call this!\");\n        _;\n    }\n\n    modifier validAuction(uint32 period, uint32 infoNum) {\n        require(period <= 3 days && infoNum == 3, \"Invalid auction creation!\");\n        _;\n    }\n    modifier validBidding(uint32 auctionId, uint256 newPrice) {\n        require(auctionId < auctions.length &&\n                (auctions[auctionId].state == State.Created || auctions[auctionId].state == State.Active) &&\n                newPrice > auctions[auctionId].price, \"Invalid bidding!\");\n        _;\n    }\n\n/*\n * Create the new auction by seller,\n * you can access seller's auction by first query seller2Auction[seller-address],\n * then auctions[seller2Auction[seller-address][specify-seller's-auction-id]]\n */\n    function createAuction(uint32 period, uint256 beginPrice, string[] calldata itemInfo) external validAuction(period, uint32(itemInfo.length)) {\n        uint32 id = uint32(auctions.push(Auction(uint32(now) + period, beginPrice, msg.sender, address(0), ItemInfo(itemInfo[0], itemInfo[1], itemInfo[2]), State.Created))) - 1;\n        seller2Auction[msg.sender].push(id);\n        auction2Seller[id] = msg.sender;\n        emit NewAuction(id, uint32(now) + period, beginPrice, msg.sender, itemInfo);\n    }\n\n    function bidding(uint32 auctionId) external payable validBidding(auctionId, msg.value) {\n        require(msg.sender.balance >= msg.value, \"Insufficient token!\");\n        if (auctions[auctionId].state == State.Active)\n            auctions[auctionId].winner.transfer(auctions[auctionId].price);  // Refund to the original bidder\n        auctions[auctionId].winner  = msg.sender;\n        auctions[auctionId].price   = msg.value;\n        auctions[auctionId].state   = State.Active;\n        emit Bidding(auctionId, auctions[auctionId].endTime, msg.value, msg.sender);\n    }\n\n\n    // Checking the time up auctions and emit event\n    function checking() external {\n        for (uint32 i = 0; i < auctions.length; i++) {\n            if ((auctions[i].state == State.Created || auctions[i].state == State.Active) && auctions[i].endTime > uint32(now)) {\n                if (auctions[i].state == State.Created) {\n                    auctions[i].state = State.Closed;\n                    emit Closed(i);\n                }\n                else {\n                    auctions[i].state = State.Waited;\n                    emit Waited(i);\n                }\n            }\n        }\n    }\n\n    function locking(uint32 auctionId) external payable onlySeller(auctionId) {\n        require(auctions[auctionId].state == State.Waited, \"Invalid state!\");\n        require(msg.sender.balance >= msg.value && msg.value == auctions[auctionId].price, \"Insufficient token!\");\n        auctions[auctionId].state = State.Locked;\n        emit Locked(auctionId);\n    }\n\n    function confirm(uint32 auctionId) external onlyWinner(auctionId) {\n        require(auctions[auctionId].state == State.Locked, \"Invalid state!\");\n        auctions[auctionId].state = State.Released;\n        emit Released(auctionId);\n    }\n\n    function release(uint32 auctionId) external onlySeller(auctionId) {\n        require(auctions[auctionId].state == State.Released, \"Invalid state!\");\n        auctions[auctionId].seller.transfer(2*auctions[auctionId].price);\n        auctions[auctionId].state = State.Closed;\n        emit Closed(auctionId);\n    }\n    // Getter and Setter\n    function getAuctions() external view returns (Auction[] memory) {\n        return auctions;\n    }\n    function getPrice(uint32 auctionId) external view returns(uint256) {\n        require(auctionId < auctions.length);\n        return auctions[auctionId].price;\n    }\n    function getRemainTime(uint32 auctionId) external view returns(uint32) {\n        require(auctionId < auctions.length);\n        require(uint32(now) < auctions[auctionId].endTime);\n        return auctions[auctionId].endTime - uint32(now);\n    }\n    function getSeller(uint32 auctionId) external view returns(address) {\n        require(auctionId < auctions.length);\n        return auctions[auctionId].seller;\n    }\n    function getWinner(uint32 auctionId) external view returns(address) {\n        require(auctionId < auctions.length);\n        return auctions[auctionId].winner;\n    }\n    function getItemInfo(uint32 auctionId) external view returns(ItemInfo memory) {\n        require(auctionId < auctions.length);\n        return auctions[auctionId].itemInfo;\n    }\n    function setTime(uint32 auctionId, uint32 newTime) external returns(bool) {\n        require(auctionId < auctions.length);\n        require(msg.sender == auctions[auctionId].seller);\n        if (newTime <= uint32(now))\n            return false;\n        auctions[auctionId].endTime = newTime;\n    }\n    function setItemInfo(uint32 auctionId, string[] calldata newItemInfo) external returns(bool) {\n        require(auctionId < auctions.length);\n        require(msg.sender == auctions[auctionId].seller);\n        require(newItemInfo.length == 3);\n        auctions[auctionId].itemInfo = ItemInfo(newItemInfo[0], newItemInfo[1], newItemInfo[2]);\n    }\n\n\n}\n\n",
  "sourcePath": "/Users/kevinmadoka/Documents/NMLab_/NMLab109_final/contracts/bidchain.sol",
  "compiler": {
    "name": "solc",
    "version": "0.5.16+commit.9c3226ce.Emscripten.clang"
  },
  "schemaVersion": "3.1.0",
  "updatedAt": "2020-05-18T05:30:28.987Z",
  "networkType": "ethereum",
  "devdoc": {
    "methods": {}
  },
  "userdoc": {
    "methods": {}
  }
}