{
  "contractName": "Bidchain",
  "abi": [
    {
      "inputs": [],
      "payable": false,
      "stateMutability": "nonpayable",
      "type": "constructor"
    },
    {
      "anonymous": false,
      "inputs": [
        {
          "indexed": false,
          "internalType": "uint32",
          "name": "auctionId",
          "type": "uint32"
        },
        {
          "indexed": false,
          "internalType": "uint32",
          "name": "endTime",
          "type": "uint32"
        },
        {
          "indexed": false,
          "internalType": "uint256",
          "name": "newPrice",
          "type": "uint256"
        },
        {
          "indexed": false,
          "internalType": "address",
          "name": "bidder",
          "type": "address"
        }
      ],
      "name": "Bidding",
      "type": "event"
    },
    {
      "anonymous": false,
      "inputs": [
        {
          "indexed": false,
          "internalType": "uint32",
          "name": "auctionId",
          "type": "uint32"
        }
      ],
      "name": "Closed",
      "type": "event"
    },
    {
      "anonymous": false,
      "inputs": [
        {
          "indexed": false,
          "internalType": "uint32",
          "name": "auctionId",
          "type": "uint32"
        }
      ],
      "name": "Locked",
      "type": "event"
    },
    {
      "anonymous": false,
      "inputs": [
        {
          "indexed": false,
          "internalType": "uint32",
          "name": "auctionId",
          "type": "uint32"
        },
        {
          "indexed": false,
          "internalType": "uint32",
          "name": "endTime",
          "type": "uint32"
        },
        {
          "indexed": false,
          "internalType": "uint256",
          "name": "beginPrice",
          "type": "uint256"
        },
        {
          "indexed": false,
          "internalType": "address",
          "name": "seller",
          "type": "address"
        },
        {
          "indexed": false,
          "internalType": "string",
          "name": "itemName",
          "type": "string"
        },
        {
          "indexed": false,
          "internalType": "string",
          "name": "itemDescript",
          "type": "string"
        },
        {
          "indexed": false,
          "internalType": "string",
          "name": "itemImageURL",
          "type": "string"
        }
      ],
      "name": "NewAuction",
      "type": "event"
    },
    {
      "anonymous": false,
      "inputs": [
        {
          "indexed": false,
          "internalType": "uint32",
          "name": "auctionId",
          "type": "uint32"
        }
      ],
      "name": "Released",
      "type": "event"
    },
    {
      "anonymous": false,
      "inputs": [
        {
          "indexed": false,
          "internalType": "uint32",
          "name": "auctionId",
          "type": "uint32"
        }
      ],
      "name": "Waited",
      "type": "event"
    },
    {
      "constant": true,
      "inputs": [
        {
          "internalType": "uint32",
          "name": "",
          "type": "uint32"
        }
      ],
      "name": "auction2Seller",
      "outputs": [
        {
          "internalType": "address",
          "name": "",
          "type": "address"
        }
      ],
      "payable": false,
      "stateMutability": "view",
      "type": "function"
    },
    {
      "constant": true,
      "inputs": [
        {
          "internalType": "uint256",
          "name": "",
          "type": "uint256"
        }
      ],
      "name": "auctions",
      "outputs": [
        {
          "internalType": "uint32",
          "name": "endTime",
          "type": "uint32"
        },
        {
          "internalType": "uint256",
          "name": "price",
          "type": "uint256"
        },
        {
          "internalType": "uint256",
          "name": "deposit",
          "type": "uint256"
        },
        {
          "internalType": "address payable",
          "name": "seller",
          "type": "address"
        },
        {
          "internalType": "address payable",
          "name": "winner",
          "type": "address"
        },
        {
          "internalType": "string",
          "name": "itemName",
          "type": "string"
        },
        {
          "internalType": "string",
          "name": "itemDescript",
          "type": "string"
        },
        {
          "internalType": "string",
          "name": "itemImageURL",
          "type": "string"
        },
        {
          "internalType": "enum Bidchain.State",
          "name": "state",
          "type": "uint8"
        }
      ],
      "payable": false,
      "stateMutability": "view",
      "type": "function"
    },
    {
      "constant": true,
      "inputs": [],
      "name": "securityDeposit",
      "outputs": [
        {
          "internalType": "uint256",
          "name": "",
          "type": "uint256"
        }
      ],
      "payable": false,
      "stateMutability": "view",
      "type": "function"
    },
    {
      "constant": true,
      "inputs": [
        {
          "internalType": "address",
          "name": "",
          "type": "address"
        },
        {
          "internalType": "uint256",
          "name": "",
          "type": "uint256"
        }
      ],
      "name": "seller2Auction",
      "outputs": [
        {
          "internalType": "uint32",
          "name": "",
          "type": "uint32"
        }
      ],
      "payable": false,
      "stateMutability": "view",
      "type": "function"
    },
    {
      "constant": true,
      "inputs": [
        {
          "internalType": "address",
          "name": "",
          "type": "address"
        }
      ],
      "name": "seller2AuctionNum",
      "outputs": [
        {
          "internalType": "uint32",
          "name": "",
          "type": "uint32"
        }
      ],
      "payable": false,
      "stateMutability": "view",
      "type": "function"
    },
    {
      "constant": true,
      "inputs": [
        {
          "internalType": "address",
          "name": "",
          "type": "address"
        },
        {
          "internalType": "uint256",
          "name": "",
          "type": "uint256"
        }
      ],
      "name": "winner2Auction",
      "outputs": [
        {
          "internalType": "uint32",
          "name": "",
          "type": "uint32"
        }
      ],
      "payable": false,
      "stateMutability": "view",
      "type": "function"
    },
    {
      "constant": true,
      "inputs": [
        {
          "internalType": "address",
          "name": "",
          "type": "address"
        }
      ],
      "name": "winner2AuctionNum",
      "outputs": [
        {
          "internalType": "uint32",
          "name": "",
          "type": "uint32"
        }
      ],
      "payable": false,
      "stateMutability": "view",
      "type": "function"
    },
    {
      "constant": false,
      "inputs": [
        {
          "internalType": "uint32",
          "name": "period",
          "type": "uint32"
        },
        {
          "internalType": "uint256",
          "name": "beginPrice",
          "type": "uint256"
        },
        {
          "internalType": "string",
          "name": "name",
          "type": "string"
        },
        {
          "internalType": "string",
          "name": "descript",
          "type": "string"
        },
        {
          "internalType": "string",
          "name": "imageURL",
          "type": "string"
        }
      ],
      "name": "createAuction",
      "outputs": [
        {
          "internalType": "uint32",
          "name": "",
          "type": "uint32"
        }
      ],
      "payable": true,
      "stateMutability": "payable",
      "type": "function"
    },
    {
      "constant": false,
      "inputs": [
        {
          "internalType": "uint32",
          "name": "auctionId",
          "type": "uint32"
        }
      ],
      "name": "bidding",
      "outputs": [],
      "payable": true,
      "stateMutability": "payable",
      "type": "function"
    },
    {
      "constant": false,
      "inputs": [],
      "name": "checking",
      "outputs": [],
      "payable": false,
      "stateMutability": "nonpayable",
      "type": "function"
    },
    {
      "constant": false,
      "inputs": [
        {
          "internalType": "uint32",
          "name": "auctionId",
          "type": "uint32"
        }
      ],
      "name": "confirm",
      "outputs": [],
      "payable": false,
      "stateMutability": "nonpayable",
      "type": "function"
    },
    {
      "constant": false,
      "inputs": [
        {
          "internalType": "uint32",
          "name": "auctionId",
          "type": "uint32"
        }
      ],
      "name": "release",
      "outputs": [],
      "payable": false,
      "stateMutability": "nonpayable",
      "type": "function"
    },
    {
      "constant": true,
      "inputs": [],
      "name": "getAuctionNum",
      "outputs": [
        {
          "internalType": "uint256",
          "name": "",
          "type": "uint256"
        }
      ],
      "payable": false,
      "stateMutability": "view",
      "type": "function"
    },
    {
      "constant": true,
      "inputs": [
        {
          "internalType": "uint32",
          "name": "auctionId",
          "type": "uint32"
        }
      ],
      "name": "getAuctionById",
      "outputs": [
        {
          "internalType": "uint32",
          "name": "",
          "type": "uint32"
        },
        {
          "internalType": "uint256",
          "name": "",
          "type": "uint256"
        },
        {
          "internalType": "uint256",
          "name": "",
          "type": "uint256"
        },
        {
          "internalType": "address",
          "name": "",
          "type": "address"
        },
        {
          "internalType": "address",
          "name": "",
          "type": "address"
        },
        {
          "internalType": "string",
          "name": "",
          "type": "string"
        },
        {
          "internalType": "string",
          "name": "",
          "type": "string"
        },
        {
          "internalType": "string",
          "name": "",
          "type": "string"
        },
        {
          "internalType": "enum Bidchain.State",
          "name": "",
          "type": "uint8"
        }
      ],
      "payable": false,
      "stateMutability": "view",
      "type": "function"
    },
    {
      "constant": true,
      "inputs": [
        {
          "internalType": "uint32",
          "name": "auctionId",
          "type": "uint32"
        }
      ],
      "name": "getPrice",
      "outputs": [
        {
          "internalType": "uint256",
          "name": "",
          "type": "uint256"
        }
      ],
      "payable": false,
      "stateMutability": "view",
      "type": "function"
    },
    {
      "constant": true,
      "inputs": [
        {
          "internalType": "uint32",
          "name": "auctionId",
          "type": "uint32"
        }
      ],
      "name": "getRemainTime",
      "outputs": [
        {
          "internalType": "uint32",
          "name": "",
          "type": "uint32"
        }
      ],
      "payable": false,
      "stateMutability": "view",
      "type": "function"
    },
    {
      "constant": true,
      "inputs": [
        {
          "internalType": "uint32",
          "name": "auctionId",
          "type": "uint32"
        }
      ],
      "name": "getSeller",
      "outputs": [
        {
          "internalType": "address",
          "name": "",
          "type": "address"
        }
      ],
      "payable": false,
      "stateMutability": "view",
      "type": "function"
    },
    {
      "constant": true,
      "inputs": [
        {
          "internalType": "uint32",
          "name": "auctionId",
          "type": "uint32"
        }
      ],
      "name": "getWinner",
      "outputs": [
        {
          "internalType": "address",
          "name": "",
          "type": "address"
        }
      ],
      "payable": false,
      "stateMutability": "view",
      "type": "function"
    },
    {
      "constant": true,
      "inputs": [
        {
          "internalType": "uint32",
          "name": "auctionId",
          "type": "uint32"
        }
      ],
      "name": "getItemInfo",
      "outputs": [
        {
          "internalType": "string",
          "name": "",
          "type": "string"
        },
        {
          "internalType": "string",
          "name": "",
          "type": "string"
        },
        {
          "internalType": "string",
          "name": "",
          "type": "string"
        }
      ],
      "payable": false,
      "stateMutability": "view",
      "type": "function"
    },
    {
      "constant": false,
      "inputs": [
        {
          "internalType": "uint32",
          "name": "auctionId",
          "type": "uint32"
        },
        {
          "internalType": "uint32",
          "name": "newTime",
          "type": "uint32"
        }
      ],
      "name": "setTime",
      "outputs": [
        {
          "internalType": "bool",
          "name": "",
          "type": "bool"
        }
      ],
      "payable": false,
      "stateMutability": "nonpayable",
      "type": "function"
    },
    {
      "constant": false,
      "inputs": [
        {
          "internalType": "uint32",
          "name": "auctionId",
          "type": "uint32"
        },
        {
          "internalType": "string",
          "name": "name",
          "type": "string"
        },
        {
          "internalType": "string",
          "name": "descript",
          "type": "string"
        },
        {
          "internalType": "string",
          "name": "imageURL",
          "type": "string"
        }
      ],
      "name": "setItemInfo",
      "outputs": [
        {
          "internalType": "bool",
          "name": "",
          "type": "bool"
        }
      ],
      "payable": false,
      "stateMutability": "nonpayable",
      "type": "function"
    },
    {
      "constant": true,
      "inputs": [],
      "name": "getSecurityDeposit",
      "outputs": [
        {
          "internalType": "uint256",
          "name": "",
          "type": "uint256"
        }
      ],
      "payable": false,
      "stateMutability": "view",
      "type": "function"
    },
    {
      "constant": false,
      "inputs": [
        {
          "internalType": "uint256",
          "name": "newDeposit",
          "type": "uint256"
        }
      ],
      "name": "setSecurityDeposit",
      "outputs": [],
      "payable": false,
      "stateMutability": "nonpayable",
      "type": "function"
    }
  ],
  "bytecode": "0x608060405234801561001057600080fd5b5067016345785d8a000060068190555033600760006101000a81548173ffffffffffffffffffffffffffffffffffffffff021916908373ffffffffffffffffffffffffffffffffffffffff16021790555061364a806100706000396000f3fe6080604052600436106101405760003560e01c8063999dffea116100b6578063da26663a1161006f578063da26663a14610ca0578063dc4a1dcc14610cf5578063dda42b3714610e87578063eb13a42014610ec8578063ebb5e0af14610f49578063f7ca6b0a14610f7457610140565b8063999dffea14610767578063a793f715146107e2578063a8672da614610853578063b070d850146108d4578063bfa5858d14610a31578063d2e2697e14610c5f57610140565b8063477398aa11610108578063477398aa146102cc578063571a26a01461034d57806364a406421461057557806386aefcea146105a0578063888dd074146105db57806397adfa691461060f57610140565b806311dec6021461014557806317a9b772146101a6578063220e5ab3146101bd578063267f45d5146101e85780634636499d14610251575b600080fd5b34801561015157600080fd5b506101846004803603602081101561016857600080fd5b81019080803563ffffffff169060200190929190505050610fe5565b604051808263ffffffff1663ffffffff16815260200191505060405180910390f35b3480156101b257600080fd5b506101bb611087565b005b3480156101c957600080fd5b506101d26114ed565b6040518082815260200191505060405180910390f35b3480156101f457600080fd5b506102376004803603604081101561020b57600080fd5b81019080803563ffffffff169060200190929190803563ffffffff1690602001909291905050506114f3565b604051808215151515815260200191505060405180910390f35b34801561025d57600080fd5b506102aa6004803603604081101561027457600080fd5b81019080803573ffffffffffffffffffffffffffffffffffffffff169060200190929190803590602001909291905050506115ed565b604051808263ffffffff1663ffffffff16815260200191505060405180910390f35b3480156102d857600080fd5b5061030b600480360360208110156102ef57600080fd5b81019080803563ffffffff169060200190929190505050611633565b604051808273ffffffffffffffffffffffffffffffffffffffff1673ffffffffffffffffffffffffffffffffffffffff16815260200191505060405180910390f35b34801561035957600080fd5b506103866004803603602081101561037057600080fd5b8101908080359060200190929190505050611697565b604051808a63ffffffff1663ffffffff1681526020018981526020018881526020018773ffffffffffffffffffffffffffffffffffffffff1673ffffffffffffffffffffffffffffffffffffffff1681526020018673ffffffffffffffffffffffffffffffffffffffff1673ffffffffffffffffffffffffffffffffffffffff16815260200180602001806020018060200185600481111561042457fe5b60ff168152602001848103845288818151815260200191508051906020019080838360005b83811015610464578082015181840152602081019050610449565b50505050905090810190601f1680156104915780820380516001836020036101000a031916815260200191505b50848103835287818151815260200191508051906020019080838360005b838110156104ca5780820151818401526020810190506104af565b50505050905090810190601f1680156104f75780820380516001836020036101000a031916815260200191505b50848103825286818151815260200191508051906020019080838360005b83811015610530578082015181840152602081019050610515565b50505050905090810190601f16801561055d5780820380516001836020036101000a031916815260200191505b509c5050505050505050505050505060405180910390f35b34801561058157600080fd5b5061058a611917565b6040518082815260200191505060405180910390f35b3480156105ac57600080fd5b506105d9600480360360208110156105c357600080fd5b8101908080359060200190929190505050611921565b005b61060d600480360360208110156105f157600080fd5b81019080803563ffffffff1690602001909291905050506119ee565b005b34801561061b57600080fd5b5061074d6004803603608081101561063257600080fd5b81019080803563ffffffff1690602001909291908035906020019064010000000081111561065f57600080fd5b82018360208201111561067157600080fd5b8035906020019184600183028401116401000000008311171561069357600080fd5b9091929391929390803590602001906401000000008111156106b457600080fd5b8201836020820111156106c657600080fd5b803590602001918460018302840111640100000000831117156106e857600080fd5b90919293919293908035906020019064010000000081111561070957600080fd5b82018360208201111561071b57600080fd5b8035906020019184600183028401116401000000008311171561073d57600080fd5b9091929391929390505050611fd9565b604051808215151515815260200191505060405180910390f35b34801561077357600080fd5b506107c06004803603604081101561078a57600080fd5b81019080803573ffffffffffffffffffffffffffffffffffffffff16906020019092919080359060200190929190505050612114565b604051808263ffffffff1663ffffffff16815260200191505060405180910390f35b3480156107ee57600080fd5b506108316004803603602081101561080557600080fd5b81019080803573ffffffffffffffffffffffffffffffffffffffff16906020019092919050505061215a565b604051808263ffffffff1663ffffffff16815260200191505060405180910390f35b34801561085f57600080fd5b506108926004803603602081101561087657600080fd5b81019080803563ffffffff16906020019092919050505061217d565b604051808273ffffffffffffffffffffffffffffffffffffffff1673ffffffffffffffffffffffffffffffffffffffff16815260200191505060405180910390f35b610a0f600480360360a08110156108ea57600080fd5b81019080803563ffffffff169060200190929190803590602001909291908035906020019064010000000081111561092157600080fd5b82018360208201111561093357600080fd5b8035906020019184600183028401116401000000008311171561095557600080fd5b90919293919293908035906020019064010000000081111561097657600080fd5b82018360208201111561098857600080fd5b803590602001918460018302840111640100000000831117156109aa57600080fd5b9091929391929390803590602001906401000000008111156109cb57600080fd5b8201836020820111156109dd57600080fd5b803590602001918460018302840111640100000000831117156109ff57600080fd5b90919293919293905050506121e1565b604051808263ffffffff1663ffffffff16815260200191505060405180910390f35b348015610a3d57600080fd5b50610a7060048036036020811015610a5457600080fd5b81019080803563ffffffff169060200190929190505050612850565b604051808a63ffffffff1663ffffffff1681526020018981526020018881526020018773ffffffffffffffffffffffffffffffffffffffff1673ffffffffffffffffffffffffffffffffffffffff1681526020018673ffffffffffffffffffffffffffffffffffffffff1673ffffffffffffffffffffffffffffffffffffffff168152602001806020018060200180602001856004811115610b0e57fe5b60ff168152602001848103845288818151815260200191508051906020019080838360005b83811015610b4e578082015181840152602081019050610b33565b50505050905090810190601f168015610b7b5780820380516001836020036101000a031916815260200191505b50848103835287818151815260200191508051906020019080838360005b83811015610bb4578082015181840152602081019050610b99565b50505050905090810190601f168015610be15780820380516001836020036101000a031916815260200191505b50848103825286818151815260200191508051906020019080838360005b83811015610c1a578082015181840152602081019050610bff565b50505050905090810190601f168015610c475780820380516001836020036101000a031916815260200191505b509c5050505050505050505050505060405180910390f35b348015610c6b57600080fd5b50610c9e60048036036020811015610c8257600080fd5b81019080803563ffffffff169060200190929190505050612c02565b005b348015610cac57600080fd5b50610cdf60048036036020811015610cc357600080fd5b81019080803563ffffffff169060200190929190505050612e32565b6040518082815260200191505060405180910390f35b348015610d0157600080fd5b50610d3460048036036020811015610d1857600080fd5b81019080803563ffffffff169060200190929190505050612e76565b60405180806020018060200180602001848103845287818151815260200191508051906020019080838360005b83811015610d7c578082015181840152602081019050610d61565b50505050905090810190601f168015610da95780820380516001836020036101000a031916815260200191505b50848103835286818151815260200191508051906020019080838360005b83811015610de2578082015181840152602081019050610dc7565b50505050905090810190601f168015610e0f5780820380516001836020036101000a031916815260200191505b50848103825285818151815260200191508051906020019080838360005b83811015610e48578082015181840152602081019050610e2d565b50505050905090810190601f168015610e755780820380516001836020036101000a031916815260200191505b50965050505050505060405180910390f35b348015610e9357600080fd5b50610ec660048036036020811015610eaa57600080fd5b81019080803563ffffffff1690602001909291905050506130df565b005b348015610ed457600080fd5b50610f0760048036036020811015610eeb57600080fd5b81019080803563ffffffff1690602001909291905050506133df565b604051808273ffffffffffffffffffffffffffffffffffffffff1673ffffffffffffffffffffffffffffffffffffffff16815260200191505060405180910390f35b348015610f5557600080fd5b50610f5e613412565b6040518082815260200191505060405180910390f35b348015610f8057600080fd5b50610fc360048036036020811015610f9757600080fd5b81019080803573ffffffffffffffffffffffffffffffffffffffff16906020019092919050505061341e565b604051808263ffffffff1663ffffffff16815260200191505060405180910390f35b600080805490508263ffffffff1610610ffd57600080fd5b60008263ffffffff168154811061101057fe5b906000526020600020906009020160000160009054906101000a900463ffffffff1663ffffffff164263ffffffff161061104957600080fd5b4260008363ffffffff168154811061105d57fe5b906000526020600020906009020160000160009054906101000a900463ffffffff16039050919050565b60008090505b6000805490508163ffffffff1610156114ea574263ffffffff1660008263ffffffff16815481106110ba57fe5b906000526020600020906009020160000160009054906101000a900463ffffffff1663ffffffff1610156114dd57600060048111156110f557fe5b60008263ffffffff168154811061110857fe5b906000526020600020906009020160080160009054906101000a900460ff16600481111561113257fe5b14156112755760008163ffffffff168154811061114b57fe5b906000526020600020906009020160030160009054906101000a900473ffffffffffffffffffffffffffffffffffffffff1673ffffffffffffffffffffffffffffffffffffffff166108fc60008363ffffffff16815481106111a957fe5b9060005260206000209060090201600201549081150290604051600060405180830381858888f193505050501580156111e6573d6000803e3d6000fd5b50600460008263ffffffff16815481106111fc57fe5b906000526020600020906009020160080160006101000a81548160ff0219169083600481111561122857fe5b02179055507f02c73bd5d87c6dd0d0f2c24d0f6807f6a799e5131fc0beebea790be17a3f168a81604051808263ffffffff1663ffffffff16815260200191505060405180910390a16114dc565b6001600481111561128257fe5b60008263ffffffff168154811061129557fe5b906000526020600020906009020160080160009054906101000a900460ff1660048111156112bf57fe5b14156114db57600260008263ffffffff16815481106112da57fe5b906000526020600020906009020160080160006101000a81548160ff0219169083600481111561130657fe5b021790555060046000808363ffffffff168154811061132157fe5b906000526020600020906009020160040160009054906101000a900473ffffffffffffffffffffffffffffffffffffffff1673ffffffffffffffffffffffffffffffffffffffff1673ffffffffffffffffffffffffffffffffffffffff16815260200190815260200160002081908060018154018082558091505090600182039060005260206000209060089182820401919006600402909192909190916101000a81548163ffffffff021916908363ffffffff1602179055505060056000808363ffffffff16815481106113f257fe5b906000526020600020906009020160040160009054906101000a900473ffffffffffffffffffffffffffffffffffffffff1673ffffffffffffffffffffffffffffffffffffffff1673ffffffffffffffffffffffffffffffffffffffff168152602001908152602001600020600081819054906101000a900463ffffffff168092919060010191906101000a81548163ffffffff021916908363ffffffff160217905550507f20ad90ba9f06e508fd033bc6052be35fe08f48c63312dc26bec01a5376ae2edb81604051808263ffffffff1663ffffffff16815260200191505060405180910390a15b5b5b808060010191505061108d565b50565b60065481565b600080805490508363ffffffff161061150b57600080fd5b60008363ffffffff168154811061151e57fe5b906000526020600020906009020160030160009054906101000a900473ffffffffffffffffffffffffffffffffffffffff1673ffffffffffffffffffffffffffffffffffffffff163373ffffffffffffffffffffffffffffffffffffffff161461158757600080fd5b4263ffffffff168263ffffffff16116115a357600090506115e7565b8160008463ffffffff16815481106115b757fe5b906000526020600020906009020160000160006101000a81548163ffffffff021916908363ffffffff1602179055505b92915050565b6001602052816000526040600020818154811061160657fe5b9060005260206000209060089182820401919006600402915091509054906101000a900463ffffffff1681565b600080805490508263ffffffff161061164b57600080fd5b60008263ffffffff168154811061165e57fe5b906000526020600020906009020160040160009054906101000a900473ffffffffffffffffffffffffffffffffffffffff169050919050565b600081815481106116a457fe5b90600052602060002090600902016000915090508060000160009054906101000a900463ffffffff16908060010154908060020154908060030160009054906101000a900473ffffffffffffffffffffffffffffffffffffffff16908060040160009054906101000a900473ffffffffffffffffffffffffffffffffffffffff1690806005018054600181600116156101000203166002900480601f0160208091040260200160405190810160405280929190818152602001828054600181600116156101000203166002900480156117be5780601f10611793576101008083540402835291602001916117be565b820191906000526020600020905b8154815290600101906020018083116117a157829003601f168201915b505050505090806006018054600181600116156101000203166002900480601f01602080910402602001604051908101604052809291908181526020018280546001816001161561010002031660029004801561185c5780601f106118315761010080835404028352916020019161185c565b820191906000526020600020905b81548152906001019060200180831161183f57829003601f168201915b505050505090806007018054600181600116156101000203166002900480601f0160208091040260200160405190810160405280929190818152602001828054600181600116156101000203166002900480156118fa5780601f106118cf576101008083540402835291602001916118fa565b820191906000526020600020905b8154815290600101906020018083116118dd57829003601f168201915b5050505050908060080160009054906101000a900460ff16905089565b6000600654905090565b600760009054906101000a900473ffffffffffffffffffffffffffffffffffffffff1673ffffffffffffffffffffffffffffffffffffffff163373ffffffffffffffffffffffffffffffffffffffff16146119e4576040517f08c379a000000000000000000000000000000000000000000000000000000000815260040180806020018281038252601b8152602001807f596f7520617265206e6f7420636f6e7472616374206f776e657221000000000081525060200191505060405180910390fd5b8060068190555050565b806000805490508163ffffffff1610611a6f576040517f08c379a00000000000000000000000000000000000000000000000000000000081526004018080602001828103825260138152602001807f496e76616c69642061756374696f6e204944210000000000000000000000000081525060200191505060405180910390fd5b343373ffffffffffffffffffffffffffffffffffffffff16311015611afc576040517f08c379a000000000000000000000000000000000000000000000000000000000815260040180806020018281038252601d8152602001807f496e73756666696369656e74206163636f756e742062616c616e63652100000081525060200191505060405180910390fd5b60008163ffffffff1681548110611b0f57fe5b9060005260206000209060090201600101543411611b78576040517f08c379a00000000000000000000000000000000000000000000000000000000081526004018080602001828103825260268152602001806135f06026913960400191505060405180910390fd5b60008163ffffffff1681548110611b8b57fe5b906000526020600020906009020160000160009054906101000a900463ffffffff1663ffffffff164263ffffffff1610611c2d576040517f08c379a00000000000000000000000000000000000000000000000000000000081526004018080602001828103825260138152602001807f41756374696f6e2068617320636c6f736564210000000000000000000000000081525060200191505060405180910390fd5b60006004811115611c3a57fe5b60008263ffffffff1681548110611c4d57fe5b906000526020600020906009020160080160009054906101000a900460ff166004811115611c7757fe5b1480611cca575060016004811115611c8b57fe5b60008263ffffffff1681548110611c9e57fe5b906000526020600020906009020160080160009054906101000a900460ff166004811115611cc857fe5b145b611d3c576040517f08c379a00000000000000000000000000000000000000000000000000000000081526004018080602001828103825260148152602001807f41756374696f6e20697320696e6163746976652100000000000000000000000081525060200191505060405180910390fd5b60016004811115611d4957fe5b60008363ffffffff1681548110611d5c57fe5b906000526020600020906009020160080160009054906101000a900460ff166004811115611d8657fe5b1415611e3c5760008263ffffffff1681548110611d9f57fe5b906000526020600020906009020160040160009054906101000a900473ffffffffffffffffffffffffffffffffffffffff1673ffffffffffffffffffffffffffffffffffffffff166108fc60008463ffffffff1681548110611dfd57fe5b9060005260206000209060090201600101549081150290604051600060405180830381858888f19350505050158015611e3a573d6000803e3d6000fd5b505b3360008363ffffffff1681548110611e5057fe5b906000526020600020906009020160040160006101000a81548173ffffffffffffffffffffffffffffffffffffffff021916908373ffffffffffffffffffffffffffffffffffffffff1602179055503460008363ffffffff1681548110611eb357fe5b906000526020600020906009020160010181905550600160008363ffffffff1681548110611edd57fe5b906000526020600020906009020160080160006101000a81548160ff02191690836004811115611f0957fe5b02179055507ffc6090b9c9d42b862484b17bf24ce4f1dc70651222a11a4546be2acc9c91d8db8260008463ffffffff1681548110611f4357fe5b906000526020600020906009020160000160009054906101000a900463ffffffff163433604051808563ffffffff1663ffffffff1681526020018463ffffffff1663ffffffff1681526020018381526020018273ffffffffffffffffffffffffffffffffffffffff1673ffffffffffffffffffffffffffffffffffffffff16815260200194505050505060405180910390a15050565b600080805490508863ffffffff1610611ff157600080fd5b60008863ffffffff168154811061200457fe5b906000526020600020906009020160030160009054906101000a900473ffffffffffffffffffffffffffffffffffffffff1673ffffffffffffffffffffffffffffffffffffffff163373ffffffffffffffffffffffffffffffffffffffff161461206d57600080fd5b868660008a63ffffffff168154811061208257fe5b906000526020600020906009020160050191906120a0929190613441565b50848460008a63ffffffff16815481106120b657fe5b906000526020600020906009020160060191906120d4929190613441565b50828260008a63ffffffff16815481106120ea57fe5b90600052602060002090600902016007019190612108929190613441565b50979650505050505050565b6004602052816000526040600020818154811061212d57fe5b9060005260206000209060089182820401919006600402915091509054906101000a900463ffffffff1681565b60056020528060005260406000206000915054906101000a900463ffffffff1681565b600080805490508263ffffffff161061219557600080fd5b60008263ffffffff16815481106121a857fe5b906000526020600020906009020160030160009054906101000a900473ffffffffffffffffffffffffffffffffffffffff169050919050565b6000886203f4808163ffffffff161115612263576040517f08c379a00000000000000000000000000000000000000000000000000000000081526004018080602001828103825260198152602001807f496e76616c69642061756374696f6e206372656174696f6e210000000000000081525060200191505060405180910390fd5b6006543410156122db576040517f08c379a000000000000000000000000000000000000000000000000000000000815260040180806020018281038252601e8152602001807f4e65656420746f2073656e64207365637572697479206465706f73697421000081525060200191505060405180910390fd5b6000600160006040518061012001604052808e420163ffffffff1681526020018d815260200160065481526020013373ffffffffffffffffffffffffffffffffffffffff168152602001600073ffffffffffffffffffffffffffffffffffffffff1681526020018c8c8080601f016020809104026020016040519081016040528093929190818152602001838380828437600081840152601f19601f8201169050808301925050505050505081526020018a8a8080601f016020809104026020016040519081016040528093929190818152602001838380828437600081840152601f19601f82011690508083019250505050505050815260200188888080601f016020809104026020016040519081016040528093929190818152602001838380828437600081840152601f19601f8201169050808301925050505050505081526020016000600481111561242d57fe5b8152509080600181540180825580915050906001820390600052602060002090600902016000909192909190915060008201518160000160006101000a81548163ffffffff021916908363ffffffff160217905550602082015181600101556040820151816002015560608201518160030160006101000a81548173ffffffffffffffffffffffffffffffffffffffff021916908373ffffffffffffffffffffffffffffffffffffffff16021790555060808201518160040160006101000a81548173ffffffffffffffffffffffffffffffffffffffff021916908373ffffffffffffffffffffffffffffffffffffffff16021790555060a08201518160050190805190602001906125409291906134c1565b5060c082015181600601908051906020019061255d9291906134c1565b5060e082015181600701908051906020019061257a9291906134c1565b506101008201518160080160006101000a81548160ff021916908360048111156125a057fe5b02179055505050039050600160003373ffffffffffffffffffffffffffffffffffffffff1673ffffffffffffffffffffffffffffffffffffffff16815260200190815260200160002081908060018154018082558091505090600182039060005260206000209060089182820401919006600402909192909190916101000a81548163ffffffff021916908363ffffffff16021790555050600260003373ffffffffffffffffffffffffffffffffffffffff1673ffffffffffffffffffffffffffffffffffffffff168152602001908152602001600020600081819054906101000a900463ffffffff168092919060010191906101000a81548163ffffffff021916908363ffffffff1602179055505033600360008363ffffffff1663ffffffff16815260200190815260200160002060006101000a81548173ffffffffffffffffffffffffffffffffffffffff021916908373ffffffffffffffffffffffffffffffffffffffff1602179055507f378db19cbc15014db47391fd8db2ab4bdebfd3b5b6acaa5e92a461e45ee767da818c42018c338d8d8d8d8d8d604051808b63ffffffff1663ffffffff1681526020018a63ffffffff1663ffffffff1681526020018981526020018873ffffffffffffffffffffffffffffffffffffffff1673ffffffffffffffffffffffffffffffffffffffff16815260200180602001806020018060200184810384528a8a82818152602001925080828437600081840152601f19601f8201169050808301925050508481038352888882818152602001925080828437600081840152601f19601f8201169050808301925050508481038252868682818152602001925080828437600081840152601f19601f8201169050808301925050509d505050505050505050505050505060405180910390a1809250505098975050505050505050565b60008060008060006060806060600080805490508a63ffffffff161061287557600080fd5b61287d613541565b60008b63ffffffff168154811061289057fe5b9060005260206000209060090201604051806101200160405290816000820160009054906101000a900463ffffffff1663ffffffff1663ffffffff16815260200160018201548152602001600282015481526020016003820160009054906101000a900473ffffffffffffffffffffffffffffffffffffffff1673ffffffffffffffffffffffffffffffffffffffff1673ffffffffffffffffffffffffffffffffffffffff1681526020016004820160009054906101000a900473ffffffffffffffffffffffffffffffffffffffff1673ffffffffffffffffffffffffffffffffffffffff1673ffffffffffffffffffffffffffffffffffffffff168152602001600582018054600181600116156101000203166002900480601f016020809104026020016040519081016040528092919081815260200182805460018160011615610100020316600290048015612a295780601f106129fe57610100808354040283529160200191612a29565b820191906000526020600020905b815481529060010190602001808311612a0c57829003601f168201915b50505050508152602001600682018054600181600116156101000203166002900480601f016020809104026020016040519081016040528092919081815260200182805460018160011615610100020316600290048015612acb5780601f10612aa057610100808354040283529160200191612acb565b820191906000526020600020905b815481529060010190602001808311612aae57829003601f168201915b50505050508152602001600782018054600181600116156101000203166002900480601f016020809104026020016040519081016040528092919081815260200182805460018160011615610100020316600290048015612b6d5780601f10612b4257610100808354040283529160200191612b6d565b820191906000526020600020905b815481529060010190602001808311612b5057829003601f168201915b505050505081526020016008820160009054906101000a900460ff166004811115612b9457fe5b6004811115612b9f57fe5b815250509050806000015181602001518260400151836060015184608001518560a001518660c001518760e00151886101000151859550849450839350829250819150995099509950995099509950995099509950509193959799909294969850565b8060008163ffffffff1681548110612c1657fe5b906000526020600020906009020160040160009054906101000a900473ffffffffffffffffffffffffffffffffffffffff1673ffffffffffffffffffffffffffffffffffffffff163373ffffffffffffffffffffffffffffffffffffffff1614612ce8576040517f08c379a000000000000000000000000000000000000000000000000000000000815260040180806020018281038252601a8152602001807f4f6e6c792077696e6e65722063616e2063616c6c20746869732100000000000081525060200191505060405180910390fd5b60026004811115612cf557fe5b60008363ffffffff1681548110612d0857fe5b906000526020600020906009020160080160009054906101000a900460ff166004811115612d3257fe5b14612da5576040517f08c379a000000000000000000000000000000000000000000000000000000000815260040180806020018281038252600e8152602001807f496e76616c69642073746174652100000000000000000000000000000000000081525060200191505060405180910390fd5b600360008363ffffffff1681548110612dba57fe5b906000526020600020906009020160080160006101000a81548160ff02191690836004811115612de657fe5b02179055507f8b83d80174f66ffff30723106541b7bf432fac3c98d8fea26dd49b434b5cbeeb82604051808263ffffffff1663ffffffff16815260200191505060405180910390a15050565b600080805490508263ffffffff1610612e4a57600080fd5b60008263ffffffff1681548110612e5d57fe5b9060005260206000209060090201600101549050919050565b60608060606000805490508463ffffffff1610612e9257600080fd5b60008463ffffffff1681548110612ea557fe5b906000526020600020906009020160050160008563ffffffff1681548110612ec957fe5b906000526020600020906009020160060160008663ffffffff1681548110612eed57fe5b9060005260206000209060090201600701828054600181600116156101000203166002900480601f016020809104026020016040519081016040528092919081815260200182805460018160011615610100020316600290048015612f935780601f10612f6857610100808354040283529160200191612f93565b820191906000526020600020905b815481529060010190602001808311612f7657829003601f168201915b50505050509250818054600181600116156101000203166002900480601f01602080910402602001604051908101604052809291908181526020018280546001816001161561010002031660029004801561302f5780601f106130045761010080835404028352916020019161302f565b820191906000526020600020905b81548152906001019060200180831161301257829003601f168201915b50505050509150808054600181600116156101000203166002900480601f0160208091040260200160405190810160405280929190818152602001828054600181600116156101000203166002900480156130cb5780601f106130a0576101008083540402835291602001916130cb565b820191906000526020600020905b8154815290600101906020018083116130ae57829003601f168201915b505050505090509250925092509193909250565b80600360008263ffffffff1663ffffffff16815260200190815260200160002060009054906101000a900473ffffffffffffffffffffffffffffffffffffffff1673ffffffffffffffffffffffffffffffffffffffff163373ffffffffffffffffffffffffffffffffffffffff16146131c0576040517f08c379a000000000000000000000000000000000000000000000000000000000815260040180806020018281038252601a8152602001807f4f6e6c792073656c6c65722063616e2063616c6c20746869732100000000000081525060200191505060405180910390fd5b600360048111156131cd57fe5b60008363ffffffff16815481106131e057fe5b906000526020600020906009020160080160009054906101000a900460ff16600481111561320a57fe5b1461327d576040517f08c379a000000000000000000000000000000000000000000000000000000000815260040180806020018281038252600e8152602001807f496e76616c69642073746174652100000000000000000000000000000000000081525060200191505060405180910390fd5b60008263ffffffff168154811061329057fe5b906000526020600020906009020160030160009054906101000a900473ffffffffffffffffffffffffffffffffffffffff1673ffffffffffffffffffffffffffffffffffffffff166108fc60008463ffffffff16815481106132ee57fe5b90600052602060002090600902016002015460008563ffffffff168154811061331357fe5b906000526020600020906009020160010154019081150290604051600060405180830381858888f19350505050158015613351573d6000803e3d6000fd5b50600460008363ffffffff168154811061336757fe5b906000526020600020906009020160080160006101000a81548160ff0219169083600481111561339357fe5b02179055507f02c73bd5d87c6dd0d0f2c24d0f6807f6a799e5131fc0beebea790be17a3f168a82604051808263ffffffff1663ffffffff16815260200191505060405180910390a15050565b60036020528060005260406000206000915054906101000a900473ffffffffffffffffffffffffffffffffffffffff1681565b60008080549050905090565b60026020528060005260406000206000915054906101000a900463ffffffff1681565b828054600181600116156101000203166002900490600052602060002090601f016020900481019282601f1061348257803560ff19168380011785556134b0565b828001600101855582156134b0579182015b828111156134af578235825591602001919060010190613494565b5b5090506134bd91906135ca565b5090565b828054600181600116156101000203166002900490600052602060002090601f016020900481019282601f1061350257805160ff1916838001178555613530565b82800160010185558215613530579182015b8281111561352f578251825591602001919060010190613514565b5b50905061353d91906135ca565b5090565b604051806101200160405280600063ffffffff1681526020016000815260200160008152602001600073ffffffffffffffffffffffffffffffffffffffff168152602001600073ffffffffffffffffffffffffffffffffffffffff168152602001606081526020016060815260200160608152602001600060048111156135c457fe5b81525090565b6135ec91905b808211156135e85760008160009055506001016135d0565b5090565b9056fe596f7572207072696365206973206c657373207468616e2063757272656e7420707269636521a265627a7a72315820b6ccb021576a10354a3e410fbce1fcf61541c03ab6a1eccf041f03f4602f1d7f64736f6c63430005100032",
  "source": "pragma solidity >=0.5.0 <0.6.0;   // Not works\n//pragma experimental ABIEncoderV2;   // It seems that using user-defined struct objects must use this compiler version\n\n//import \"../node_modules/@openzeppelin/contracts/token/ERC20/ERC20.sol\";\n\ncontract Bidchain {\n\n    event NewAuction(uint32 auctionId, uint32 endTime, uint256 beginPrice, address seller, string itemName, string itemDescript, string itemImageURL);\n    event Bidding(uint32 auctionId, uint32 endTime, uint256 newPrice, address bidder);\n    event Released(uint32 auctionId);\n    event Locked(uint32 auctionId);\n    event Waited(uint32 auctionId);\n    event Closed(uint32 auctionId);\n\n/*\n * State object is Created when seller call createAuction()\n * State object is Active when some bidder call bidding()\n * State object is Waited when the auction exists bidder and time up\n * State object is Locked when seller send money to the contract\n *                    |\n *                      We use security deposit at auction creation, and don't need this state\n * State object is Released when bidder confirm the deal\n * State object is Closed when the auction is inactive\n */\n    enum State { Created, Active, Waited,/* Locked,*/ Released, Closed }\n\n    struct Auction {\n        uint32              endTime;    // Auction will close after endTime\n        uint256             price;      // Current offered max price\n        uint256             deposit;    // security deposit when this auction is created.\n        address payable     seller;     // Seller's account address\n        address payable     winner;     // After auction closed, the max price's account address\n        string              itemName;\n        string              itemDescript;\n        string              itemImageURL;\n        State               state;      // Auction's state, see above\n    }\n\n    Auction[] public auctions;\n    mapping (address => uint32[])   public seller2Auction;\n    mapping (address => uint32)     public seller2AuctionNum;\n    mapping (uint32 => address)     public auction2Seller;\n    mapping (address => uint32[])   public winner2Auction;\n    mapping (address => uint32)     public winner2AuctionNum;\n    uint256 public securityDeposit;\n    address payable owner;\n\n    modifier onlySeller(uint32 auctionId) {\n        require(msg.sender == auction2Seller[auctionId], \"Only seller can call this!\");\n        _;\n    }\n\n    modifier onlyWinner(uint32 auctionId) {\n        require(msg.sender == auctions[auctionId].winner, \"Only winner can call this!\");\n        _;\n    }\n\n    modifier validAuction(uint32 period) {\n        require(period <= 3 days, \"Invalid auction creation!\");\n        require(msg.value >= securityDeposit, \"Need to send security deposit!\");\n        _;\n    }\n    modifier validBidding(uint32 auctionId) {\n        require(auctionId < auctions.length, \"Invalid auction ID!\");\n        require(msg.sender.balance >= msg.value, \"Insufficient account balance!\");\n        require(msg.value > auctions[auctionId].price, \"Your price is less than current price!\");\n        require(uint32(now) < auctions[auctionId].endTime, \"Auction has closed!\");\n        require(auctions[auctionId].state == State.Created ||\n                auctions[auctionId].state == State.Active, \"Auction is inactive!\");\n        _;\n    }\n    modifier onlyOwner() {\n        require(msg.sender == owner, \"You are not contract owner!\");\n        _;\n    }\n\n    constructor() public {\n        securityDeposit = 0.1 ether;   // 600 NTD 2020/05/19\n        owner = msg.sender;\n    }\n/*\n * Create the new auction by seller,\n * you can access seller's auction by first query seller2Auction[seller-address],\n * then auctions[seller2Auction[seller-address][specify-seller's-auction-id]]\n */\n    function createAuction(uint32 period,\n                           uint256 beginPrice,\n                           string calldata name,\n                           string calldata descript,\n                           string calldata imageURL)\n                           external\n                           payable\n                           validAuction(period) returns(uint32) {\n\n        uint32 id = uint32(auctions.push(Auction(uint32(now) + period,\n                                                 beginPrice,\n                                                 securityDeposit,\n                                                 msg.sender,\n                                                 address(0),\n                                                 name,\n                                                 descript,\n                                                 imageURL,\n                                                 State.Created))) - 1;\n        seller2Auction[msg.sender].push(id);\n        seller2AuctionNum[msg.sender]++;\n        auction2Seller[id] = msg.sender;\n        emit NewAuction(id, uint32(now) + period, beginPrice, msg.sender, name, descript, imageURL);\n        return id;\n    }\n\n    function bidding(uint32 auctionId) external payable validBidding(auctionId) {\n        if (auctions[auctionId].state == State.Active)\n            auctions[auctionId].winner.transfer(auctions[auctionId].price);  // Refund to the original bidder\n        auctions[auctionId].winner  = msg.sender;\n        auctions[auctionId].price   = msg.value;\n        auctions[auctionId].state   = State.Active;\n        emit Bidding(auctionId, auctions[auctionId].endTime, msg.value, msg.sender);\n    }\n\n\n    // Checking the time up auctions and emit event\n    function checking() external {\n        for (uint32 i = 0; i < auctions.length; i++) {\n            if (auctions[i].endTime < uint32(now)) {\n                if (auctions[i].state == State.Created) {\n                    auctions[i].seller.transfer(auctions[i].deposit);\n                    auctions[i].state = State.Closed;\n                    emit Closed(i);\n                }\n                else if (auctions[i].state == State.Active) {\n                    auctions[i].state = State.Waited;\n                    winner2Auction[auctions[i].winner].push(i);\n                    winner2AuctionNum[auctions[i].winner]++;\n                    emit Waited(i);\n                }\n            }\n        }\n    }\n\n    /*\n     * No need this function anymore because we use security deposit at the createAuction()\n    function locking(uint32 auctionId) external payable onlySeller(auctionId) {\n        require(auctions[auctionId].state == State.Waited, \"Invalid state!\");\n        require(msg.sender.balance >= msg.value && msg.value == auctions[auctionId].price, \"Insufficient token!\");\n        auctions[auctionId].state = State.Locked;\n        emit Locked(auctionId);\n    }\n   */\n\n    function confirm(uint32 auctionId) external onlyWinner(auctionId) {\n        require(auctions[auctionId].state == State.Waited, \"Invalid state!\");\n        auctions[auctionId].state = State.Released;\n        emit Released(auctionId);\n    }\n\n    function release(uint32 auctionId) external onlySeller(auctionId) {\n        require(auctions[auctionId].state == State.Released, \"Invalid state!\");\n        auctions[auctionId].seller.transfer(auctions[auctionId].price + auctions[auctionId].deposit);\n        auctions[auctionId].state = State.Closed;\n        emit Closed(auctionId);\n    }\n    // Getter and Setter\n    function getAuctionNum() external view returns (uint256) {\n        return auctions.length;\n    }\n    function getAuctionById(uint32 auctionId) external view returns(\n        uint32,         // endTime\n        uint256,        // price\n        uint256,        // deposit\n        address,        // seller\n        address,        // winner\n        string memory,  // itemName\n        string memory,  // itemDescript\n        string memory,  // itemImageURL\n        State           // state\n    ) {\n        require(auctionId < auctions.length);\n        Auction memory auc = auctions[auctionId];\n        return (\n            auc.endTime,\n            auc.price,\n            auc.deposit,\n            auc.seller,\n            auc.winner,\n            auc.itemName,\n            auc.itemDescript,\n            auc.itemImageURL,\n            auc.state\n        );\n    }\n    function getPrice(uint32 auctionId) external view returns(uint256) {\n        require(auctionId < auctions.length);\n        return auctions[auctionId].price;\n    }\n    function getRemainTime(uint32 auctionId) external view returns(uint32) {\n        require(auctionId < auctions.length);\n        require(uint32(now) < auctions[auctionId].endTime);\n        return auctions[auctionId].endTime - uint32(now);\n    }\n    function getSeller(uint32 auctionId) external view returns(address) {\n        require(auctionId < auctions.length);\n        return auctions[auctionId].seller;\n    }\n    function getWinner(uint32 auctionId) external view returns(address) {\n        require(auctionId < auctions.length);\n        return auctions[auctionId].winner;\n    }\n    function getItemInfo(uint32 auctionId) external view returns(string memory, string memory, string memory) {\n        require(auctionId < auctions.length);\n        return (\n            auctions[auctionId].itemName,\n            auctions[auctionId].itemDescript,\n            auctions[auctionId].itemImageURL\n        );\n    }\n    function setTime(uint32 auctionId, uint32 newTime) external returns(bool) {\n        require(auctionId < auctions.length);\n        require(msg.sender == auctions[auctionId].seller);\n        if (newTime <= uint32(now))\n            return false;\n        auctions[auctionId].endTime = newTime;\n    }\n    function setItemInfo(uint32 auctionId, string calldata name, string calldata descript, string calldata imageURL) external returns(bool) {\n        require(auctionId < auctions.length);\n        require(msg.sender == auctions[auctionId].seller);\n        auctions[auctionId].itemName = name;\n        auctions[auctionId].itemDescript = descript;\n        auctions[auctionId].itemImageURL = imageURL;\n\n    }\n    function getSecurityDeposit() external view returns(uint256) {\n        return securityDeposit;\n    }\n    function setSecurityDeposit(uint256 newDeposit) external onlyOwner {\n        securityDeposit = newDeposit;\n    }\n\n\n}\n\n",
  "sourcePath": "/Users/kevinmadoka/Documents/NMLab_/NMLab109_final/contracts/Bidchain.sol",
  "compiler": {
    "name": "solc",
    "version": "0.5.16+commit.9c3226ce.Emscripten.clang"
  },
  "schemaVersion": "3.1.0",
  "updatedAt": "2020-06-21T04:04:32.002Z",
  "networkType": "ethereum",
  "devdoc": {
    "methods": {}
  },
  "userdoc": {
    "methods": {}
  }
}