{
  "contractName": "Bidchain",
  "abi": [
    {
      "inputs": [],
      "payable": false,
      "stateMutability": "nonpayable",
      "type": "constructor"
    },
    {
      "anonymous": false,
      "inputs": [
        {
          "indexed": false,
          "internalType": "uint32",
          "name": "auctionId",
          "type": "uint32"
        },
        {
          "indexed": false,
          "internalType": "uint32",
          "name": "endTime",
          "type": "uint32"
        },
        {
          "indexed": false,
          "internalType": "uint256",
          "name": "newPrice",
          "type": "uint256"
        },
        {
          "indexed": false,
          "internalType": "address",
          "name": "bidder",
          "type": "address"
        }
      ],
      "name": "Bidding",
      "type": "event"
    },
    {
      "anonymous": false,
      "inputs": [
        {
          "indexed": false,
          "internalType": "uint32",
          "name": "auctionId",
          "type": "uint32"
        }
      ],
      "name": "Closed",
      "type": "event"
    },
    {
      "anonymous": false,
      "inputs": [
        {
          "indexed": false,
          "internalType": "uint32",
          "name": "auctionId",
          "type": "uint32"
        }
      ],
      "name": "Locked",
      "type": "event"
    },
    {
      "anonymous": false,
      "inputs": [
        {
          "indexed": false,
          "internalType": "uint32",
          "name": "auctionId",
          "type": "uint32"
        },
        {
          "indexed": false,
          "internalType": "uint32",
          "name": "endTime",
          "type": "uint32"
        },
        {
          "indexed": false,
          "internalType": "uint256",
          "name": "beginPrice",
          "type": "uint256"
        },
        {
          "indexed": false,
          "internalType": "address",
          "name": "seller",
          "type": "address"
        },
        {
          "indexed": false,
          "internalType": "string",
          "name": "itemName",
          "type": "string"
        },
        {
          "indexed": false,
          "internalType": "string",
          "name": "itemDescript",
          "type": "string"
        },
        {
          "indexed": false,
          "internalType": "string",
          "name": "itemImageURL",
          "type": "string"
        }
      ],
      "name": "NewAuction",
      "type": "event"
    },
    {
      "anonymous": false,
      "inputs": [
        {
          "indexed": false,
          "internalType": "uint32",
          "name": "auctionId",
          "type": "uint32"
        }
      ],
      "name": "Released",
      "type": "event"
    },
    {
      "anonymous": false,
      "inputs": [
        {
          "indexed": false,
          "internalType": "uint32",
          "name": "auctionId",
          "type": "uint32"
        }
      ],
      "name": "Waited",
      "type": "event"
    },
    {
      "constant": true,
      "inputs": [
        {
          "internalType": "uint32",
          "name": "",
          "type": "uint32"
        }
      ],
      "name": "auction2Seller",
      "outputs": [
        {
          "internalType": "address",
          "name": "",
          "type": "address"
        }
      ],
      "payable": false,
      "stateMutability": "view",
      "type": "function"
    },
    {
      "constant": true,
      "inputs": [
        {
          "internalType": "uint256",
          "name": "",
          "type": "uint256"
        }
      ],
      "name": "auctions",
      "outputs": [
        {
          "internalType": "uint32",
          "name": "endTime",
          "type": "uint32"
        },
        {
          "internalType": "uint256",
          "name": "price",
          "type": "uint256"
        },
        {
          "internalType": "uint256",
          "name": "deposit",
          "type": "uint256"
        },
        {
          "internalType": "address payable",
          "name": "seller",
          "type": "address"
        },
        {
          "internalType": "address payable",
          "name": "winner",
          "type": "address"
        },
        {
          "internalType": "string",
          "name": "itemName",
          "type": "string"
        },
        {
          "internalType": "string",
          "name": "itemDescript",
          "type": "string"
        },
        {
          "internalType": "string",
          "name": "itemImageURL",
          "type": "string"
        },
        {
          "internalType": "enum Bidchain.State",
          "name": "state",
          "type": "uint8"
        }
      ],
      "payable": false,
      "stateMutability": "view",
      "type": "function"
    },
    {
      "constant": true,
      "inputs": [],
      "name": "securityDeposit",
      "outputs": [
        {
          "internalType": "uint256",
          "name": "",
          "type": "uint256"
        }
      ],
      "payable": false,
      "stateMutability": "view",
      "type": "function"
    },
    {
      "constant": true,
      "inputs": [
        {
          "internalType": "address",
          "name": "",
          "type": "address"
        },
        {
          "internalType": "uint256",
          "name": "",
          "type": "uint256"
        }
      ],
      "name": "seller2Auction",
      "outputs": [
        {
          "internalType": "uint32",
          "name": "",
          "type": "uint32"
        }
      ],
      "payable": false,
      "stateMutability": "view",
      "type": "function"
    },
    {
      "constant": true,
      "inputs": [
        {
          "internalType": "address",
          "name": "",
          "type": "address"
        }
      ],
      "name": "seller2AuctionNum",
      "outputs": [
        {
          "internalType": "uint32",
          "name": "",
          "type": "uint32"
        }
      ],
      "payable": false,
      "stateMutability": "view",
      "type": "function"
    },
    {
      "constant": true,
      "inputs": [
        {
          "internalType": "address",
          "name": "",
          "type": "address"
        },
        {
          "internalType": "uint256",
          "name": "",
          "type": "uint256"
        }
      ],
      "name": "winner2Auction",
      "outputs": [
        {
          "internalType": "uint32",
          "name": "",
          "type": "uint32"
        }
      ],
      "payable": false,
      "stateMutability": "view",
      "type": "function"
    },
    {
      "constant": true,
      "inputs": [
        {
          "internalType": "address",
          "name": "",
          "type": "address"
        }
      ],
      "name": "winner2AuctionNum",
      "outputs": [
        {
          "internalType": "uint32",
          "name": "",
          "type": "uint32"
        }
      ],
      "payable": false,
      "stateMutability": "view",
      "type": "function"
    },
    {
      "constant": false,
      "inputs": [
        {
          "internalType": "uint32",
          "name": "period",
          "type": "uint32"
        },
        {
          "internalType": "uint256",
          "name": "beginPrice",
          "type": "uint256"
        },
        {
          "internalType": "string",
          "name": "name",
          "type": "string"
        },
        {
          "internalType": "string",
          "name": "descript",
          "type": "string"
        },
        {
          "internalType": "string",
          "name": "imageURL",
          "type": "string"
        }
      ],
      "name": "createAuction",
      "outputs": [
        {
          "internalType": "uint32",
          "name": "",
          "type": "uint32"
        }
      ],
      "payable": true,
      "stateMutability": "payable",
      "type": "function"
    },
    {
      "constant": false,
      "inputs": [
        {
          "internalType": "uint32",
          "name": "auctionId",
          "type": "uint32"
        }
      ],
      "name": "bidding",
      "outputs": [],
      "payable": true,
      "stateMutability": "payable",
      "type": "function"
    },
    {
      "constant": false,
      "inputs": [],
      "name": "checking",
      "outputs": [],
      "payable": false,
      "stateMutability": "nonpayable",
      "type": "function"
    },
    {
      "constant": false,
      "inputs": [
        {
          "internalType": "uint32",
          "name": "auctionId",
          "type": "uint32"
        }
      ],
      "name": "confirm",
      "outputs": [],
      "payable": false,
      "stateMutability": "nonpayable",
      "type": "function"
    },
    {
      "constant": false,
      "inputs": [
        {
          "internalType": "uint32",
          "name": "auctionId",
          "type": "uint32"
        }
      ],
      "name": "release",
      "outputs": [],
      "payable": false,
      "stateMutability": "nonpayable",
      "type": "function"
    },
    {
      "constant": true,
      "inputs": [],
      "name": "getAuctionNum",
      "outputs": [
        {
          "internalType": "uint256",
          "name": "",
          "type": "uint256"
        }
      ],
      "payable": false,
      "stateMutability": "view",
      "type": "function"
    },
    {
      "constant": true,
      "inputs": [
        {
          "internalType": "uint32",
          "name": "auctionId",
          "type": "uint32"
        }
      ],
      "name": "getAuctionById",
      "outputs": [
        {
          "internalType": "uint32",
          "name": "",
          "type": "uint32"
        },
        {
          "internalType": "uint256",
          "name": "",
          "type": "uint256"
        },
        {
          "internalType": "uint256",
          "name": "",
          "type": "uint256"
        },
        {
          "internalType": "address",
          "name": "",
          "type": "address"
        },
        {
          "internalType": "address",
          "name": "",
          "type": "address"
        },
        {
          "internalType": "string",
          "name": "",
          "type": "string"
        },
        {
          "internalType": "string",
          "name": "",
          "type": "string"
        },
        {
          "internalType": "string",
          "name": "",
          "type": "string"
        },
        {
          "internalType": "enum Bidchain.State",
          "name": "",
          "type": "uint8"
        }
      ],
      "payable": false,
      "stateMutability": "view",
      "type": "function"
    },
    {
      "constant": true,
      "inputs": [
        {
          "internalType": "uint32",
          "name": "auctionId",
          "type": "uint32"
        }
      ],
      "name": "getPrice",
      "outputs": [
        {
          "internalType": "uint256",
          "name": "",
          "type": "uint256"
        }
      ],
      "payable": false,
      "stateMutability": "view",
      "type": "function"
    },
    {
      "constant": true,
      "inputs": [
        {
          "internalType": "uint32",
          "name": "auctionId",
          "type": "uint32"
        }
      ],
      "name": "getRemainTime",
      "outputs": [
        {
          "internalType": "uint32",
          "name": "",
          "type": "uint32"
        }
      ],
      "payable": false,
      "stateMutability": "view",
      "type": "function"
    },
    {
      "constant": true,
      "inputs": [
        {
          "internalType": "uint32",
          "name": "auctionId",
          "type": "uint32"
        }
      ],
      "name": "getSeller",
      "outputs": [
        {
          "internalType": "address",
          "name": "",
          "type": "address"
        }
      ],
      "payable": false,
      "stateMutability": "view",
      "type": "function"
    },
    {
      "constant": true,
      "inputs": [
        {
          "internalType": "uint32",
          "name": "auctionId",
          "type": "uint32"
        }
      ],
      "name": "getWinner",
      "outputs": [
        {
          "internalType": "address",
          "name": "",
          "type": "address"
        }
      ],
      "payable": false,
      "stateMutability": "view",
      "type": "function"
    },
    {
      "constant": true,
      "inputs": [
        {
          "internalType": "uint32",
          "name": "auctionId",
          "type": "uint32"
        }
      ],
      "name": "getItemInfo",
      "outputs": [
        {
          "internalType": "string",
          "name": "",
          "type": "string"
        },
        {
          "internalType": "string",
          "name": "",
          "type": "string"
        },
        {
          "internalType": "string",
          "name": "",
          "type": "string"
        }
      ],
      "payable": false,
      "stateMutability": "view",
      "type": "function"
    },
    {
      "constant": false,
      "inputs": [
        {
          "internalType": "uint32",
          "name": "auctionId",
          "type": "uint32"
        },
        {
          "internalType": "uint32",
          "name": "newTime",
          "type": "uint32"
        }
      ],
      "name": "setTime",
      "outputs": [
        {
          "internalType": "bool",
          "name": "",
          "type": "bool"
        }
      ],
      "payable": false,
      "stateMutability": "nonpayable",
      "type": "function"
    },
    {
      "constant": false,
      "inputs": [
        {
          "internalType": "uint32",
          "name": "auctionId",
          "type": "uint32"
        },
        {
          "internalType": "string",
          "name": "name",
          "type": "string"
        },
        {
          "internalType": "string",
          "name": "descript",
          "type": "string"
        },
        {
          "internalType": "string",
          "name": "imageURL",
          "type": "string"
        }
      ],
      "name": "setItemInfo",
      "outputs": [
        {
          "internalType": "bool",
          "name": "",
          "type": "bool"
        }
      ],
      "payable": false,
      "stateMutability": "nonpayable",
      "type": "function"
    },
    {
      "constant": true,
      "inputs": [],
      "name": "getSecurityDeposit",
      "outputs": [
        {
          "internalType": "uint256",
          "name": "",
          "type": "uint256"
        }
      ],
      "payable": false,
      "stateMutability": "view",
      "type": "function"
    },
    {
      "constant": false,
      "inputs": [
        {
          "internalType": "uint256",
          "name": "newDeposit",
          "type": "uint256"
        }
      ],
      "name": "setSecurityDeposit",
      "outputs": [],
      "payable": false,
      "stateMutability": "nonpayable",
      "type": "function"
    },
    {
      "constant": true,
      "inputs": [
        {
          "internalType": "uint32",
          "name": "auctionId",
          "type": "uint32"
        }
      ],
      "name": "getAuctionStateById",
      "outputs": [
        {
          "internalType": "enum Bidchain.State",
          "name": "",
          "type": "uint8"
        }
      ],
      "payable": false,
      "stateMutability": "view",
      "type": "function"
    },
    {
      "constant": true,
      "inputs": [
        {
          "internalType": "uint32",
          "name": "auctionId",
          "type": "uint32"
        }
      ],
      "name": "getAuctionEndTime",
      "outputs": [
        {
          "internalType": "uint32",
          "name": "",
          "type": "uint32"
        }
      ],
      "payable": false,
      "stateMutability": "view",
      "type": "function"
    }
  ],
  "bytecode": "0x608060405234801561001057600080fd5b5067016345785d8a000060068190555033600760006101000a81548173ffffffffffffffffffffffffffffffffffffffff021916908373ffffffffffffffffffffffffffffffffffffffff160217905550613896806100706000396000f3fe6080604052600436106101665760003560e01c8063999dffea116100d1578063da26663a1161008a578063e51d258411610064578063e51d258414610f51578063eb13a42014610fb2578063ebb5e0af14611033578063f7ca6b0a1461105e57610166565b8063da26663a14610d29578063dc4a1dcc14610d7e578063dda42b3714610f1057610166565b8063999dffea146107f0578063a793f7151461086b578063a8672da6146108dc578063b070d8501461095d578063bfa5858d14610aba578063d2e2697e14610ce857610166565b8063477398aa11610123578063477398aa14610355578063571a26a0146103d657806364a40642146105fe57806386aefcea14610629578063888dd0741461066457806397adfa691461069857610166565b806311dec6021461016b57806317a9b772146101cc5780631cd04dc5146101e3578063220e5ab314610246578063267f45d5146102715780634636499d146102da575b600080fd5b34801561017757600080fd5b506101aa6004803603602081101561018e57600080fd5b81019080803563ffffffff1690602001909291905050506110cf565b604051808263ffffffff1663ffffffff16815260200191505060405180910390f35b3480156101d857600080fd5b506101e1611176565b005b3480156101ef57600080fd5b506102226004803603602081101561020657600080fd5b81019080803563ffffffff1690602001909291905050506115dc565b6040518082600481111561023257fe5b60ff16815260200191505060405180910390f35b34801561025257600080fd5b5061025b611616565b6040518082815260200191505060405180910390f35b34801561027d57600080fd5b506102c06004803603604081101561029457600080fd5b81019080803563ffffffff169060200190929190803563ffffffff16906020019092919050505061161c565b604051808215151515815260200191505060405180910390f35b3480156102e657600080fd5b50610333600480360360408110156102fd57600080fd5b81019080803573ffffffffffffffffffffffffffffffffffffffff16906020019092919080359060200190929190505050611716565b604051808263ffffffff1663ffffffff16815260200191505060405180910390f35b34801561036157600080fd5b506103946004803603602081101561037857600080fd5b81019080803563ffffffff16906020019092919050505061175c565b604051808273ffffffffffffffffffffffffffffffffffffffff1673ffffffffffffffffffffffffffffffffffffffff16815260200191505060405180910390f35b3480156103e257600080fd5b5061040f600480360360208110156103f957600080fd5b81019080803590602001909291905050506117c0565b604051808a63ffffffff1663ffffffff1681526020018981526020018881526020018773ffffffffffffffffffffffffffffffffffffffff1673ffffffffffffffffffffffffffffffffffffffff1681526020018673ffffffffffffffffffffffffffffffffffffffff1673ffffffffffffffffffffffffffffffffffffffff1681526020018060200180602001806020018560048111156104ad57fe5b60ff168152602001848103845288818151815260200191508051906020019080838360005b838110156104ed5780820151818401526020810190506104d2565b50505050905090810190601f16801561051a5780820380516001836020036101000a031916815260200191505b50848103835287818151815260200191508051906020019080838360005b83811015610553578082015181840152602081019050610538565b50505050905090810190601f1680156105805780820380516001836020036101000a031916815260200191505b50848103825286818151815260200191508051906020019080838360005b838110156105b957808201518184015260208101905061059e565b50505050905090810190601f1680156105e65780820380516001836020036101000a031916815260200191505b509c5050505050505050505050505060405180910390f35b34801561060a57600080fd5b50610613611a40565b6040518082815260200191505060405180910390f35b34801561063557600080fd5b506106626004803603602081101561064c57600080fd5b8101908080359060200190929190505050611a4a565b005b6106966004803603602081101561067a57600080fd5b81019080803563ffffffff169060200190929190505050611b17565b005b3480156106a457600080fd5b506107d6600480360360808110156106bb57600080fd5b81019080803563ffffffff169060200190929190803590602001906401000000008111156106e857600080fd5b8201836020820111156106fa57600080fd5b8035906020019184600183028401116401000000008311171561071c57600080fd5b90919293919293908035906020019064010000000081111561073d57600080fd5b82018360208201111561074f57600080fd5b8035906020019184600183028401116401000000008311171561077157600080fd5b90919293919293908035906020019064010000000081111561079257600080fd5b8201836020820111156107a457600080fd5b803590602001918460018302840111640100000000831117156107c657600080fd5b90919293919293905050506121e8565b604051808215151515815260200191505060405180910390f35b3480156107fc57600080fd5b506108496004803603604081101561081357600080fd5b81019080803573ffffffffffffffffffffffffffffffffffffffff16906020019092919080359060200190929190505050612323565b604051808263ffffffff1663ffffffff16815260200191505060405180910390f35b34801561087757600080fd5b506108ba6004803603602081101561088e57600080fd5b81019080803573ffffffffffffffffffffffffffffffffffffffff169060200190929190505050612369565b604051808263ffffffff1663ffffffff16815260200191505060405180910390f35b3480156108e857600080fd5b5061091b600480360360208110156108ff57600080fd5b81019080803563ffffffff16906020019092919050505061238c565b604051808273ffffffffffffffffffffffffffffffffffffffff1673ffffffffffffffffffffffffffffffffffffffff16815260200191505060405180910390f35b610a98600480360360a081101561097357600080fd5b81019080803563ffffffff16906020019092919080359060200190929190803590602001906401000000008111156109aa57600080fd5b8201836020820111156109bc57600080fd5b803590602001918460018302840111640100000000831117156109de57600080fd5b9091929391929390803590602001906401000000008111156109ff57600080fd5b820183602082011115610a1157600080fd5b80359060200191846001830284011164010000000083111715610a3357600080fd5b909192939192939080359060200190640100000000811115610a5457600080fd5b820183602082011115610a6657600080fd5b80359060200191846001830284011164010000000083111715610a8857600080fd5b90919293919293905050506123f0565b604051808263ffffffff1663ffffffff16815260200191505060405180910390f35b348015610ac657600080fd5b50610af960048036036020811015610add57600080fd5b81019080803563ffffffff169060200190929190505050612a5f565b604051808a63ffffffff1663ffffffff1681526020018981526020018881526020018773ffffffffffffffffffffffffffffffffffffffff1673ffffffffffffffffffffffffffffffffffffffff1681526020018673ffffffffffffffffffffffffffffffffffffffff1673ffffffffffffffffffffffffffffffffffffffff168152602001806020018060200180602001856004811115610b9757fe5b60ff168152602001848103845288818151815260200191508051906020019080838360005b83811015610bd7578082015181840152602081019050610bbc565b50505050905090810190601f168015610c045780820380516001836020036101000a031916815260200191505b50848103835287818151815260200191508051906020019080838360005b83811015610c3d578082015181840152602081019050610c22565b50505050905090810190601f168015610c6a5780820380516001836020036101000a031916815260200191505b50848103825286818151815260200191508051906020019080838360005b83811015610ca3578082015181840152602081019050610c88565b50505050905090810190601f168015610cd05780820380516001836020036101000a031916815260200191505b509c5050505050505050505050505060405180910390f35b348015610cf457600080fd5b50610d2760048036036020811015610d0b57600080fd5b81019080803563ffffffff169060200190929190505050612e11565b005b348015610d3557600080fd5b50610d6860048036036020811015610d4c57600080fd5b81019080803563ffffffff169060200190929190505050613041565b6040518082815260200191505060405180910390f35b348015610d8a57600080fd5b50610dbd60048036036020811015610da157600080fd5b81019080803563ffffffff169060200190929190505050613085565b60405180806020018060200180602001848103845287818151815260200191508051906020019080838360005b83811015610e05578082015181840152602081019050610dea565b50505050905090810190601f168015610e325780820380516001836020036101000a031916815260200191505b50848103835286818151815260200191508051906020019080838360005b83811015610e6b578082015181840152602081019050610e50565b50505050905090810190601f168015610e985780820380516001836020036101000a031916815260200191505b50848103825285818151815260200191508051906020019080838360005b83811015610ed1578082015181840152602081019050610eb6565b50505050905090810190601f168015610efe5780820380516001836020036101000a031916815260200191505b50965050505050505060405180910390f35b348015610f1c57600080fd5b50610f4f60048036036020811015610f3357600080fd5b81019080803563ffffffff1690602001909291905050506132ee565b005b348015610f5d57600080fd5b50610f9060048036036020811015610f7457600080fd5b81019080803563ffffffff1690602001909291905050506135ee565b604051808263ffffffff1663ffffffff16815260200191505060405180910390f35b348015610fbe57600080fd5b50610ff160048036036020811015610fd557600080fd5b81019080803563ffffffff16906020019092919050505061362b565b604051808273ffffffffffffffffffffffffffffffffffffffff1673ffffffffffffffffffffffffffffffffffffffff16815260200191505060405180910390f35b34801561103f57600080fd5b5061104861365e565b6040518082815260200191505060405180910390f35b34801561106a57600080fd5b506110ad6004803603602081101561108157600080fd5b81019080803573ffffffffffffffffffffffffffffffffffffffff16906020019092919050505061366a565b604051808263ffffffff1663ffffffff16815260200191505060405180910390f35b600080805490508263ffffffff16106110e757600080fd5b60008263ffffffff16815481106110fa57fe5b906000526020600020906009020160000160009054906101000a900463ffffffff1663ffffffff164263ffffffff16106111375760009050611171565b4260008363ffffffff168154811061114b57fe5b906000526020600020906009020160000160009054906101000a900463ffffffff160390505b919050565b60008090505b6000805490508163ffffffff1610156115d9574263ffffffff1660008263ffffffff16815481106111a957fe5b906000526020600020906009020160000160009054906101000a900463ffffffff1663ffffffff1610156115cc57600060048111156111e457fe5b60008263ffffffff16815481106111f757fe5b906000526020600020906009020160080160009054906101000a900460ff16600481111561122157fe5b14156113645760008163ffffffff168154811061123a57fe5b906000526020600020906009020160030160009054906101000a900473ffffffffffffffffffffffffffffffffffffffff1673ffffffffffffffffffffffffffffffffffffffff166108fc60008363ffffffff168154811061129857fe5b9060005260206000209060090201600201549081150290604051600060405180830381858888f193505050501580156112d5573d6000803e3d6000fd5b50600460008263ffffffff16815481106112eb57fe5b906000526020600020906009020160080160006101000a81548160ff0219169083600481111561131757fe5b02179055507f02c73bd5d87c6dd0d0f2c24d0f6807f6a799e5131fc0beebea790be17a3f168a81604051808263ffffffff1663ffffffff16815260200191505060405180910390a16115cb565b6001600481111561137157fe5b60008263ffffffff168154811061138457fe5b906000526020600020906009020160080160009054906101000a900460ff1660048111156113ae57fe5b14156115ca57600260008263ffffffff16815481106113c957fe5b906000526020600020906009020160080160006101000a81548160ff021916908360048111156113f557fe5b021790555060046000808363ffffffff168154811061141057fe5b906000526020600020906009020160040160009054906101000a900473ffffffffffffffffffffffffffffffffffffffff1673ffffffffffffffffffffffffffffffffffffffff1673ffffffffffffffffffffffffffffffffffffffff16815260200190815260200160002081908060018154018082558091505090600182039060005260206000209060089182820401919006600402909192909190916101000a81548163ffffffff021916908363ffffffff1602179055505060056000808363ffffffff16815481106114e157fe5b906000526020600020906009020160040160009054906101000a900473ffffffffffffffffffffffffffffffffffffffff1673ffffffffffffffffffffffffffffffffffffffff1673ffffffffffffffffffffffffffffffffffffffff168152602001908152602001600020600081819054906101000a900463ffffffff168092919060010191906101000a81548163ffffffff021916908363ffffffff160217905550507f20ad90ba9f06e508fd033bc6052be35fe08f48c63312dc26bec01a5376ae2edb81604051808263ffffffff1663ffffffff16815260200191505060405180910390a15b5b5b808060010191505061117c565b50565b6000808263ffffffff16815481106115f057fe5b906000526020600020906009020160080160009054906101000a900460ff169050919050565b60065481565b600080805490508363ffffffff161061163457600080fd5b60008363ffffffff168154811061164757fe5b906000526020600020906009020160030160009054906101000a900473ffffffffffffffffffffffffffffffffffffffff1673ffffffffffffffffffffffffffffffffffffffff163373ffffffffffffffffffffffffffffffffffffffff16146116b057600080fd5b4263ffffffff168263ffffffff16116116cc5760009050611710565b8160008463ffffffff16815481106116e057fe5b906000526020600020906009020160000160006101000a81548163ffffffff021916908363ffffffff1602179055505b92915050565b6001602052816000526040600020818154811061172f57fe5b9060005260206000209060089182820401919006600402915091509054906101000a900463ffffffff1681565b600080805490508263ffffffff161061177457600080fd5b60008263ffffffff168154811061178757fe5b906000526020600020906009020160040160009054906101000a900473ffffffffffffffffffffffffffffffffffffffff169050919050565b600081815481106117cd57fe5b90600052602060002090600902016000915090508060000160009054906101000a900463ffffffff16908060010154908060020154908060030160009054906101000a900473ffffffffffffffffffffffffffffffffffffffff16908060040160009054906101000a900473ffffffffffffffffffffffffffffffffffffffff1690806005018054600181600116156101000203166002900480601f0160208091040260200160405190810160405280929190818152602001828054600181600116156101000203166002900480156118e75780601f106118bc576101008083540402835291602001916118e7565b820191906000526020600020905b8154815290600101906020018083116118ca57829003601f168201915b505050505090806006018054600181600116156101000203166002900480601f0160208091040260200160405190810160405280929190818152602001828054600181600116156101000203166002900480156119855780601f1061195a57610100808354040283529160200191611985565b820191906000526020600020905b81548152906001019060200180831161196857829003601f168201915b505050505090806007018054600181600116156101000203166002900480601f016020809104026020016040519081016040528092919081815260200182805460018160011615610100020316600290048015611a235780601f106119f857610100808354040283529160200191611a23565b820191906000526020600020905b815481529060010190602001808311611a0657829003601f168201915b5050505050908060080160009054906101000a900460ff16905089565b6000600654905090565b600760009054906101000a900473ffffffffffffffffffffffffffffffffffffffff1673ffffffffffffffffffffffffffffffffffffffff163373ffffffffffffffffffffffffffffffffffffffff1614611b0d576040517f08c379a000000000000000000000000000000000000000000000000000000000815260040180806020018281038252601b8152602001807f596f7520617265206e6f7420636f6e7472616374206f776e657221000000000081525060200191505060405180910390fd5b8060068190555050565b806000805490508163ffffffff1610611b98576040517f08c379a00000000000000000000000000000000000000000000000000000000081526004018080602001828103825260138152602001807f496e76616c69642061756374696f6e204944210000000000000000000000000081525060200191505060405180910390fd5b60008163ffffffff1681548110611bab57fe5b906000526020600020906009020160030160009054906101000a900473ffffffffffffffffffffffffffffffffffffffff1673ffffffffffffffffffffffffffffffffffffffff163373ffffffffffffffffffffffffffffffffffffffff161415611c7e576040517f08c379a000000000000000000000000000000000000000000000000000000000815260040180806020018281038252601f8152602001807f596f752063616e27742062696420796f7572206f776e2061756374696f6e210081525060200191505060405180910390fd5b343373ffffffffffffffffffffffffffffffffffffffff16311015611d0b576040517f08c379a000000000000000000000000000000000000000000000000000000000815260040180806020018281038252601d8152602001807f496e73756666696369656e74206163636f756e742062616c616e63652100000081525060200191505060405180910390fd5b60008163ffffffff1681548110611d1e57fe5b9060005260206000209060090201600101543411611d87576040517f08c379a000000000000000000000000000000000000000000000000000000000815260040180806020018281038252602681526020018061383c6026913960400191505060405180910390fd5b60008163ffffffff1681548110611d9a57fe5b906000526020600020906009020160000160009054906101000a900463ffffffff1663ffffffff164263ffffffff1610611e3c576040517f08c379a00000000000000000000000000000000000000000000000000000000081526004018080602001828103825260138152602001807f41756374696f6e2068617320636c6f736564210000000000000000000000000081525060200191505060405180910390fd5b60006004811115611e4957fe5b60008263ffffffff1681548110611e5c57fe5b906000526020600020906009020160080160009054906101000a900460ff166004811115611e8657fe5b1480611ed9575060016004811115611e9a57fe5b60008263ffffffff1681548110611ead57fe5b906000526020600020906009020160080160009054906101000a900460ff166004811115611ed757fe5b145b611f4b576040517f08c379a00000000000000000000000000000000000000000000000000000000081526004018080602001828103825260148152602001807f41756374696f6e20697320696e6163746976652100000000000000000000000081525060200191505060405180910390fd5b60016004811115611f5857fe5b60008363ffffffff1681548110611f6b57fe5b906000526020600020906009020160080160009054906101000a900460ff166004811115611f9557fe5b141561204b5760008263ffffffff1681548110611fae57fe5b906000526020600020906009020160040160009054906101000a900473ffffffffffffffffffffffffffffffffffffffff1673ffffffffffffffffffffffffffffffffffffffff166108fc60008463ffffffff168154811061200c57fe5b9060005260206000209060090201600101549081150290604051600060405180830381858888f19350505050158015612049573d6000803e3d6000fd5b505b3360008363ffffffff168154811061205f57fe5b906000526020600020906009020160040160006101000a81548173ffffffffffffffffffffffffffffffffffffffff021916908373ffffffffffffffffffffffffffffffffffffffff1602179055503460008363ffffffff16815481106120c257fe5b906000526020600020906009020160010181905550600160008363ffffffff16815481106120ec57fe5b906000526020600020906009020160080160006101000a81548160ff0219169083600481111561211857fe5b02179055507ffc6090b9c9d42b862484b17bf24ce4f1dc70651222a11a4546be2acc9c91d8db8260008463ffffffff168154811061215257fe5b906000526020600020906009020160000160009054906101000a900463ffffffff163433604051808563ffffffff1663ffffffff1681526020018463ffffffff1663ffffffff1681526020018381526020018273ffffffffffffffffffffffffffffffffffffffff1673ffffffffffffffffffffffffffffffffffffffff16815260200194505050505060405180910390a15050565b600080805490508863ffffffff161061220057600080fd5b60008863ffffffff168154811061221357fe5b906000526020600020906009020160030160009054906101000a900473ffffffffffffffffffffffffffffffffffffffff1673ffffffffffffffffffffffffffffffffffffffff163373ffffffffffffffffffffffffffffffffffffffff161461227c57600080fd5b868660008a63ffffffff168154811061229157fe5b906000526020600020906009020160050191906122af92919061368d565b50848460008a63ffffffff16815481106122c557fe5b906000526020600020906009020160060191906122e392919061368d565b50828260008a63ffffffff16815481106122f957fe5b9060005260206000209060090201600701919061231792919061368d565b50979650505050505050565b6004602052816000526040600020818154811061233c57fe5b9060005260206000209060089182820401919006600402915091509054906101000a900463ffffffff1681565b60056020528060005260406000206000915054906101000a900463ffffffff1681565b600080805490508263ffffffff16106123a457600080fd5b60008263ffffffff16815481106123b757fe5b906000526020600020906009020160030160009054906101000a900473ffffffffffffffffffffffffffffffffffffffff169050919050565b6000886203f4808163ffffffff161115612472576040517f08c379a00000000000000000000000000000000000000000000000000000000081526004018080602001828103825260198152602001807f496e76616c69642061756374696f6e206372656174696f6e210000000000000081525060200191505060405180910390fd5b6006543410156124ea576040517f08c379a000000000000000000000000000000000000000000000000000000000815260040180806020018281038252601e8152602001807f4e65656420746f2073656e64207365637572697479206465706f73697421000081525060200191505060405180910390fd5b6000600160006040518061012001604052808e420163ffffffff1681526020018d815260200160065481526020013373ffffffffffffffffffffffffffffffffffffffff168152602001600073ffffffffffffffffffffffffffffffffffffffff1681526020018c8c8080601f016020809104026020016040519081016040528093929190818152602001838380828437600081840152601f19601f8201169050808301925050505050505081526020018a8a8080601f016020809104026020016040519081016040528093929190818152602001838380828437600081840152601f19601f82011690508083019250505050505050815260200188888080601f016020809104026020016040519081016040528093929190818152602001838380828437600081840152601f19601f8201169050808301925050505050505081526020016000600481111561263c57fe5b8152509080600181540180825580915050906001820390600052602060002090600902016000909192909190915060008201518160000160006101000a81548163ffffffff021916908363ffffffff160217905550602082015181600101556040820151816002015560608201518160030160006101000a81548173ffffffffffffffffffffffffffffffffffffffff021916908373ffffffffffffffffffffffffffffffffffffffff16021790555060808201518160040160006101000a81548173ffffffffffffffffffffffffffffffffffffffff021916908373ffffffffffffffffffffffffffffffffffffffff16021790555060a082015181600501908051906020019061274f92919061370d565b5060c082015181600601908051906020019061276c92919061370d565b5060e082015181600701908051906020019061278992919061370d565b506101008201518160080160006101000a81548160ff021916908360048111156127af57fe5b02179055505050039050600160003373ffffffffffffffffffffffffffffffffffffffff1673ffffffffffffffffffffffffffffffffffffffff16815260200190815260200160002081908060018154018082558091505090600182039060005260206000209060089182820401919006600402909192909190916101000a81548163ffffffff021916908363ffffffff16021790555050600260003373ffffffffffffffffffffffffffffffffffffffff1673ffffffffffffffffffffffffffffffffffffffff168152602001908152602001600020600081819054906101000a900463ffffffff168092919060010191906101000a81548163ffffffff021916908363ffffffff1602179055505033600360008363ffffffff1663ffffffff16815260200190815260200160002060006101000a81548173ffffffffffffffffffffffffffffffffffffffff021916908373ffffffffffffffffffffffffffffffffffffffff1602179055507f378db19cbc15014db47391fd8db2ab4bdebfd3b5b6acaa5e92a461e45ee767da818c42018c338d8d8d8d8d8d604051808b63ffffffff1663ffffffff1681526020018a63ffffffff1663ffffffff1681526020018981526020018873ffffffffffffffffffffffffffffffffffffffff1673ffffffffffffffffffffffffffffffffffffffff16815260200180602001806020018060200184810384528a8a82818152602001925080828437600081840152601f19601f8201169050808301925050508481038352888882818152602001925080828437600081840152601f19601f8201169050808301925050508481038252868682818152602001925080828437600081840152601f19601f8201169050808301925050509d505050505050505050505050505060405180910390a1809250505098975050505050505050565b60008060008060006060806060600080805490508a63ffffffff1610612a8457600080fd5b612a8c61378d565b60008b63ffffffff1681548110612a9f57fe5b9060005260206000209060090201604051806101200160405290816000820160009054906101000a900463ffffffff1663ffffffff1663ffffffff16815260200160018201548152602001600282015481526020016003820160009054906101000a900473ffffffffffffffffffffffffffffffffffffffff1673ffffffffffffffffffffffffffffffffffffffff1673ffffffffffffffffffffffffffffffffffffffff1681526020016004820160009054906101000a900473ffffffffffffffffffffffffffffffffffffffff1673ffffffffffffffffffffffffffffffffffffffff1673ffffffffffffffffffffffffffffffffffffffff168152602001600582018054600181600116156101000203166002900480601f016020809104026020016040519081016040528092919081815260200182805460018160011615610100020316600290048015612c385780601f10612c0d57610100808354040283529160200191612c38565b820191906000526020600020905b815481529060010190602001808311612c1b57829003601f168201915b50505050508152602001600682018054600181600116156101000203166002900480601f016020809104026020016040519081016040528092919081815260200182805460018160011615610100020316600290048015612cda5780601f10612caf57610100808354040283529160200191612cda565b820191906000526020600020905b815481529060010190602001808311612cbd57829003601f168201915b50505050508152602001600782018054600181600116156101000203166002900480601f016020809104026020016040519081016040528092919081815260200182805460018160011615610100020316600290048015612d7c5780601f10612d5157610100808354040283529160200191612d7c565b820191906000526020600020905b815481529060010190602001808311612d5f57829003601f168201915b505050505081526020016008820160009054906101000a900460ff166004811115612da357fe5b6004811115612dae57fe5b815250509050806000015181602001518260400151836060015184608001518560a001518660c001518760e00151886101000151859550849450839350829250819150995099509950995099509950995099509950509193959799909294969850565b8060008163ffffffff1681548110612e2557fe5b906000526020600020906009020160040160009054906101000a900473ffffffffffffffffffffffffffffffffffffffff1673ffffffffffffffffffffffffffffffffffffffff163373ffffffffffffffffffffffffffffffffffffffff1614612ef7576040517f08c379a000000000000000000000000000000000000000000000000000000000815260040180806020018281038252601a8152602001807f4f6e6c792077696e6e65722063616e2063616c6c20746869732100000000000081525060200191505060405180910390fd5b60026004811115612f0457fe5b60008363ffffffff1681548110612f1757fe5b906000526020600020906009020160080160009054906101000a900460ff166004811115612f4157fe5b14612fb4576040517f08c379a000000000000000000000000000000000000000000000000000000000815260040180806020018281038252600e8152602001807f496e76616c69642073746174652100000000000000000000000000000000000081525060200191505060405180910390fd5b600360008363ffffffff1681548110612fc957fe5b906000526020600020906009020160080160006101000a81548160ff02191690836004811115612ff557fe5b02179055507f8b83d80174f66ffff30723106541b7bf432fac3c98d8fea26dd49b434b5cbeeb82604051808263ffffffff1663ffffffff16815260200191505060405180910390a15050565b600080805490508263ffffffff161061305957600080fd5b60008263ffffffff168154811061306c57fe5b9060005260206000209060090201600101549050919050565b60608060606000805490508463ffffffff16106130a157600080fd5b60008463ffffffff16815481106130b457fe5b906000526020600020906009020160050160008563ffffffff16815481106130d857fe5b906000526020600020906009020160060160008663ffffffff16815481106130fc57fe5b9060005260206000209060090201600701828054600181600116156101000203166002900480601f0160208091040260200160405190810160405280929190818152602001828054600181600116156101000203166002900480156131a25780601f10613177576101008083540402835291602001916131a2565b820191906000526020600020905b81548152906001019060200180831161318557829003601f168201915b50505050509250818054600181600116156101000203166002900480601f01602080910402602001604051908101604052809291908181526020018280546001816001161561010002031660029004801561323e5780601f106132135761010080835404028352916020019161323e565b820191906000526020600020905b81548152906001019060200180831161322157829003601f168201915b50505050509150808054600181600116156101000203166002900480601f0160208091040260200160405190810160405280929190818152602001828054600181600116156101000203166002900480156132da5780601f106132af576101008083540402835291602001916132da565b820191906000526020600020905b8154815290600101906020018083116132bd57829003601f168201915b505050505090509250925092509193909250565b80600360008263ffffffff1663ffffffff16815260200190815260200160002060009054906101000a900473ffffffffffffffffffffffffffffffffffffffff1673ffffffffffffffffffffffffffffffffffffffff163373ffffffffffffffffffffffffffffffffffffffff16146133cf576040517f08c379a000000000000000000000000000000000000000000000000000000000815260040180806020018281038252601a8152602001807f4f6e6c792073656c6c65722063616e2063616c6c20746869732100000000000081525060200191505060405180910390fd5b600360048111156133dc57fe5b60008363ffffffff16815481106133ef57fe5b906000526020600020906009020160080160009054906101000a900460ff16600481111561341957fe5b1461348c576040517f08c379a000000000000000000000000000000000000000000000000000000000815260040180806020018281038252600e8152602001807f496e76616c69642073746174652100000000000000000000000000000000000081525060200191505060405180910390fd5b60008263ffffffff168154811061349f57fe5b906000526020600020906009020160030160009054906101000a900473ffffffffffffffffffffffffffffffffffffffff1673ffffffffffffffffffffffffffffffffffffffff166108fc60008463ffffffff16815481106134fd57fe5b90600052602060002090600902016002015460008563ffffffff168154811061352257fe5b906000526020600020906009020160010154019081150290604051600060405180830381858888f19350505050158015613560573d6000803e3d6000fd5b50600460008363ffffffff168154811061357657fe5b906000526020600020906009020160080160006101000a81548160ff021916908360048111156135a257fe5b02179055507f02c73bd5d87c6dd0d0f2c24d0f6807f6a799e5131fc0beebea790be17a3f168a82604051808263ffffffff1663ffffffff16815260200191505060405180910390a15050565b6000808263ffffffff168154811061360257fe5b906000526020600020906009020160000160009054906101000a900463ffffffff169050919050565b60036020528060005260406000206000915054906101000a900473ffffffffffffffffffffffffffffffffffffffff1681565b60008080549050905090565b60026020528060005260406000206000915054906101000a900463ffffffff1681565b828054600181600116156101000203166002900490600052602060002090601f016020900481019282601f106136ce57803560ff19168380011785556136fc565b828001600101855582156136fc579182015b828111156136fb5782358255916020019190600101906136e0565b5b5090506137099190613816565b5090565b828054600181600116156101000203166002900490600052602060002090601f016020900481019282601f1061374e57805160ff191683800117855561377c565b8280016001018555821561377c579182015b8281111561377b578251825591602001919060010190613760565b5b5090506137899190613816565b5090565b604051806101200160405280600063ffffffff1681526020016000815260200160008152602001600073ffffffffffffffffffffffffffffffffffffffff168152602001600073ffffffffffffffffffffffffffffffffffffffff1681526020016060815260200160608152602001606081526020016000600481111561381057fe5b81525090565b61383891905b8082111561383457600081600090555060010161381c565b5090565b9056fe596f7572207072696365206973206c657373207468616e2063757272656e7420707269636521a265627a7a72315820883b5d1c7020bc40e40f18b358c13ef2e5bba824e0c5d78f204bdfe968337f9664736f6c63430005100032",
  "source": "pragma solidity >=0.5.0 <0.6.0;   // Not works\n//pragma experimental ABIEncoderV2;   // It seems that using user-defined struct objects must use this compiler version\n\n//import \"../node_modules/@openzeppelin/contracts/token/ERC20/ERC20.sol\";\n\ncontract Bidchain {\n\n    event NewAuction(uint32 auctionId, uint32 endTime, uint256 beginPrice, address seller, string itemName, string itemDescript, string itemImageURL);\n    event Bidding(uint32 auctionId, uint32 endTime, uint256 newPrice, address bidder);\n    event Released(uint32 auctionId);\n    event Locked(uint32 auctionId);\n    event Waited(uint32 auctionId);\n    event Closed(uint32 auctionId);\n\n/*\n * State object is Created when seller call createAuction()\n * State object is Active when some bidder call bidding()\n * State object is Waited when the auction exists bidder and time up\n * State object is Locked when seller send money to the contract\n *                    |\n *                      We use security deposit at auction creation, and don't need this state\n * State object is Released when bidder confirm the deal\n * State object is Closed when the auction is inactive\n */\n    enum State { Created, Active, Waited,/* Locked,*/ Released, Closed }\n\n    struct Auction {\n        uint32              endTime;    // Auction will close after endTime\n        uint256             price;      // Current offered max price\n        uint256             deposit;    // security deposit when this auction is created.\n        address payable     seller;     // Seller's account address\n        address payable     winner;     // After auction closed, the max price's account address\n        string              itemName;\n        string              itemDescript;\n        string              itemImageURL;\n        State               state;      // Auction's state, see above\n    }\n\n    Auction[] public auctions;\n    mapping (address => uint32[])   public seller2Auction;\n    mapping (address => uint32)     public seller2AuctionNum;\n    mapping (uint32 => address)     public auction2Seller;\n    mapping (address => uint32[])   public winner2Auction;\n    mapping (address => uint32)     public winner2AuctionNum;\n    uint256 public securityDeposit;\n    address payable owner;\n\n    modifier onlySeller(uint32 auctionId) {\n        require(msg.sender == auction2Seller[auctionId], \"Only seller can call this!\");\n        _;\n    }\n\n    modifier onlyWinner(uint32 auctionId) {\n        require(msg.sender == auctions[auctionId].winner, \"Only winner can call this!\");\n        _;\n    }\n\n    modifier validAuction(uint32 period) {\n        require(period <= 3 days, \"Invalid auction creation!\");\n        require(msg.value >= securityDeposit, \"Need to send security deposit!\");\n        _;\n    }\n    modifier validBidding(uint32 auctionId) {\n        require(auctionId < auctions.length, \"Invalid auction ID!\");\n        require(msg.sender != auctions[auctionId].seller, \"You can't bid your own auction!\");\n        require(msg.sender.balance >= msg.value, \"Insufficient account balance!\");\n        require(msg.value > auctions[auctionId].price, \"Your price is less than current price!\");\n        require(uint32(now) < auctions[auctionId].endTime, \"Auction has closed!\");\n        require(auctions[auctionId].state == State.Created ||\n                auctions[auctionId].state == State.Active, \"Auction is inactive!\");\n        _;\n    }\n    modifier onlyOwner() {\n        require(msg.sender == owner, \"You are not contract owner!\");\n        _;\n    }\n\n    constructor() public {\n        securityDeposit = 0.1 ether;   // 600 NTD 2020/05/19\n        owner = msg.sender;\n    }\n/*\n * Create the new auction by seller,\n * you can access seller's auction by first query seller2Auction[seller-address],\n * then auctions[seller2Auction[seller-address][specify-seller's-auction-id]]\n */\n    function createAuction(uint32 period,\n                           uint256 beginPrice,\n                           string calldata name,\n                           string calldata descript,\n                           string calldata imageURL)\n                           external\n                           payable\n                           validAuction(period) returns(uint32) {\n\n        uint32 id = uint32(auctions.push(Auction(uint32(now) + period,\n                                                 beginPrice,\n                                                 securityDeposit,\n                                                 msg.sender,\n                                                 address(0),\n                                                 name,\n                                                 descript,\n                                                 imageURL,\n                                                 State.Created))) - 1;\n        seller2Auction[msg.sender].push(id);\n        seller2AuctionNum[msg.sender]++;\n        auction2Seller[id] = msg.sender;\n        emit NewAuction(id, uint32(now) + period, beginPrice, msg.sender, name, descript, imageURL);\n        return id;\n    }\n\n    function bidding(uint32 auctionId) external payable validBidding(auctionId) {\n        if (auctions[auctionId].state == State.Active)\n            auctions[auctionId].winner.transfer(auctions[auctionId].price);  // Refund to the original bidder\n        auctions[auctionId].winner  = msg.sender;\n        auctions[auctionId].price   = msg.value;\n        auctions[auctionId].state   = State.Active;\n        emit Bidding(auctionId, auctions[auctionId].endTime, msg.value, msg.sender);\n    }\n\n\n    // Checking the time up auctions and emit event\n    function checking() external {\n        for (uint32 i = 0; i < auctions.length; i++) {\n            if (auctions[i].endTime < uint32(now)) {\n                if (auctions[i].state == State.Created) {\n                    auctions[i].seller.transfer(auctions[i].deposit);\n                    auctions[i].state = State.Closed;\n                    emit Closed(i);\n                }\n                else if (auctions[i].state == State.Active) {\n                    auctions[i].state = State.Waited;\n                    winner2Auction[auctions[i].winner].push(i);\n                    winner2AuctionNum[auctions[i].winner]++;\n                    emit Waited(i);\n                }\n            }\n        }\n    }\n\n    /*\n     * No need this function anymore because we use security deposit at the createAuction()\n    function locking(uint32 auctionId) external payable onlySeller(auctionId) {\n        require(auctions[auctionId].state == State.Waited, \"Invalid state!\");\n        require(msg.sender.balance >= msg.value && msg.value == auctions[auctionId].price, \"Insufficient token!\");\n        auctions[auctionId].state = State.Locked;\n        emit Locked(auctionId);\n    }\n   */\n\n    function confirm(uint32 auctionId) external onlyWinner(auctionId) {\n        require(auctions[auctionId].state == State.Waited, \"Invalid state!\");\n        auctions[auctionId].state = State.Released;\n        emit Released(auctionId);\n    }\n\n    function release(uint32 auctionId) external onlySeller(auctionId) {\n        require(auctions[auctionId].state == State.Released, \"Invalid state!\");\n        auctions[auctionId].seller.transfer(auctions[auctionId].price + auctions[auctionId].deposit);\n        auctions[auctionId].state = State.Closed;\n        emit Closed(auctionId);\n    }\n    // Getter and Setter\n    function getAuctionNum() external view returns (uint256) {\n        return auctions.length;\n    }\n    function getAuctionById(uint32 auctionId) external view returns(\n        uint32,         // endTime\n        uint256,        // price\n        uint256,        // deposit\n        address,        // seller\n        address,        // winner\n        string memory,  // itemName\n        string memory,  // itemDescript\n        string memory,  // itemImageURL\n        State           // state\n    ) {\n        require(auctionId < auctions.length);\n        Auction memory auc = auctions[auctionId];\n        return (\n            auc.endTime,\n            auc.price,\n            auc.deposit,\n            auc.seller,\n            auc.winner,\n            auc.itemName,\n            auc.itemDescript,\n            auc.itemImageURL,\n            auc.state\n        );\n    }\n    function getPrice(uint32 auctionId) external view returns(uint256) {\n        require(auctionId < auctions.length);\n        return auctions[auctionId].price;\n    }\n    function getRemainTime(uint32 auctionId) external view returns(uint32) {\n        require(auctionId < auctions.length);\n        if (uint32(now) >= auctions[auctionId].endTime)\n            return 0;\n        else\n            return auctions[auctionId].endTime - uint32(now);\n    }\n    function getSeller(uint32 auctionId) external view returns(address) {\n        require(auctionId < auctions.length);\n        return auctions[auctionId].seller;\n    }\n    function getWinner(uint32 auctionId) external view returns(address) {\n        require(auctionId < auctions.length);\n        return auctions[auctionId].winner;\n    }\n    function getItemInfo(uint32 auctionId) external view returns(string memory, string memory, string memory) {\n        require(auctionId < auctions.length);\n        return (\n            auctions[auctionId].itemName,\n            auctions[auctionId].itemDescript,\n            auctions[auctionId].itemImageURL\n        );\n    }\n    function setTime(uint32 auctionId, uint32 newTime) external returns(bool) {\n        require(auctionId < auctions.length);\n        require(msg.sender == auctions[auctionId].seller);\n        if (newTime <= uint32(now))\n            return false;\n        auctions[auctionId].endTime = newTime;\n    }\n    function setItemInfo(uint32 auctionId, string calldata name, string calldata descript, string calldata imageURL) external returns(bool) {\n        require(auctionId < auctions.length);\n        require(msg.sender == auctions[auctionId].seller);\n        auctions[auctionId].itemName = name;\n        auctions[auctionId].itemDescript = descript;\n        auctions[auctionId].itemImageURL = imageURL;\n\n    }\n    function getSecurityDeposit() external view returns(uint256) {\n        return securityDeposit;\n    }\n    function setSecurityDeposit(uint256 newDeposit) external onlyOwner {\n        securityDeposit = newDeposit;\n    }\n\n    function getAuctionStateById(uint32 auctionId) external view returns(State) {\n        return auctions[auctionId].state;\n    }\n    function getAuctionEndTime(uint32 auctionId) external view returns(uint32) {\n        return auctions[auctionId].endTime;\n    }\n}\n\n",
  "sourcePath": "/Users/kevinmadoka/Documents/NMLab_/NMLab109_final/contracts/Bidchain.sol",
  "compiler": {
    "name": "solc",
    "version": "0.5.16+commit.9c3226ce.Emscripten.clang"
  },
  "schemaVersion": "3.1.0",
  "updatedAt": "2020-06-23T15:12:26.017Z",
  "networkType": "ethereum",
  "devdoc": {
    "methods": {}
  },
  "userdoc": {
    "methods": {}
  }
}